:100000000C94210F0C94520F0C94520F0C94520F1D
:100010000C94520F0C94520F0C94520F0C94520FDC
:100020000C94520F0C94520F0C94520F0C94520FCC
:100030000C94520F0C94520F0C94520F0C94520FBC
:100040000C94520F0C9472430C94520F0C94520F58
:100050000C94520F0C94520F0C9483620C94056113
:100060000C94520F0C9437320C94520F0C94520F84
:100070000C94520F0C94520F0C94520F0C94520F7C
:100080000C94520F0C94520F0C94520F0C94520F6C
:100090000C94520F0C94520F0C94520F0C94520F5C
:1000A0000C94520F0C94520F0C94520F0C94520F4C
:1000B0000C94520F0C94520F0C94520F0C94520F3C
:1000C0000C94520F0C94520F0C94520F0C94520F2C
:1000D0000C94520F0C94520F0C94520F0C94520F1C
:1000E0000C94520F545F575F465F4A5F505F8E5FBC
:1000F0005B5F5F5F655F695F6D5F735F775F7B5FAE
:100100008E5F815F855F895F216026602B6035602F
:100110003F60B86049605160596063606D607760AE
:1001200086609060B8609A60A460AE60084AD73B71
:100130003BCE016E84BCBFFDC12F3D6C74319ABDB6
:1001400056833DDA3D00C77F11BED9E4BB4C3E91DA
:100150006BAAAABE000000803F05A84CCDB2D44EC9
:10016000B93836A9020C50B9918688083CA6AAAACB
:100170002ABE000000803F004E414E494E4954596E
:10018000494E46CDCCCC3D0AD7233C17B7D1387762
:10019000CC2B329595E6241FB14F0A000020410078
:1001A00000C84200401C4620BCBE4CCA1B0E5AAEC2
:1001B000C59D7447322F473320626164207061729D
:1001C000616D65746572730A00206F6620004D4290
:1001D0004C2047323920706F696E74200059206FAF
:1001E0007574206F662072616E67652028312D332B
:1001F000292E0A0058206F7574206F662072616E78
:1002000067652028312D33292E0A004D657368203B
:1002100070726F62696E6720646F6E652E0A00539C
:1002200074617274206D6573682070726F62696E9C
:1002300067207769746820224732392053312220A1
:1002400066697273742E0A004732380A47323920C1
:1002500053320053746174653A20004D6573682011
:10026000626564206C6576656C696E672068617391
:10027000206E6F20646174612E0A0053206F7574C4
:10028000206F662072616E67652028302D35292E1B
:100290000A004D65736820706F696E742063616E2B
:1002A0006E6F74206265207265736F6C7665640A88
:1002B000005072696E742074696D653A2000507246
:1002C0006F7465637465642050696E0A006F6E2EEA
:1002D0000A006F66662E0A00473236204465627552
:1002E0006720006D0046696C616D656E74207573E2
:1002F00065643A200053746174733A20002C204CDA
:100300006F6E67657374206A6F623A2000546F7471
:10031000616C2074696D653A200053746174733A9E
:1003200020002C204661696C65643A20002C204630
:10033000696E69736865643A20005072696E7473FF
:100340003A200053746174733A20004B494C4C4579
:10035000442E20004D3131332053006F6B00205765
:100360003A0020573A0053657474696E67205472DE
:100370006176656C20416363656C65726174696F59
:100380006E3A200053657474696E6720526574720A
:1003900061637420416363656C65726174696F6E3B
:1003A0003A200053657474696E67205072696E74E8
:1003B00020416363656C65726174696F6E3A2000F9
:1003C00053657474696E67205072696E7420616E33
:1003D000642054726176656C20416363656C65725C
:1003E0006174696F6E3A2000205A0020590058004D
:1003F00020204D61783A2000205A002059005800F2
:1004000020204D696E3A20004F6E20004F66660036
:10041000536F667420656E6473746F70733A200056
:10042000000136372603FF3C3D38FF0F2E303EFFDC
:1004300013FF0C0809FFFFFF1A1C18FFFF08440AEE
:10044000FF43FFFFFFFFFFFF20643A0020693A00EF
:1004500020703A0043290A0061626C656420286DAF
:10046000696E2074656D702000436F6C6420657840
:10047000747275646573206172652000236465661B
:10048000696E65202044454641554C545F4B6420BD
:100490000023646566696E65202044454641554CDD
:1004A000545F4B69200023646566696E65202044B3
:1004B000454641554C545F4B702000504944204103
:1004C00075746F74756E652066696E6973686564AE
:1004D000212050757420746865206C617374204B02
:1004E000702C204B6920616E64204B6420636F6E1A
:1004F0007374616E74732066726F6D2062656C6FC9
:100500007720696E746F20436F6E666967757261DC
:1005100074696F6E2E680A00504944204175746FEB
:1005200074756E65206661696C6564212074696DFF
:10053000656F75740A00544845524D414C20525520
:100540004E4157415900546865726D616C20527577
:100550006E617761790048656174696E67206661D4
:10056000696C65640048656174696E6720666169DD
:100570006C656400504944204175746F74756E65F4
:10058000206661696C6564212054656D70657261D7
:100590007475726520746F6F20686967680A00203F
:1005A0004B643A2000204B693A2000204B703A20DF
:1005B000000A20436C617373696320504944200A28
:1005C000002054753A2000204B753A2000206D61C0
:1005D000783A2000206D696E3A200020643A2000AD
:1005E00020626961733A20004F66660A00466164C2
:1005F00065204865696768742000426564204C6521
:1006000076656C696E6720004661696C656420746C
:100610006F20656E61626C6520426564204C657672
:10062000656C696E67004D65736820426564204C97
:100630006576656C20646174613A0A004D65736883
:1006400020706F696E742063616E6E6F74206265D6
:10065000207265736F6C7665640A004D3432312008
:10066000696E636F727265637420706172616D652B
:100670007465722075736167650A00546F6F206638
:1006800061722066726F6D207265666572656E6359
:100690006520706F696E740A004175746F002045A3
:1006A0002F443D00416476616E6365204B3D004EF2
:1006B0006F2063617365206C696768740A00416329
:1006C000746976652045787472756465723A2000A5
:1006D000556E6B6E6F776E20636F6D6D616E643AF1
:1006E000202200696E206D6F76655F746F28292067
:1006F000666565645F76616C756520666F7220580B
:10070000593A002C2065793D0029202D3E2028658E
:10071000783D002C2073793D0020436F6E6E656339
:1007200074696E672077697468207665727469638E
:10073000616C206C696E65202873783D002C206503
:10074000793D0029202D3E202865783D002C20731E
:10075000793D0020436F6E6E656374696E67207724
:1007600069746820686F72697A6F6E74616C206C4E
:10077000696E65202873783D002C2079693D002042
:100780002020446F696E6720636972636C65206125
:10079000743A202878693D003F5370656369666943
:1007A000656420582C5920636F6F7264696E6174A0
:1007B00065206F7574206F6620626F756E64732E8E
:1007C0000A003F28522965706561742076616C7556
:1007D00065206E6F7420706C61757369626C653B27
:1007E000206D757374206265206174206C6561737F
:1007F0007420312E0A003F285229657065617420EB
:100800006D757374206265207370656369666965D0
:1008100064207768656E206E6F74207573696E67EB
:1008200020616E204C43442E0A003F53706563697B
:1008300066696564206E6F7A7A6C652074656D7088
:1008400065726174757265206E6F7420706C61756D
:100850007369626C652E0A003F537065636966694F
:1008600065642066696C616D656E742073697A6574
:10087000206E6F7420706C61757369626C652E0AEE
:10088000003F537065636966696564207072696DC5
:1008900065206C656E677468206E6F7420706C6183
:1008A000757369626C652E0A003F5072696D652030
:1008B0006C656E677468206D757374206265207353
:1008C0007065636966696564207768656E206E6F20
:1008D00074207573696E6720616E204C43442E0A44
:1008E000003F537065636966696564206E6F7A7A4C
:1008F0006C652073697A65206E6F7420706C617509
:100900007369626C652E0A003F537065636966699E
:1009100065642052657472616374696F6E204D75F1
:100920006C7469706C696572206E6F7420706C6194
:10093000757369626C652E0A003F5265747261635B
:1009400074696F6E204D756C7469706C6965722086
:100950006D7573742062652073706563696669657F
:10096000642E0A003F537065636966696564206C94
:100970006179657220686569676874206E6F74209C
:10098000706C61757369626C652E0A003F53706507
:10099000636966696564206265642074656D70656D
:1009A000726174757265206E6F7420706C617573FE
:1009B00069626C652E0A0047323620636F6D6D6187
:1009C0006E6420737461727465642E20576169745B
:1009D000696E6720666F722068656174657228733E
:1009E000292E0A002569730025696D202569730089
:1009F0002569682025696D202569730025696420B3
:100A00002569682025696D2025697300256979208D
:100A1000256964202569682025696D202569730092
:100A2000656E7175657565696E672022004C696E2B
:100A300065204E756D626572206973206E6F74203B
:100A40004C617374204C696E65204E756D626572E1
:100A50002B312C204C617374204C696E653A200058
:100A60004B494C4C45442E20005072696E7465729F
:100A70002073746F707065642064756520746F20D6
:100A80006572726F72732E204669782074686520D3
:100A90006572726F7220616E6420757365204D39C6
:100AA000393920746F20726573746172742E202836
:100AB00054656D706572617475726520697320721A
:100AC000657365742E2053657420697420616674A3
:100AD00065722072657374617274696E67290A00A9
:100AE0004E6F20436865636B73756D20776974681A
:100AF000206C696E65206E756D6265722C204C618C
:100B00007374204C696E653A2000636865636B738B
:100B1000756D206D69736D617463682C204C617311
:100B200074204C696E653A20004D31313000204907
:100B30006E76616C69642065787472756465722084
:100B40000024F4D43050C38E20C2A24017828B7090
:100B500011127A910D816CD90AA861E108C7586613
:100B600007615143061E4B5D05C145A7041A41119B
:100B700004093D9803713931034036DB0265339136
:100B800002D4305402802E1D02632CEE01752AC55A
:100B900001B028A001102781018F2564012B244B6F
:100BA00001E0223401AC211F018D200D01801FFCCA
:100BB00000841EED00971DDF00B81CD200E61BC6A6
:100BC00000201BBC00641AB200B219A8000A19A0C8
:100BD000006A189900D117910040178B00B5168450
:100BE0000031167E00B31579003A157300C7146FF3
:100BF0000058146A00EE1366008813630025135E24
:100C000000C7125B006C12570015125400C111513D
:100C10000070114F0021114B00D61049008D104774
:100C2000004610440002104200C00F4000800F3EFA
:100C300000420F3C00060F3B00CB0E3800930E37EE
:100C4000005C0E3500270E3400F30D3200C10D316B
:100C500000900D3000600D2E00320D2D00050D2C82
:100C600000D90C2B00AE0C2900850C29005C0C2748
:100C700000350C27000E0C2600E80B2400C40B24C2
:100C800000A00B23007D0B23005A0B2100390B2100
:100C900000180B2000F80A1F00D90A1E00BB0A1E0C
:100CA000009D0A1D00800A1D00630A1C00470A1BE4
:100CB000002C0A1B00110A1A00F7091A00DD091995
:100CC00000C4091900AB091900920917007B091823
:100CD00000630917004C0916003609160020091692
:100CE000000A091500F5081500E0081400CC0814E6
:100CF00000B8081400A4081400900813007D08121E
:100D0000006B08130058081200460812003408113E
:100D100000230811001208110001081100F007104B
:100D200000E0071000D0071000C0071000B0070F48
:100D300000A107100091070E0083070F0074070F32
:100D40000065070E0057070E0049070E003B070D10
:100D5000002E070E0020070D0013070D0006070DDB
:100D600000F9060C00ED060D00E0060C00D4060CA0
:100D700000C8060C00BC060C00B0060C00A4060B54
:100D80000099060C008D060B0082060B0077060BFF
:100D9000006C060B0061060A0057060B004C060AA1
:100DA0000042060A0038060A002E060A0024060A37
:100DB000001A060A001006090007060A00FD0509C8
:100DC00000F4050900EB050900E2050900D9050951
:100DD00000D0050900C7050900BE050900B50508D2
:100DE00000AD050800A50509009C0508009405084C
:100DF000008C050800840508007C050800740508BF
:100E0000006C050700650508005D0507005605082C
:100E1000004E050700470507004005080038050794
:100E200000310507002A050700230507001C0506F9
:100E300000160507000F0507000805060002050754
:100E400000FB040600F5040700EE040600E80406B3
:100E500000E2040700DB040600D5040600CF040608
:100E600000C9040600C3040600BD040600B704065A
:100E700000B1040500AC040600A6040600A00405A9
:100E8000009B04060095040500900406008A0405F2
:100E90000085040500800406007A04050075040539
:100EA00000700405006B040500660405006104057C
:100EB000005C04050057040500520405004D0405BC
:100EC0000048040500430405003E0404003A0405FC
:100ED0000035040500300404002C04050027040438
:100EE00000230405001E0404001A0404001604056F
:100EF00000110404000D04040009040500040404A6
:100F00000000040400FC030400F8030400F40304DC
:100F100000F0030400EC030400E8030400E403040D
:100F200000E0030400DC030400D8030400D403043D
:100F300000D0030400CC030400C8030300C503036E
:100F40000024F404D9201BC40C5C0E9804C4095F6F
:100F50000265077101F405F900FB04B3004804873A
:100F600000C10369005803550003034500BE023A5F
:100F7000008402310053022A0029022500040220C5
:100F800000E4011C00C8011900AF0117009801140A
:100F90000084011300710110006101100051010E65
:100FA0000043010D0036010B002B010B0020010B4B
:100FB00000150109000C01090003010800FB0008ED
:100FC00000F3000800EB000700E4000600DE000666
:100FD00000D8000600D2000600CC000500C70005BE
:100FE00000C2000500BD000400B9000400B5000403
:100FF00000B1000400AD000400A9000400A5000336
:1010000000A20003009F0004009B0003009800035F
:10101000009500020093000300900003008D000281
:10102000008B000300880002008600020084000399
:1010300000810002007F0002007D0002007B0002B0
:1010400000790002007700010076000200740002BF
:101050000072000100710002006F0002006D0001CB
:10106000006C0002006A00010069000200670001D4
:1010700000660001006500010064000200620001DA
:101080000061000100600001005F0002005D0001DE
:10109000005C0001005B0001005A000100590001E2
:1010A00000580001005700010056000100550001E2
:1010B00000540001005300000053000100520001E1
:1010C0000051000100500001004F0001004E0000DF
:1010D000004E0001004D0001004C0001004B0000DB
:1010E000004B0001004A00010049000100480000D7
:1010F00000480001004700010046000000460001D2
:1011000000450000004500010044000100430000CC
:1011100000430001004200000042000100410000C5
:101120000041000100400001003F0000003F0001BD
:10113000003E0000003E0001003D0000003D0001B7
:10114000003C0000003C0000003C0001003B0000AF
:10115000003B0001003A0000003A000100390000A5
:10116000003900010038000000380000003800019C
:101170000037000000370001003600000036000094
:101180000036000100350000003500000035000188
:10119000003400000034000000340001003300007F
:1011A0000033000000330001003200000032000074
:1011B0000032000100310000003100000031000168
:1011C000003000000030000000300001002F00005F
:1011D000002F0000002F0000002F0001002E000053
:1011E000002E0000002E0001002D0000002D000048
:1011F000002D0000002D0001002C0000002C00003C
:10120000002C0000002C0001002B0000002B00002F
:10121000002B0000002B0001002A0000002A000023
:10122000002A0000002A0001002900000029000017
:10123000002900000029000000290001002800000A
:1012400000280000002800000028000000280001FD
:1012500000270000002700000027000000270000F2
:1012600000270001002600000026000000260000E4
:1012700000260000002600010025000000250000D7
:1012800000250000002500000025000000250001C9
:1012900000240000002400000024000000240000BE
:1012A00000240001002300000023000000230000B0
:1012B00000230000002300000023000000230001A1
:1012C0000022000000220000002200000022000096
:1012D0000022000000220001002100000021000087
:1012E000002100000021000000210000002100007A
:1012F000002100010020000000200000002000006C
:10130000002000000020000000200000002000005D
:1013100000200001001F0000001F0000001F00004F
:10132000001F0000001F0000001F0000001F000140
:10133000001E0000001E0000001E0000001E000035
:10134000006265640A002C2073797374656D2073E4
:10135000746F7070656421204865617465725F49BF
:10136000443A200048656174696E67206661696C63
:1013700065640048656174696E67206661696C65C3
:10138000640048656174696E67206661696C6564B4
:101390000048656174696E67206661696C65640008
:1013A0004572726F722077726974696E6720746F0C
:1013B00020454550524F4D210A00290A00206279EC
:1013C0007465733B20637263200053657474696EA7
:1013D00067732053746F726564202800202863614E
:1013E0006C63756C6174656429210A0020213D20BD
:1013F00000454550524F4D20435243206D69736D57
:1014000061746368202D202873746F7265642920CD
:1014100000290A002062797465733B20637263209F
:10142000002073746F7265642073657474696E67ED
:101430007320726574726965766564202800204D9A
:1014400061726C696E3D563437290A002845455053
:10145000524F4D3D00454550524F4D2076657273B9
:10146000696F6E206D69736D6174636820004861F7
:101470007264636F6465642044656661756C742092
:1014800053657474696E6773204C6F616465640A98
:1014900000E8030000E8030000320000001027000D
:1014A0000000004843000048430000A04100003411
:1014B000420000204300002043F0F77B4400008CF2
:1014C00043434F4D4D554E49434154494F4E0044BF
:1014D000525952554E004552524F525300494E46B2
:1014E0004F004543484F000000000000000000008E
:1014F0000000000000824300007A4300009843206F
:101500006E6F7420656E74657265642E0A000A4DF4
:101510006561737572656420706F696E74733A0AE1
:10152000005A206F66667365743A20004E756D2010
:10153000582C593A20332C330A00E214DD14D61407
:10154000CF14C1146F66660044454255473A0020E7
:101550005A3A0020423A0020436F756E7420413A97
:101560000020453A00205A3A0020593A00583A00E3
:101570003A004361703A00454D455247454E435944
:101580005F50415253455200434153455F4C4947D8
:1015900048545F4252494748544E45535300544FB4
:1015A00047474C455F4C494748545300534F4654B6
:1015B000574152455F504F574552004255494C44A0
:1015C0005F50455243454E54004C4556454C494E9C
:1015D000475F44415441005A5F50524F42450041D9
:1015E00055544F4C4556454C005052494E545F4A55
:1015F0004F420050524F4752455353004155544FAC
:101600005245504F52545F54454D5000564F4C5523
:101610004D455452494300454550524F4D005345A6
:101620005249414C5F584F4E5F584F46460046491D
:10163000524D574152455F4E414D453A4D61726C96
:10164000696E20312E312E38202847697468756202
:101650002920534F555243455F434F44455F5552F0
:101660004C3A68747470733A2F2F676974687562A6
:101670002E636F6D2F4D61726C696E4669726D7766
:101680006172652F4D61726C696E2050524F544FDC
:10169000434F4C5F56455253494F4E3A312E3020FE
:1016A0004D414348494E455F545950453A4A756C3F
:1016B00069612045585452554445525F434F554E39
:1016C000543A3120555549443A6365646532613274
:1016D000662D343161322D343734382D3962313250
:1016E0002D6335356336326633363766660A002F2A
:1016F0002F20001000600350012C0190012201D026
:1017000001180110020E0170020401E002FA0060EB
:1017100003F0000004E600B004DC00A005D200B035
:1017200006C8000008BE00A009B400800BAA00D0C3
:101730000DA00090109600C0138C007017820090CE
:101740001B780010206E00C0246400E02D50008043
:10175000353C00A03A2800A03D1400003F0000A046
:101760003FECFF4572723A204D494E54454D502092
:10177000424544004572723A204D494E54454D5001
:10178000004D494E54454D5020747269676765722B
:101790006564004572723A204D415854454D5020C1
:1017A000424544004572723A204D415854454D50CF
:1017B000004D415854454D502074726967676572F9
:1017C000656400202F002042403A0020403A00008B
:1017D000002100240027002A002D003000330001E2
:1017E000010000040107010A010000220025002871
:1017F000002B002E0031003400020100000501081A
:10180000010B01000020002300260029002C002FDE
:101810000032000001000003010601090105050571
:1018200005070508080808020202020A0A08080457
:101830000404040101010101010101030303030385
:10184000030303040707070C0C0C0C0C0C0C0C0214
:1018500002020206060606060606060B0B0B0B0B1B
:101860000B0B0B0102102020080810204010204014
:101870008002010201080402010102040810204054
:101880008080402010080402018004020180402072
:10189000100804020108040201010204081020409B
:1018A00080010204081020408000000A0B02090C8D
:1018B0000D0E0807030401000000000000000000F6
:1018C0000000000000000000000000000000000018
:1018D00000000000001211100000000000000000D5
:1018E0000000000000000000000000000000004BAD
:1018F000494C4C45442E2000202D20496E76616CC9
:101900006964206578747275646572206E756D62A5
:10191000657220210A002020506C616E6E65724253
:10192000756666657242797465733A200020467266
:101930006565204D656D6F72793A2000436F6D705B
:10194000696C65643A204A756C202036203230314B
:10195000380A00207C20417574686F723A205669FD
:101960006A6179205261676861760A0032303137E6
:101970002D31322D32352031323A303000204C6159
:10198000737420557064617465643A2000312E319F
:101990002E380A004D61726C696E0020536F6674B8
:1019A000776172652052657365740A00205761740F
:1019B0006368646F672052657365740A0020427221
:1019C0006F776E206F75742052657365740A0020FE
:1019D00045787465726E616C2052657365740A0097
:1019E000506F77657255700A0073746172740A00E3
:1019F000205A3A0020593A0020583A00656E647324
:101A0000746F7073206869743A2000526573656E54
:101A1000643A20006F6B0020746F6F206C6F6E67EC
:101A200020657874727573696F6E20707265766563
:101A30006E7465640A0020636F6C6420657874724C
:101A40007573696F6E2070726576656E7465640A71
:101A500000627573793A2070617573656420666FF2
:101A60007220696E7075740A00627573793A20701D
:101A7000617573656420666F7220757365720A0004
:101A8000627573793A2070726F63657373696E67FC
:101A90000A004B494C4C45442E20004B494C4C20ED
:101AA00063617573656420627920746F6F206D7552
:101AB000636820696E6163746976652074696D6519
:101AC000202D2063757272656E7420636F6D6D6179
:101AD0006E643A20005072696E7465722068616CA1
:101AE0007465642E206B696C6C28292063616C6CB2
:101AF0006564210A000000000000007A430000989D
:101B00004300004842000048420000A0410000009D
:101B1000005761726E696E673A20486F6D696E6733
:101B20002042756D702044697669736F72203C2085
:101B3000310A000202040000A0400000A0400000A2
:101B400000400000824300007A4300009843FF01F8
:101B50000120520020204D393030204B004C696E5E
:101B600065617220416476616E63653A0A002044C3
:101B70000020490020204D3330312050005049448E
:101B80002073657474696E67733A0A00205A0020E6
:101B900059002020473239205333205800205A0062
:101BA00020204D3432302053004D6573682042654B
:101BB00064204C6576656C696E673A0A00205A00AD
:101BC00020590020204D323036205800486F6D6576
:101BD000206F66667365743A0A00204500205A003B
:101BE00020590020580020420020540020204D326F
:101BF0003035205300416476616E6365643A20534A
:101C00003C6D696E5F66656564726174653E205403
:101C10003C6D696E5F74726176656C5F6665656464
:101C2000726174653E20423C6D696E5F7365676DDD
:101C3000656E745F74696D655F75733E20583C6DA9
:101C400061785F78795F6A65726B3E205A3C6D619E
:101C5000785F7A5F6A65726B3E20453C6D61785FA4
:101C6000655F6A65726B3E0A0020540020520020B6
:101C7000204D323034205000416363656C657261E1
:101C800074696F6E2028756E6974732F7332293AE8
:101C900020503C7072696E745F616363656C3E20B6
:101CA000523C726574726163745F616363656C3E1C
:101CB00020543C74726176656C5F616363656C3E51
:101CC0000A00204500205A0020590020204D3230C3
:101CD000312058004D6178696D756D2041636365F1
:101CE0006C65726174696F6E2028756E6974732FEC
:101CF0007332293A0A00204500205A00205900205A
:101D0000204D3230332058004D6178696D756D205B
:101D10006665656472617465732028756E69747395
:101D20002F73293A0A00204500205A00205900202C
:101D3000204D3932205800537465707320706572DD
:101D400020756E69743A0A0020204D3230302044EC
:101D5000300A0020204D3230302044002044697386
:101D600061626C65640A0046696C616D656E742021
:101D700073657474696E67733A00202047323120AE
:101D80002020203B20556E69747320696E206D6D94
:101D90000A002066697273740A005A0059005800DC
:101DA000486F6D6520006563686F3A004572726F19
:101DB000723A00544845524D414C2052554E4157BD
:101DC000415900546865726D616C2052756E61777F
:101DD00061790020746F6F206C6F6E672065787476
:101DE000727573696F6E2070726576656E74656466
:101DF0000A0020636F6C6420657874727573696F74
:101E00006E2070726576656E7465640A007A5F6D27
:101E100061783A2000795F6D61783A2000785F6DD3
:101E2000696E3A20005265706F7274696E67206542
:101E30006E6473746F70207374617475730A00003C
:101E4000A59711241FBECFEFD1E2DEBFCDBF00E0CA
:101E50000CBF13E0A0E0B2E0E4EDF9E401E00BBF59
:101E600002C007900D92A231B107D9F72EE0A2E18E
:101E7000B3E001C01D92A334B207E1F71FE0C1E255
:101E8000DFE000E006C021970109802FFE010E94DB
:101E900093A4C032D10780E00807A9F70E94C89236
:101EA0000C94E8A40C9400002F923F924F925F9202
:101EB0006F927F928F929F92AF92BF92CF92DF925A
:101EC000EF92FF920F931F93CF93DF93CDB7DEB7BF
:101ED000C358D1090FB6F894DEBF0FBECDBF81E065
:101EE00090E090933D0C80933C0C8091160A8D34C9
:101EF00011F40C94ED18843511F40C94CB2887342C
:101F000011F00C9406298091140A9091150A8B31D6
:101F1000910509F4C2C5B4F4843091053CF48230D3
:101F20009105CCF597FF30C00C941D2984309105A4
:101F300009F476C54A9711F00C941D290E948B3440
:101F40000C941D298A32910511F40C945E184CF4FE
:101F50008C31910509F436C64D9709F438C60C94B6
:101F60001D298B35910511F40C94DE178C359105E4
:101F700011F40C94E3178A35910511F00C941D2986
:101F8000109225030C941D298091100281110C944C
:101F900024290C941D2920911002222311F40C9461
:101FA0001D2911E0029709F010E00E94415B82E5D3
:101FB0000E94F232882309F436C10E9490326B01EC
:101FC0007C014090430D5090440D6090450D709001
:101FD000460D2091470D3091480D4091490D50918B
:101FE0004A0D2AA73BA74CA75DA780911D0D909194
:101FF0001E0DA0911F0DB091200D8EA79FA7A8AB1D
:10200000B9AB2091210D3091220D4091230D5091BB
:10201000240D2AAF3BAF4CAF5DAF20E030E0A9010B
:10202000C701B6010E94409D882309F4DFC4A301C3
:1020300092016EA57FA588A999A90E94409D811152
:102040000DC02AA53BA54CA55DA56AAD7BAD8CADA9
:102050009DAD0E94409D882309F4C8C420E030E073
:10206000A901C701B6010E94409D881F8827881FCB
:1020700018130BC080E090E0A0E8BFE326968CAF79
:102080009DAFAEAFBFAF26970AC020E030E040E87A
:102090005FEB26962CAF3DAF4EAF5FAF2697A30107
:1020A00092016EA57FA588A999A90E94A9A16EABEE
:1020B0007FAB88AF99AF2AA53BA54CA55DA56AADBE
:1020C0007BAD8CAD9DAD0E94A9A122966CAF7DAF7A
:1020D0008EAF9FAF22972EA93FA948AD59ADCA0137
:1020E000B9010E94A59D4B015C0122962CAD3DAD2E
:1020F0004EAD5FAD2297CA01B9010E94A59D9B011B
:10210000AC01C501B4010E94AAA10E9415A46AAB4A
:102110007BAB8CAB9DAB20E030E040E05FE30E9406
:10212000A59D4B015C01A7019601C701B6010E9464
:10213000A59D6B017C01A5019401C501B4010E941C
:10214000A59D9B01AC01C701B6010E94A9A10E94F7
:1021500015A49B01AC0126966CAD7DAD8EAD9FADF7
:1021600026970E94A59D4B015C012EA53FA548A97D
:1021700059A9C301B2010E94AAA120E030E040E0C9
:102180005FE30E94A59D6B017C0122966CAD7DAD45
:102190008EAD9FAD229790582AA93BA94CA95DA965
:1021A0000E9486A29B01AC01C501B4010E94A59DBD
:1021B0009B01AC01C701B6010E94AAA1A301920133
:1021C0000E94A9A16B017C012AAD3BAD4CAD5DAD78
:1021D0006AA57BA58CA59DA50E94AAA120E030E060
:1021E00040E05FE30E94A59D2B013C012AA93BA989
:1021F0004CA95DA96EA97FA988AD99AD0E9486A260
:102200009B01AC01C501B4010E94A59D9B01AC01DD
:10221000C301B2010E94AAA12AA53BA54CA55DA5B8
:102220000E94A9A114C089E40E94F232882329F0F7
:102230000E9490326B017C0103C0C12CD12C76012D
:102240008AE40E94F2328823D9F00E9490326AAF69
:102250007BAF8CAF9DAF20E030E0A901C701B60194
:102260000E94409D81111AC020E030E0A9016AADB2
:102270007BAD8CAD9DAD0E94409D81110FC0B6C35A
:1022800020E030E0A901C701B6010E94409D8823EB
:1022900009F4ACC31AAE1BAE1CAE1DAED701C6010D
:1022A000B0588AA79BA7ACA7BDA72AAD3BAD4CAD44
:1022B0005DAD50582EA73FA748AB59AB9C01AD016F
:1022C000BC01CD010E94A59D4B015C012EA53FA53F
:1022D00048A959A9CA01B9010E94A59D9B01AC0159
:1022E000C501B4010E94AAA10E9415A466966CAF14
:1022F0007DAF8EAF9FAF66978091430D9091440D57
:10230000A091450DB091460D8AAB9BABACABBDAB7C
:10231000A7019601BC01CD010E94AAA126966CAF2F
:102320007DAF8EAF9FAF26972091470D3091480D1E
:102330004091490D50914A0D22962CAF3DAF4EAFC2
:102340005FAF22972AAD3BAD4CAD5DAD22966CAD33
:102350007DAD8EAD9FAD22970E94AAA12A966CAF4B
:102360007DAF8EAF9FAF2A9780911D0D90911E0D6E
:10237000A0911F0DB091200D2E968CAF9DAFAEAFEA
:10238000BFAF2E9726962CAD3DAD4EAD5FAD2697D7
:10239000BC01CD010E94A9A16B017C012091210DFE
:1023A0003091220D4091230D5091240D62962CAF57
:1023B0003DAF4EAF5FAF62972A962CAD3DAD4EADAF
:1023C0005FAD2A9762966CAD7DAD8EAD9FAD629785
:1023D0000E94A9A14B015C0180914B0D90914C0D85
:1023E000A0914D0DB0914E0D6E968CAF9DAFAEAFDE
:1023F000BFAF6E979C01AD016091250D7091260DC8
:102400008091270D9091280D0E94A9A16EAB7FAB02
:1024100088AF99AF2091290D30912A0D40912B0D55
:1024200050912C0D6A962CAF3DAF4EAF5FAF6A97BF
:1024300080914F0D9091500DA091510DB091520D82
:10244000A2968CAF9DAFAEAFBFAFA297A70196018A
:102450006AA57BA58CA59DA50E94A59D2B013C018D
:10246000A50194016EA57FA588A999A90E94A59DA3
:102470009B01AC01C301B2010E94AAA12B013C0146
:10248000A50194016AA57BA58CA59DA50E94A59D8B
:102490004B015C01A70196016EA57FA588A999A9AA
:1024A0000E94A59D9B01AC01C501B4010E94A9A198
:1024B000A30192010E941DA26B017C0120E030E08B
:1024C000A9010E94409D87FF0AC02BED3FE049EC27
:1024D00050E4C701B6010E94AAA16B017C0111233F
:1024E00051F02BED3FE049EC50E4C701B6010E94EA
:1024F000A9A16B017C0120E030E0A901C701B60170
:102500000E94409D811126C02E962CAD3DAD4EAD52
:102510005FAD2E976AA97BA98CA99DA90E94409DB9
:10252000811118C062962CAD3DAD4EAD5FAD629786
:1025300022966CAD7DAD8EAD9FAD22970E94409DE1
:10254000811108C0ABEDCA2EAFE0DA2EA9ECEA2E5D
:10255000A0E4FA2E66962CAD3DAD4EAD5FAD66970C
:10256000C701B6010E94A59D9B01AC010E94A59DDB
:102570004B015C012EA93FA948AD59ADCA01B90173
:102580000E94A59D9B01AC01C501B4010E94AAA1B6
:102590000E9415A44B015C012FE632E143E85AE3A7
:1025A0000E94409D87FD1EC2C501B4010E941FA369
:1025B0000E94F3A21B01672B19F422242394312CCF
:1025C000B10180E090E00E94449D4B015C019B01C1
:1025D000AC01C701B6010E9486A26AAB7BAB8CAB93
:1025E0009DABA50194016EA97FA988AD99AD0E940C
:1025F00086A266966CAF7DAF8EAF9FAF6697A296B0
:102600002CAD3DAD4EAD5FADA2976A966CAD7DAD84
:102610008EAD9FAD6A970E94A9A1A50194010E9469
:1026200086A26A966CAF7DAF8EAF9FAF6A972AA9DC
:102630003BA94CA95DA9CA01B9010E94A59D20E052
:1026400030E040E05FE30E94A59D9B01AC0160E0AB
:1026500070E080E89FE30E94A9A12E966CAF7DAF49
:102660008EAF9FAF2E976E962CAD3DAD4EAD5FAD4C
:102670006E9729873A874B875C87A2968CAD9DAD74
:10268000AEADBFADA2978D879E87AF87B88B6091A7
:102690001C0270911D02072E000C880B990B0E94E2
:1026A000469D20911E0230911F02409120025091C0
:1026B00021020E94A59D2AE037ED43E25CE30E94DF
:1026C000A59D6AA37BA38CA39DA30E94F9609B0197
:1026D000AC0128533F4F4F4F5F4F62962CAF3DAF39
:1026E0004EAF5FAF62974AA45BA46CA47DA441E0A7
:1026F00050E05FAF4EAF59E15EABAEADBFADA215DE
:10270000B30509F434C10E9413410E94F960DC0151
:10271000CB0162962CAD3DAD4EAD5FAD6297821B95
:10272000930BA40BB50BB7FD10C00E94F9609B0181
:10273000AC0128533F4F4F4F5F4F62962CAF3DAFD8
:102740004EAF5FAF62970E94BB673EA931503EAB70
:10275000332309F441C02E962CAD3DAD4EAD5FAD97
:102760002E976EA57FA588A999A90E94A59D6B01AA
:102770007C012AA93BA94CA95DA9B201C3010E9411
:10278000A59DA70196010E94AAA17B018C012E960E
:102790002CAD3DAD4EAD5FAD2E97B201C3010E9491
:1027A000A59D4B015C012AA93BA94CA95DA96EA579
:1027B0007FA588A999A90E94A59D9B01AC01C5018F
:1027C000B4010E94A9A12B013C01C701D8018EA729
:1027D0009FA7A8ABB9AB51C04EAD5FADBA0180E0C9
:1027E00090E00E94449D2AA93BA94CA95DA90E94A2
:1027F000A59D4B015C010E9483A26B017C01C50178
:10280000B4010E940BA44B015C01A70196016AA5CB
:102810007BA58CA59DA50E94A59D2B013C01A50132
:1028200094016AAD7BAD8CAD9DAD0E94A59D9B01D1
:10283000AC01C301B2010E94AAA12B013C01A50178
:1028400094016AA57BA58CA59DA50E94A59D4B0121
:102850005C01A70196016AAD7BAD8CAD9DAD0E9478
:10286000A59D9B01AC01C501B4010E94A9A16EA761
:102870007FA788AB99AB59E15EAB9201A301269685
:102880006CAD7DAD8EAD9FAD26970E94AAA16983E8
:102890007A838B839C832EA53FA548A959A92A96A4
:1028A0006CAD7DAD8EAD9FAD2A970E94AAA16D83C0
:1028B0007E838F83988766962CAD3DAD4EAD5FAD20
:1028C000669769857A858B859C850E94AAA1698710
:1028D0007A878B879C876A962CAD3DAD4EAD5FADF8
:1028E0006A976D857E858F8598890E94AAA16D87DC
:1028F0007E878F87988B80911B02882321F0CE01E1
:1029000001960E941066E0903B0C89819A81AB8110
:10291000BC818E8B9F8BA88FB98F8D819E81AF815B
:10292000B8858A8F9B8FAC8FBD8F89859A85AB8543
:10293000BC858E8F9F8FA8A3B9A3CE0146960E9417
:10294000792F8E010E5D1F4F9E01235F3F4FAE0119
:10295000425E5F4FBE01665E7F4FCE0146960E948B
:10296000A4888EAD9FAD01969FAF8EAFC6CEE0908E
:102970003B0C80911D0D90911E0DA0911F0DB091EB
:10298000200D8E8B9F8BA88FB98F8091210D9091F8
:10299000220DA091230DB091240D8A8F9B8FAC8FB7
:1029A000BD8F8091250D9091260DA091270DB0919E
:1029B000280D8E8F9F8FA8A3B9A3CE0146960E94A3
:1029C000792F8E010E5D1F4F29E23DE0AE01425E80
:1029D0005F4FBE01665E7F4FCE0146960E94A4887F
:1029E0000E9481340E94812F0C941D29ECEAFDE1A4
:1029F00084918F010F5F1F4F882321F00E948C2F3D
:102A0000F801F6CFE3EBF1E084918F010F5F1F4FE8
:102A1000882311F40C941D290E948C2FF801F4CF07
:102A200080E50E94F232882329F00E94A02E6B01DB
:102A30007C0103C0C12CD12C760183E50E94F232C7
:102A4000882361F00E94903220E030E04AE754E4AD
:102A50000E94A59D0E94F3A26B017C010E94644329
:102A60000E94812F8091430C9091440CA091450CC1
:102A7000B091460CC80ED91EEA1EFB1E0E94F960DA
:102A8000DC01CB018C199D09AE09BF09B7FD02C05D
:102A90000C941D290E94BB67F1CF0E9470848111A4
:102AA0000C941D2980E090E0A0E2B1E489839A8330
:102AB000AB83BC8380E090E0A0E7B3E48D839E838A
:102AC000AF83B88780E090E0A0EAB1E489879A8775
:102AD000AB87BC8780E50E94F232882319F00E9400
:102AE000603201C060E080E090E0A8ECB2E48EA328
:102AF0009FA3A8A7B9A780E090E0A0EAB0E48AA3CA
:102B00009BA3ACA3BDA3613019F0623039F029C09A
:102B1000BE016E5D7F4FCE01099644C029853A857E
:102B20004B855C8560914B0D70914C0D80914D0DE6
:102B300090914E0D0E94AAA16B017C0120E030E033
:102B400048E953E40E94409D87FD06C0C12CD12C6A
:102B5000E8E9EE2EE3E4FE2ECE8ADF8AE88EF98ED7
:102B60001CC0E984FA840B851C85A0904B0DB090A5
:102B70004C0DC0904D0DD0904E0D9501A601B701A2
:102B8000C8010E94D0A3181614F075018601C70170
:102B9000D8018E8B9F8BA88FB98FBE016E5D7F4F42
:102BA000CE0146960E94015E9E012A5D3F4F4BE496
:102BB0005DE0BE016B5F7F4FCE0101960E941D5DFF
:102BC0000C941D2980E00E94085E0C941D2983E569
:102BD0000E94F232882321F00E947032282F01C017
:102BE00020E0022F10E00630110570F0EBE7F2E074
:102BF00084918F010F5F1F4F882311F40C941D29BE
:102C00000E948C2FF801F4CF223009F44FC0F0F469
:102C1000222339F1213009F0B2C10E94F68F1092BF
:102C200001021092000288E492E0909313038093D3
:102C300012030E94932F10924B0D10924C0D109284
:102C40004D0D10924E0D0E94D05C99C1243009F4B4
:102C500087C108F41DC1253009F091C10E94C55CEF
:102C60008EC18091120E882399F08091090D8111F7
:102C700003C06BE872E002C067E872E083E592E0AF
:102C80000E948A868AE00E948C2F0E948D5A77C10A
:102C9000EBE5F2E084917F01BFEFEB1AFB0A88239A
:102CA00009F46DC10E948C2FF701F4CF409100020E
:102CB0005091010257FF0EC0EFE1F2E084918F01C5
:102CC0000F5F1F4F882311F40C941D290E948C2F35
:102CD000F801F4CF4115510529F480911B0280932E
:102CE00026032FC08FEF840F63E00E9472A480FF41
:102CF00002C0291B922F292F990F330BF901EE0FD8
:102D0000FF1FE20FF31FE80FF11D87FDFA95EE0F8D
:102D1000FF1FEE0FFF1FE95EF14F80914B0D909169
:102D20004C0DA0914D0DB0914E0D80839183A283E7
:102D3000B3838091260380931B02493051050CF028
:102D40007BC0842F63E00E9472A480FF03C022E056
:102D5000291B922F40914B0D50914C0D60914D0DC0
:102D600070914E0D4AA35BA36CA37DA319821A82B6
:102D70001B821C8240E050E060EA70E44E8B5F8B67
:102D8000688F798FE4E08E0290011124A9014756E3
:102D9000524F6A0154E0950290011124C9018B55EC
:102DA000924F7C019E012F5F3F4FAE014A5E5F4F05
:102DB000B6010E941D5D19821A821B821C82BE010F
:102DC0006F5F7F4FCE0182960E94015EF701808186
:102DD0009181A281B3818093430D9093440DA09380
:102DE000450DB093460DF60180819181A281B3819A
:102DF0008093470D9093480DA093490DB0934A0DD1
:102E000010921B028091000290910102892B51F4D3
:102E100010924B0D10924C0D10924D0D10924E0DC4
:102E20000E94D05C809100029091010201969093E3
:102E3000010280930002A3C080E090E0A0EAB0E429
:102E400080934B0D90934C0DA0934D0DB0934E0D70
:102E50000E94D05C0E9464438FEF9FEF9093010229
:102E600080930002EBE0F2E084917F012FEFE21A01
:102E7000F20A882321F00E948C2FF701F5CF81E020
:102E80008093120E0E94085E81E00E94AA5C77C0C7
:102E900088E50E94F2328823B1F00E946032FF245C
:102EA000FA94F60E32E03F15A8F4E4EFF1E08491D5
:102EB0008F010F5F1F4F882311F40C941D290E946E
:102EC0008C2FF801F4CF88E50E948C2F0E94B892D5
:102ED0000C941D2989E50E94F2328823B1F00E94EA
:102EE0006032EE24EA94E60E42E04E15A8F4EDEDD1
:102EF000F1E084918F010F5F1F4F882311F40C9430
:102F00001D290E948C2FF801F4CF89E50E948C2F97
:102F10000E94B8920C941D298AE50E94F2328823FF
:102F2000C1F00E9490322F2D30E0F901EE0FFF1F0B
:102F3000E20FF31FEE0DF11DE7FCFA95EE0FFF1FF8
:102F4000EE0FFF1FE95EF14F6083718382839383ED
:102F500016C08AE50E948C2F0E94B8920C941D29FD
:102F60008AE50E94F2328823A1F30E949032609396
:102F7000130E7093140E8093150E9093160E01503D
:102F8000110902301105B0F4609100027091010244
:102F90006A30710514F069E070E08EEC91E00E94F7
:102FA000718669E070E089EC91E00E9471868AE0A8
:102FB0000E948C2F0E94E0580C941D2981E0809380
:102FC00025030C941D290E9464432FE4222E22E045
:102FD000322E3BE4C32E3CE0D32EE12CF12C00E05A
:102FE00010E01AA6D1018D911D010E94F2328823B2
:102FF00009F451C00E9490324B015C01033011056D
:1030000059F0F701EB5EFC4F208131814281538101
:103010000E94A9A14B015C01F701ED5BF24F2081F9
:10302000318142815381C501B4010E94A9A12B01C4
:103030003C012DEB37E346E855EB0E94D0A387FD1A
:103040000AC02DEB37E346E855E3C301B2010E9405
:10305000409D181604F50330110559F480924F0D68
:103060009092500DA092510DB092520DB1E0BAA7BE
:1030700012C0A3019201F601608171818281938166
:103080000E94AAA1D6016D937D938D939C93139773
:10309000C8010E94D35E0F5F1F4FB4E0CB0ED11C5E
:1030A000E4E0EE0EF11C0430110509F09BCFFAA507
:1030B000FF2309F47FCF0E94B9807CCF809110025A
:1030C000882311F40C941D2989E40E94F232F82E11
:1030D000882321F00E946032062F01C000E08AE4BC
:1030E0000E94F232E82E882331F00E946032162FBF
:1030F000F11004C00AC010E0FF20B1F0033010F45A
:103100000C94612DE2E9F2E003C01330D8F70CC053
:1031100084918F010F5F1F4F882311F40C941D2998
:103120000E948C2FF801F4CF0E943A33FF2091F0D7
:1031300024E00202F0011124EB55F24F80819181CD
:10314000A281B38180931D0D90931E0DA0931F0D3E
:10315000B093200DEE2091F034E01302F001112421
:10316000E756F24F80819181A281B3818093210D36
:103170009093220DA093230DB093240D80E50E941F
:10318000F232882319F00E94813203C080E50E9448
:10319000C33286E40E94F2328823D9F00E94903232
:1031A0006B017C0120E030E0A9010E94D0A3181639
:1031B00084F420E030E040E752E4C701B6010E9409
:1031C00086A260931E0270931F0280932002909348
:1031D00021020E940C6B0C941D298091140A90917D
:1031E000150A8837910509F41FC50CF088C08C3585
:1031F000910509F482C40CF049C08C34910509F49E
:10320000CAC1DCF48F31910509F435C14CF4813128
:10321000910509F423C1429709F450C40C941D2967
:103220008133910509F48EC18B34910509F4AFC146
:103230008A9711F00C941D2945C18235910509F436
:1032400034C4C4F48E34910509F4C3C10CF4BDC177
:103250008135910511F00C941D290E9400650E9492
:1032600064430E947C671092EF0C1092EE0C00E019
:1032700010E004C48435910509F420C40CF419C489
:103280008535910509F41EC40C941D298E369105CF
:1032900009F4DFC2B4F48A36910509F4B8C354F4D2
:1032A0008836910509F4A6C28936910509F43AC316
:1032B0000C941D298C36910509F4DEC20CF4CCC3A4
:1032C00075C38237910509F4A1C454F48037910580
:1032D00009F4D6C20CF0DCC20E94165A0C941D29C7
:1032E0008637910509F498C40CF09AC48337910588
:1032F00011F00C941D290E9499580C941D298232BA
:1033000041E0940709F475C70CF04BC08B3C910564
:1033100009F401C5ECF48B39910509F420C354F488
:103320008937910509F487C48C38910509F4DCC20A
:103330000C941D29883C910509F483C4893C9105AE
:1033400009F4C7C48E3B910511F00C941D294AC3A2
:10335000833D910509F4F1C5B4F48D3C910509F460
:1033600064C50CF4F6C48E3C910511F00C941D2933
:103370004FE4C42E42E0D42E54EEE52E59E0F52E53
:1033800000E010E0C8C58D3D910509F4BAC6823E43
:10339000910509F4FFC68C3D910511F00C941D298F
:1033A000A1C6853AA1E09A0711F40C940B2664F5A6
:1033B0008336E1E09E0711F40C94A1288CF48E3240
:1033C00021E0920709F4DBC78F3231E0930711F453
:1033D0000C9413228D32914011F00C941D2917C7C3
:1033E0008A3951E0950709F44FC2843AA1E09A075F
:1033F00011F40C9436258039914011F00C941D295C
:103400000E9464430C941D29863FE1E09E0711F45D
:103410000C949B2784F4843F21E0920711F40C94D0
:10342000952714F00C9498278C3A914011F40C9441
:10343000ED260C941D29843853E0950711F40C9463
:10344000AA27873EA3E09A0711F40C94B828873F77
:10345000914011F00C941D290C949E275F988A9836
:103460009FB7F894809108018E7F809308019FBFD9
:1034700012980C941D2983EB9DE00E946A426E8B8A
:103480007F8B888F998FBE016F5F7F4FCE014696ED
:103490000E94B02EE6EAFDE184918F010F5F1F4F7D
:1034A000882321F00E948C2FF801F6CFBE016F5FB8
:1034B0007F4F81EB92E00E948A868AE00E948C2FE7
:1034C0000C941D2983E50E94F232882311F40C9498
:1034D0001D290E947032E82E80E50E94F232882376
:1034E00041F00E9460328B0177FF02C00C941D29CD
:1034F00002C00DE010E0902FE0E2F4E088E28E0FD1
:103500002491921729F031968E13FACF0C94292921
:10351000ECEAFDE184918F010F5F1F4F882321F0BA
:103520000E948C2FF801F6CFEEEBF2E084918F0130
:103530000F5F1F4F882311F40C941D290E948C2FBC
:10354000F801F4CFF090140381E0F826F092140310
:10355000E8EDF2E084918F010F5F1F4F882321F087
:103560000E948C2FF801F6CFF11003C0E2EDF2E0DB
:1035700002C0EDECF2E084918F010F5F1F4F8823B2
:1035800011F40C941D290E948C2FF801F4CF0E9495
:10359000E8840C941D298091B30D9091B40D01978E
:1035A00011F00C941D2982E090E09093B40D80936B
:1035B000B30D0E94F9606093BD0D7093BE0D8093B2
:1035C000BF0D9093C00D0C941D290E94FF800C9498
:1035D0001D2983E50E94F232882359F00E9460324F
:1035E0006E34710531F483EB9DE00E94C0860C942B
:1035F0001D291E8A1F8A188E198EE3E4F3E0849138
:103600008F010F5F1F4F882321F00E948C2FF8013C
:10361000F6CFEAE3F3E084918F010F5F1F4F882319
:1036200021F00E948C2FF801F6CF6091C10D7091AE
:10363000C20D80E090E04AE00E944631EDE2F3E006
:1036400084918F010F5F1F4F882321F00E948C2FE0
:10365000F801F6CF6091C30D7091C40D80E090E049
:103660004AE00E944631E2E2F3E084918F010F5F6D
:103670001F4F882321F00E948C2FF801F6CF609114
:10368000C10D7091C20D8091C30D9091C40D681B46
:10369000790B8091B30D9091B40D019721E030E04A
:1036A000029710F020E030E0621B730B80E090E0A6
:1036B0004AE00E9446318AE00E948C2FEAE1F3E062
:1036C00084918F010F5F1F4F882321F00E948C2F60
:1036D000F801F6CF8091C50D9091C60DA091C70D50
:1036E000B091C80D8E8B9F8BA88FB98FBE016F5F75
:1036F0007F4FCE0146960E94B02EEDE0F3E084911C
:103700008F010F5F1F4F811105C0FE0131967F01B0
:103710008F0104C00E948C2FF801F1CFD8018D9148
:103720008D01882319F00E948C2FF8CF8091C90D4C
:103730009091CA0DA091CB0DB091CC0D8E8B9F8B2B
:10374000A88FB98FBE016F5F7F4FCE0146960E9452
:10375000B02EEDEFF2E084918F010F5F1F4F8823B1
:1037600021F00E948C2FF801F6CFF70181917F01A3
:10377000882319F00E948C2FF8CF8AE00E948C2FAA
:10378000E5EFF2E084918F010F5F1F4F882321F056
:103790000E948C2FF801F6CFE5EEF2E084918F01C4
:1037A0000F5F1F4F882321F00E948C2FF801F6CF66
:1037B00020E030E04AE754E46091CD0D7091CE0DE9
:1037C0008091CF0D9091D00D0E9486A242E00E9480
:1037D000C631E3EEF2E084918F010F5F1F4F882323
:1037E00021F00E948C2FF801F6CF8AE00E948C2FE6
:1037F0000C941D2988E690E00E94FE3281110C9401
:103800001D298091190A83FF02C00C941D2983E5AC
:103810000E94F2328823C9F00E9490320E94EEA2E8
:103820007093B5096093B40980E00E94B6640E9469
:10383000903220E030E04AEA52E40E94409D18169F
:1038400014F00E94FF800E9490320E947E980C9497
:103850001D298EE40E94F232882311F40C941D2954
:103860000E94603260932F0D7093300D8093310D64
:103870009093320D0C941D29109202020C941D2974
:103880008BE493E00E948D670E9422580C941D29BE
:1038900083E50E94F232882369F00E9470328D33F2
:1038A00020F4809322020C941D298CE38093220241
:1038B0000C941D29E6EAFDE184918F010F5F1F4FF3
:1038C000882321F00E948C2FF801F6CF409122022C
:1038D00050E060E070E084E593E00E941A868AE0A0
:1038E0000E948C2F0C941D298091190A83FF02C01D
:1038F0000C941D2983E50E94F232882311F40C9464
:103900001D290E9490320E94EEA26739710514F0C1
:1039100066E970E07093B3096093B2090E946C6429
:103920000C941D2989E690E00E94FE32811111C09D
:10393000EBE5F3E084918F010F5F1F4F882321F0A7
:103940000E948C2FF801F6CF0E94F7618AE00E9456
:103950008C2F10923D0C10923C0C0C948F2D83E513
:103960000E94F232882311F40C941D290E947032B7
:10397000182F8D3308F01CE31093420C0E94F9605D
:103980006B017C01212F30E0A8EEB3E00E949AA1E8
:10399000C60ED71EE81EF91EC0923E0CD0923F0CF8
:1039A000E092400CF092410C0C941D298DE690E0C1
:1039B0000E94FE3281110C941D298091190A83FF07
:1039C00002C00C941D2983E50E94F2328AAF811156
:1039D0000C943E2982E50E94F23281110C943E291A
:1039E0000C941D298091190A83FF02C00C941D2993
:1039F00083E50E94F2328AAF81110C94792A82E524
:103A00000E94F23281110C94792A0C941D2980E5D0
:103A10000E94F232811108C083E50E94F2328111C6
:103A200009C03FEF20E00AC00E94703281110C945F
:103A30001D29F2CF0E946032362F272F832F922F1D
:103A40008F3F910519F010F08FEF90E09093EF0CFD
:103A50008093EE0C0C941D2980E50E94F2328111B6
:103A600006C01092EF0C1092EE0C0C941D290E94CF
:103A70006032672B11F00C941D29F3CF62E370E0E4
:103A800080E090E00E94C1600E9413410F5F1F4FD1
:103A90000331110599F762E370E080E090E00E9445
:103AA000C1600E9413410C941D29109224030C94B0
:103AB0001D2981E0809324030C941D290E94BD5987
:103AC0000C941D2983E50E94C332882311F40C94C1
:103AD0001D290E94903220E030E04AE754E40E9421
:103AE000A59D0E94F3A26093470C7093480C8093AD
:103AF000490C90934A0C0C941D29AFE4CA2EA2E005
:103B0000DA2EB3E5EB2EBDE0FB2E10E0D6018D9151
:103B10006D010E94C332882309F46DC0133009F08F
:103B200063C00E9490324B015C0120E030E040EA2B
:103B300051E40E94409D87FF4EC0A5019401609111
:103B40005F0D7091600D8091610D9091620D0E94EA
:103B500086A22B013C019B01AC016091C20C7091CB
:103B6000C30C8091C40C9091C50C0E94A59D6093DC
:103B7000C20C7093C30C8093C40C9093C50CA3012A
:103B800092016091DE0C7091DF0C8091E00C9091BD
:103B9000E10C0E94A59D6093DE0C7093DF0C809376
:103BA000E00C9093E10C6091FE0D7091FF0D8091FF
:103BB000000E9091010E0E94449DA30192010E946B
:103BC000A59D0E94F3A26093FE0D7093FF0D80935C
:103BD000000E9093010E80925F0D9092600DA09266
:103BE000610DB092620D07C00E949032F7016083B0
:103BF0007183828393831F5FF4E0EF0EF11C143016
:103C000009F084CF0E9439880C941D290E946443D6
:103C10000E94E0580C941D290E9458580C941D29AC
:103C20000E94E2900C941D2981E08093B20D809354
:103C3000B10D0C941D291092B20D1092B10D0C947F
:103C40001D2988EC90E00E94FE3281110C941D2900
:103C500084E40E94C3328823C1F10E94903211E0B3
:103C600020E030E0A9010E94409D811101C010E0D8
:103C70001093A50C112349F10E949032E091AD09F7
:103C800024E0E29FF0011124E655F34F6083718335
:103C90008283938320E030E0A9016091AA0C7091A7
:103CA000AB0C8091AC0C9091AD0C0E94409D8111A9
:103CB0000CC080E090E0A0EEBFE38093AA0C90934C
:103CC000AB0CA093AC0CB093AD0C0E9454800C9440
:103CD0001D29E2E0EE2EEEE0FE2E0FE412E0F4E00D
:103CE000DF2ED00ED8018D918D010E94C332882322
:103CF00049F00E9490320E94F3A2F7016083718321
:103D000082839383F4E0EF0EF11CD012EBCF0E947C
:103D1000D5860C941D2962EDE62E6CE0F62E0FE49C
:103D200012E074E0D72ED00ED8018D918D010E9443
:103D3000C332882339F00E949032F7016083718387
:103D400082839383F4E0EF0EF11CD012EDCF0C943C
:103D50001D2983E50E94C3328823D9F00E94903246
:103D6000AB01BC014093CA0C5093CB0C6093CC0CBC
:103D70007093CD0C4093C60C5093C70C6093C80C45
:103D80007093C90C80EC93E00E9454868AE00E94F4
:103D90008C2F80E50E94C332882399F00E949032D4
:103DA000AB01BC014093CA0C5093CB0C6093CC0C7C
:103DB0007093CD0C83EA93E00E9454868AE00E94BF
:103DC0008C2F82E50E94C332882399F00E949032A2
:103DD000AB01BC014093CE0C5093CF0C6093D00C40
:103DE0007093D10C84E893E00E9454868AE00E948C
:103DF0008C2F84E50E94C332882311F40C941D2972
:103E00000E949032AB01BC014093C60C5093C70C8A
:103E10006093C80C7093C90C86E693E00E945486A8
:103E20008AE00E948C2F0C941D2983E50E94C332E6
:103E3000882351F00E9490326093EA0C7093EB0C4F
:103E40008093EC0C9093ED0C84E50E94C3328823A0
:103E500051F00E9490326093E60C7093E70C8093CF
:103E6000E80C9093E90C82E40E94C332882351F05D
:103E70000E94A02E6093E20C7093E30C8093E40CFC
:103E80009093E50C88E50E94C332882351F00E948C
:103E900090326093B60C7093B70C8093B80C9093EB
:103EA000B90C89E50E94C332882351F00E949032F8
:103EB0006093BA0C7093BB0C8093BC0C9093BD0CB8
:103EC0008AE50E94C332882351F00E9490326093A9
:103ED000BE0C7093BF0C8093C00C9093C10C85E412
:103EE0000E94C332882311F40C941D290E94903241
:103EF0006093C20C7093C30C8093C40C9093C50C58
:103F00000C941D290F5F1F4FF4E0EF0EF11C0330DE
:103F1000110509F44FC8D6018D916D010E94C3327D
:103F2000882381F30E949032F7016083718382833A
:103F30009383C8010E94D35EE5CFE6EAFDE1849158
:103F40008F010F5F1F4F882321F00E948C2FF801F3
:103F5000F6CF83E50E94C332882321F00E9481328C
:103F600080931B02E0E1F4E084918F010F5F1F4F0B
:103F7000882321F00E948C2FF801F6CF80911B023C
:103F8000811103C0ECE0F4E002C0E8E0F4E08491C9
:103F90008F010F5F1F4F882321F00E948C2FF801A3
:103FA000F6CFE0E0F4E084918F010F5F1F4F88238C
:103FB00021F00E948C2FF801F6CF4090150350900D
:103FC000160360901703709018032091570C3091DE
:103FD000580C4091590C50915A0CC301B2010E94E7
:103FE000AAA1AB01BC018EEF93E00E9454868090A1
:103FF000190390901A03A0901B03B0901C0320910A
:104000005B0C30915C0C40915D0C50915E0CC501D5
:10401000B4010E94AAA1AB01BC018BEF93E00E9406
:104020005486C0901D03D0901E03E0901F03F090B3
:10403000200320915F0C3091600C4091610C5091F5
:10404000620CC701B6010E94AAA1AB01BC0188EFB6
:1040500093E00E945486E0EFF3E084918F010F5FBC
:104060001F4F882321F00E948C2FF801F6CF20915A
:104070002702309128024091290250912A02C3015F
:10408000B2010E94AAA1AB01BC018EEE93E00E9496
:10409000548620912B0230912C0240912D02509198
:1040A0002E02C501B4010E94AAA1AB01BC018BEE96
:1040B00093E00E94548620912F023091300240916B
:1040C000310250913202C701B6010E94AAA1AB0190
:1040D000BC0188EE93E00E9454868AE00E948C2FF7
:1040E0000C941D2983E50E94F232882311F40C946C
:1040F0001D290E94603270931D0260931C020C9473
:104100001D298DED90E00E94FE3281110C941D2935
:1041100083E50E94F232882311F40C941D2900914A
:10412000AD0910E00E946032000F111FF801ED5C34
:10413000FD4F718360838091AD0990E07C01EE0CAE
:10414000FF1CEE0CFF1C8701095C1D4F880F991F97
:10415000FC01ED5CFD4F60817181072E000C880B26
:10416000990B0E94469D2AE037ED43E25CE30E94F2
:10417000A59DF701EA55F34F20813181428153819A
:104180000E94A59DD8016D937D938D939C93139769
:104190000C941D2980E50E94C332882311F40C94ED
:1041A0001D290E9460326B017C0183E50E94F2327E
:1041B000882321F00E9460328B0102C00FEF1FEFB5
:1041C000C8010196039710F00C941D29D7FE02C078
:1041D0000C941D299C2DE0E2F4E088E28E0F2491DE
:1041E000921711F40C941D2931968E13F8CF0C946C
:1041F000672D8AE50E94F23281110C94B72B83E57A
:104200000E94F23281110C94B72B0C941D2985E485
:104210000E94F232811110C080E50E94C3328823CF
:1042200091F00E94903260932D0970932E09809333
:104230002F099093300907C00E947032882361F3E0
:10424000ECEAFDE171C089E40E94C332882381F069
:104250000E9490322CEA35EC47E25EE30E94A59D75
:104260006093290970932A0980932B0990932C0954
:1042700084E40E94C332882381F00E9490322CEAA9
:1042800035EC47E25EE30E9486A2609331097093A9
:1042900032098093330990933409E6EAFDE1849171
:1042A0008F010F5F1F4F882321F00E948C2FF80190
:1042B000F6CF40912D0950912E0960912F097091F0
:1042C000300980E594E00E9454862CEA35EC47E200
:1042D0005EE36091290970912A0980912B099091E0
:1042E0002C090E9486A2AB01BC018CE494E00E94E0
:1042F00037862CEA35EC47E25EE360913109709134
:10430000320980913309909134090E94A59DAB0137
:10431000BC0188E494E00E9437868AE00E948C2FDA
:104320008CC70E948C2FF80184918F010F5F1F4F63
:104330008111F7CF03E912E0F80181918F01882301
:10434000D1F00E948C2FF8CFC090AE0CD090AF0C63
:10435000E090B00CF090B10C20E030E0A901C70172
:10436000B6010E94409D882309F4DFC642E0C701E0
:10437000B6010E94C6318AE00E948C2F5EC783E599
:104380000E94C332182F882371F00E9490320E943D
:10439000EEA2709336026093350221E0672B09F09C
:1043A00020E02093E50D80E50E94C332882359F078
:1043B0002091350230913602232B11F00E94813278
:1043C0008093E50D3AC7111138C7E6EAFDE1849103
:1043D0008F010F5F1F4F882321F00E948C2FF8015F
:1043E000F6CF8091E50D811103C06FE872E002C045
:1043F00065E073E089E694E00E948A866091350268
:104400007091360288E594E00E947186E4E5F4E05C
:1044100084918F010F5F1F4F882309F40EC70E94FC
:104420008C2FF801F5CF85E40E94F232882321F029
:104430000E9460327B0102C0E12CF12C83E40E94D7
:10444000F232882331F00E946032AC966FAFAC97A5
:1044500004C025E0AC962FAFAC9785E50E94F23200
:10446000882319F00E94813203C085E50E94C3327F
:10447000E8968FAFE897F7FC07C0812C912CB6E146
:10448000AB2EB3E4BB2E06C0812C912CACE8AA2E37
:10449000A2E4BA2E83E50E94F232882321F00E9422
:1044A00090324B015C01E114F10411F41092AD095A
:1044B0000E94F9602B013C01E11003C004EA12E004
:1044C0000BC007EB12E0D8018D918D01882309F410
:1044D00052CF0E948C2FF7CFF80181918F01882352
:1044E00019F00E948C2FF8CFC501B4010E94EEA2F2
:1044F000072E000C880B990B0E94469D6AAF7AAB81
:104500008EAB9EAFA30192012058374C4E4F5F4FA8
:10451000C058DF4F288339834A835B83C058D0401B
:104520008AE00E948C2F0E9400658FE78093AB0980
:1045300081E080930202E3964CAE5DAE6EAE7FAE3C
:10454000E397EC964CAE5DAE6EAE7FAEEC97AF9659
:104550001FAEAF97C458DF4F188219821A821B8290
:10456000CC57D04027961FAE279730E42B963FAF0D
:104570002B974CE12F964FAF2F9756E46B965FAF7A
:104580006B976F961FAE6F9763961FAE6397679694
:104590001FAE6797A3961FAEA397AB961CAE1DAE3A
:1045A0001EAE1FAEAB97A7961CAE1DAE1EAE1FAEC5
:1045B000A797C12CD12C7601FFE78F2E912CA12C2F
:1045C000B12C8FE790E0A0E0B0E08EA79FA7A8AB4A
:1045D000B9ABE7961CAE1DAE1EAE1FAEE79791E0DD
:1045E000AE969FAFAE9724961FAE1EAE249710E0F6
:1045F000212C312C00E0AC96AFADAC970A2E000C0C
:10460000BB0BAD96BFAFAEAFAD97809102028823D2
:1046100009F4E2C00E94F9606AA77BA78CA79DA756
:104620008091A909882309F4BBC00E94C665109136
:10463000B6092090B7093090B8090091B909212F27
:10464000322D432D502F6F966FAD6F9763967FADD0
:10465000639767968FAD6797A3969FADA3970E94C8
:10466000409D87FF0CC06F961FAF6F9763962FAE6C
:10467000639767963FAE6797A3960FAFA397212FD7
:10468000322D432D502F27966FAD27972B967FAD58
:104690002B972F968FAD2F976B969FAD6B970E94A0
:1046A000D0A3181664F427961FAF27972B962FAE2A
:1046B0002B972F963FAE2F976B960FAF6B97AE96BB
:1046C000BFADAE972AAD3AA94EA95EAD612F722D4E
:1046D000832D902FBB2309F447C00E94D0A3181646
:1046E0000CF05EC04AA55BA56CA57DA544195509D3
:1046F00066097709DB01CA0188589341A109B1090C
:10470000B7FD4EC08EA59FA5A8A9B9A9881999097A
:10471000AA09BB09B595A795979587958093AB098D
:10472000E7964CAF5DAF6EAF7FAFE797EAAD6F96A0
:10473000EFAF6F97FAA96396FFAF63972EA96796BD
:104740002FAF67973EADA3963FAFA3978AA59BA5D2
:10475000ACA5BDA5E3968CAF9DAFAEAFBFAFE39761
:10476000AE961FAEAE971CC00E94409D87FF18C03A
:104770008AA59BA5ACA5BDA5E3962CAD3DAD4EADE0
:104780005FADE397821B930BA40BB50BAC01BD018E
:10479000485853416109710977FD02C00C94F02B10
:1047A00020E030E040EA51E46AAD7AA98EA99EADDE
:1047B0000E94AAA19B01AC01612F722D832D902F25
:1047C0000E94D0A318167CF4E4E7F5E084918F01F1
:1047D0000F5F1F4F811103C00E9400652EC50E940C
:1047E0008C2FF801F3CF8AA59BA5ACA5BDA5EC96AF
:1047F0002CAD3DAD4EAD5FADEC97821B930BA40B82
:10480000B50BB7FD99C00E94F7618AE00E948C2F1A
:104810008AA59BA5ACA5BDA58053984FAF4FBF4FB0
:10482000EC968CAF9DAFAEAFBFAFEC97AF969FADA0
:10483000AF97911166C0C458DF4F288139814A81F2
:104840005B81CC57D040612F722D832D902F0E9419
:10485000D0A318160CF03EC020E030E040EE50E44B
:104860006AAD7AA98EA99EAD0E94A9A19B01AC0157
:10487000A1E0AF96AFAFAF97612F722D832D902F30
:104880000E94D0A318161CF0AF961FAEAF9720E081
:1048900030E040E050E4612F722D832D902F0E9474
:1048A000AAA1C458DF4F688379838A839B83CC573E
:1048B000D0402AA53BA54CA55DA52058374C4E4FAE
:1048C0005F4FC058DF4F288339834A835B83C058CA
:1048D000D04032C08AA59BA5ACA5BDA5C058DF4F6E
:1048E000288139814A815B81C058D040821B930B5B
:1048F000A40BB50BB7FD20C046E555E065E675E0B5
:1049000018C020E030E040EA51E46AAD7AA98EA9EF
:104910009EAD0E94A9A19B01AC01612F722D832D38
:10492000902F0E94409D87FF07C046E355E066E454
:1049300075E080E00E94A6408AA59BA5ACA5BDA518
:10494000880F991FAA1FBB1FE3962CAD3DAD4EAD3E
:104950005FADE397821B930BA40BB50B84199509EC
:10496000A609B70981389F44A241B10568F0E8E182
:10497000F5E084918F010F5F1F4F882309F42CCF3E
:104980000E948C2FF801F5CF24964EAD5FAD249791
:10499000AD968EAD9FADAD97841795070CF035CED3
:1049A000EBEBF4E084918F010F5F1F4F882321F020
:1049B0000E948C2FF801F6CFB701A60186EA94E099
:1049C0000E9454868AE00E948C2FA7964CAD5DAD64
:1049D0006EAD7FADA79781E994E00E9454868AE08E
:1049E0000E948C2FAB964CAD5DAD6EAD7FADAB979D
:1049F0008CE794E00E9454868AE00E948C2FE8960F
:104A00009FADE897992309F418C4C0922D09D0925C
:104A10002E09E0922F09F09230092CEA35EC47E29A
:104A20005EE3A7966CAD7DAD8EAD9FADA7970E945E
:104A3000A59D6093290970932A0980932B0990936F
:104A40002C092CEA35EC47E25EE3AB966CAD7DAD0C
:104A50008EAD9FADAB970E9486A260933109709393
:104A600032098093330990933409E7C38091430D51
:104A70009091440DA091450DB091460D89839A8384
:104A8000AB83BC838091470D9091480DA091490D57
:104A9000B0914A0D8D839E83AF83B88780914B0D73
:104AA00090914C0DA0914D0DB0914E0D89879A8734
:104AB000AB87BC8786E50E94C332882391F0809142
:104AC000120E882371F0E6E2F6E084918F010F5F09
:104AD0001F4F882321F00E948C2FF801F6CF0E94EF
:104AE0008D5A8AE50E94C332882321F00E949032B9
:104AF0000E94458583E50E94C332882331F00E94DD
:104B00008132182F0E94AA5C01C010E0F090090DBC
:104B1000111103C0E6EAFDE11AC0F110FBCFECEA87
:104B2000FDE184918F010F5F1F4F882321F00E94C8
:104B30008C2FF801F6CFE8E0F6E084918F010F5F4B
:104B40001F4F882339F30E948C2FF801F6CF8491F0
:104B50008F010F5F1F4F882321F00E948C2FF801D7
:104B6000F6CFF11003C06BE872E002C067E872E0B4
:104B70008AEF95E00E948A868AE00E948C2FE6EAFE
:104B8000FDE184918F010F5F1F4F882321F00E9468
:104B90008C2FF801F6CFEDEEF5E084918F010F5FD9
:104BA0001F4F882321F00E948C2FF801F6CFC09070
:104BB0000A0DD0900B0DE0900C0DF0900D0D20E043
:104BC00030E0A901C701B6010E94D0A318164CF429
:104BD00042E0C701B6010E94C6318AE00E948C2FD4
:104BE0000CC0E8EEF5E084918F010F5F1F4F882322
:104BF00021F00E948C2FF801F6CF4CE050E063E4E6
:104C00007DE0CE0101960E94A7A4892B09F415C36B
:104C10000E94E05812C388E50E94C332B82E89E48E
:104C20000E94C332A82E882319F00E9460321AC055
:104C3000BB20D1F00E94903220E030E040E251E40D
:104C40000E94A9A120E030E040E752E40E94AAA11E
:104C500029E838E848E05CE30E94A59D0E94EEA2A6
:104C6000633010F4F62E02C0FF24FA9489E50E9406
:104C7000C332E82E8AE40E94C332182F882319F029
:104C80000E9460321AC0EE20D1F00E94903220E0E3
:104C900030E040E251E40E94A9A120E030E046E685
:104CA00052E40E94AAA125E338E74EE05CE30E94AB
:104CB000A59D0E94EEA2633010F4062F01C00FEFF5
:104CC0008AE50E94C332C82E811105C081E50E9489
:104CD000C332D82E01C0D12CA11001C010E0212F69
:104CE00030E0B11002C090E001C09E2D290F311DAF
:104CF0002130310519F0ECEAFDE105C0C1101AC000
:104D0000D11018C0F8CF84918F010F5F1F4F8823F7
:104D100021F00E948C2FF801F6CFEBE5F6E08491AC
:104D20008F010F5F1F4F882309F487C20E948C2FC9
:104D3000F801F5CFF7FE03C0ECEAFDE106C007FF7E
:104D400017C0FACF0E948C2FF80184918F010F5F5A
:104D50001F4F8111F7CFECE3F6E084918F010F5FD5
:104D60001F4F882309F469C20E948C2FF801F5CFE8
:104D70000E949032A02F000FBB0B0F2DFF0C110BC8
:104D8000DD2091F0F801EE0FFF1FE00FF11FEA0F99
:104D9000FB1FEE0FFF1FEE0FFF1FE95EF14F20819B
:104DA00031814281538103C020E030E0A901F80144
:104DB000EE0FFF1F0E0F1F1F0A0F1B1F000F111FEB
:104DC000000F111F095E114F0E94AAA1D8016D9317
:104DD0007D938D939C93139730C20E9470848111B0
:104DE0002CC245EF842E4AE1942EE3E4FDE0FBA7BC
:104DF000EAA79E012F5F3F4F59010EE41BE1190105
:104E000033E0300F3EA7F40165917591859194913F
:104E1000AAA5BBA5CD90DD90ED90FD90BBA7AAA75C
:104E2000A70196010E94A9A12B013C0120E030E0DE
:104E300040EA51EC0E94D0A387FD10C020E030E092
:104E400040EA51E4C301B2010E94409D181634F0BB
:104E5000F10140825182628273820DC0F801849117
:104E60001816B4F7F7FAF094F7F8F094F101C0824D
:104E7000D182E282F382D101CD90DD90ED90FD9060
:104E80001D0120E030E040EA51ECC701B6010E946C
:104E9000D0A387FF03C0ECEAFDE10BC020E030E0C7
:104EA00040EA51E4C701B6010E94409D1816C4F4BF
:104EB000F2CF84918F010F5F1F4F882321F00E9452
:104EC0008C2FF801F6CFEBE7F6E084918F010F5FAE
:104ED0001F4F882309F4B1C10E948C2FF801F5CF30
:104EE000B4E08B0E911C0F5F1F4FEEA5E0138BCF2C
:104EF00034EEE32E39E0F32E00E010E0F50181916D
:104F00009191A191B1915F01F70181939193A19347
:104F1000B1937F01C8010E94D35E0F5F1F4F033022
:104F2000110561F70E94E05888C10E94335385C182
:104F30000E94594E82C10E944B4D7FC183E50E9461
:104F4000C332882321F00E94813291E089270E9498
:104F5000E66E73C10E9464438BE40E94F2328823A0
:104F600099F00E9490326B017C0120E030E0A901B1
:104F70000E94D0A387FD08C0C092B20CD092B30C9F
:104F8000E092B40CF092B50C82E50E94F2328823D4
:104F900061F00E9490326B017C0120E030E0A901B9
:104FA0000E94409D87FF89C006C0C12CD12C20E8FB
:104FB000E22E2FEBF22E84E40E94F232882329F0B5
:104FC0000E9490324B015C0106C0812C912C90E82C
:104FD000A92E9FEBB92E87E50E94F232882329F093
:104FE0000E9490322B013C0106C0412C512C80E8DC
:104FF000682E8FEB782E88E40E94F232882339F0F5
:105000000E9490326AA77BA78CA79DA708C020E0CA
:1050100030E040E85FEB2AA73BA74CA75DA720E064
:1050200030E0A901C501B4010E94D0A387FD45C0AD
:1050300020E030E0A901C301B2010E94D0A387FDA6
:105040003CC020E030E0A9016AA57BA58CA59DA508
:105050000E94D0A387FD31C020E030E0A901C50146
:10506000B4010E94409D882391F120E030E040E0AF
:105070005FE3C501B4010E94A59D6B017C012AA5D7
:105080003BA54CA55DA5C301B2010E94A59D4B01A6
:105090005C01A7019601C701B6010E94A59D2BEDF9
:1050A0003FE049E450E40E94A59D9B01AC01C5018D
:1050B000B4010E9486A26B017C0120E030E0A901CE
:1050C000C701B6010E94D0A387FF04C00BC0C12C4A
:1050D000D12C7601C092AE0CD092AF0CE092B00C05
:1050E000F092B10CE6EAFDE184918F010F5F1F4F52
:1050F000882319F011D7F801F7CF4091B20C5091E5
:10510000B30C6091B40C7091B50C84EA96E00E94E7
:105110005486EEE9F6E084918F010F5F1F4F8823DC
:1051200009F412C9F9D6F801F6CFE9E9F6E084915D
:105130008F010F5F1F4F882309F41DC9EDD6F801B9
:10514000F6CFECEAFDE184918F010F5F1F4F8823BA
:1051500019F0E2D6F801F7CFEFEAF6E084918F017B
:105160000F5F1F4F882309F468C0D6D6F801F6CF29
:1051700081E08093100283E50E94F232882319F0C7
:105180000E94813203C083E50E94C332811155C061
:105190000E94BC6E52C0F090140AFF2001F1E6EAB2
:1051A000FDE184918F010F5F1F4F882319F0B4D662
:1051B000F801F7CF84E5B0D66F2D70E080E090E085
:1051C0004AE00E94463180E2A7D603E912E0D80106
:1051D0008D918D01882309F4CEC89ED6F8CF109208
:1051E0003B0CE6EAFDE184918F010F5F1F4F88239E
:1051F00019F092D6F801F7CF60913B0C70E08EEB7E
:1052000096E00E9471868AE087D617C0E6EAFDE143
:1052100084918F010F5F1F4F882319F07DD6F8010D
:10522000F7CF6091170A7091180A80ED96E00E94FE
:105230008A8682E271D68AE06FD610923D0C109277
:105240003C0C0E949D6E6BC40E94415B0E940C6BE3
:10525000F4CF61E0802F0E94BE5F6E2D802F0E94F0
:105260008F5FF12CB701802F0E94FA5F0930110582
:1052700021F7F092EF0CE092EE0CDFCF0E9490321B
:105280000E94EEA27093B5096093B40980E00E9479
:10529000B6640E94903220E030E04AEA52E40E9474
:1052A000409D18161CF00E94FF8002C00E94E884F6
:1052B0000E947E9881E0809302021EA61FA618AA73
:1052C00019AA1AAA1BAA1CAA1DAA1AA61EAAFCE39E
:1052D000FEAF2CE123962FAF239736E427963FAFFE
:1052E0002797C12CD12C80E8E82E9FEBF92E812C3A
:1052F000912C54016091B4097091B509072E000CEE
:10530000880B990B0E94469D162F072F782E692E29
:10531000262F372F482F592FB601C7010E94409DD5
:105320008823D1F02091B6093091B7094091B8098E
:105330005091B909612F702F872D962D0E94409DA5
:10534000881F8827881F8AA74AAD442349F08823ED
:1053500039F08091020271CF1C2D0D2D7E2C6F2C07
:105360000E94F9606B017C01DC01CB012AA93BA9F9
:105370004CA95DA9821B930BA40BB50BB7FD37C0DD
:10538000D701C60188519C4FAF4FBF4F8AAB9BAB33
:10539000ACABBDAB0E94F761EEE5F3E084912F0169
:1053A0009FEF491A590A882319F0B6D5F201F6CFB2
:1053B00081149104A104B104B1F0D501C401885154
:1053C0009C4FAF4FBF4FBC01CD016C197D098E09B9
:1053D0009F0928EE33E040E050E00E944CA1CA0152
:1053E000B901BAD702C08FE397D58AE095D50E945C
:1053F000BB6787D52090B6093090B7094090B809AF
:105400005090B9099101A201612F702F872D962D1F
:105410000E94A9A19F7781149104A104B10449F4C9
:1054200020E030E040E85FE30E94409D87FF0BC032
:1054300008C020E030E040E850E40E94D0A31816F5
:1054400014F446015701AAA5AA23B9F12EA53FA538
:1054500048A959A9211531054105510541F0D70148
:10546000C601821B930BA40BB50BB7FD26C091019F
:10547000A2016EA97EAD23968FAD239727969FAD8F
:1054800027970E94A9A120E030E040EC5FE30E9452
:10549000409D87FD5ECFD701C601805A9541AF4F31
:1054A000BF4F8EA79FA7A8ABB9AB2EAA3EAE23963F
:1054B0004FAE239727965FAE2797809102028823ED
:1054C00009F447CF81149104A104B10429F4C12E39
:1054D000D02EE72CF62C0ECF98EEC91A93E0D90AFD
:1054E000E108F108C818D908EA08FB08F7FE31CF2F
:1054F000EECF0E9490320E94EEA26739710514F03F
:1055000066E970E07093B3096093B2090E946C641D
:105510000E94903220E030E040EA50E40E94D0A3A4
:10552000181614F40E94E88481E0809302028091AE
:105530003B0C8093AD091EA61FA618AA19AA1AAA89
:105540001BAA1CAA1DAA1AA61EAAACE3AEAFBCE1F8
:105550002396BFAF2397E6E42796EFAF2797C12C9A
:10556000D12C10E8E12E0FEBF02E812C912C540160
:105570006091B2097091B309072E000C880B990B4A
:105580000E94469D162F072F782E692E262F372F23
:10559000482F592FB601C7010E94409D8823D1F0A2
:1055A0002091AE093091AF094091B0095091B109F5
:1055B000612F702F872D962D0E94409D881F882770
:1055C000881F8AA7FAADFF2349F0882339F080911C
:1055D000020233CE1C2D0D2D7E2C6F2C0E94F96003
:1055E0006B017C01DC01CB012AA93BA94CA95DA977
:1055F000821B930BA40BB50BB7FD37C0D701C601B7
:1056000088519C4FAF4FBF4F8AAB9BABACABBDAB90
:105610000E94F761E2E6F3E084912F019FEF491ABF
:10562000590A882319F078D4F201F6CF8114910435
:10563000A104B104B1F0D501C4018053984FAF4F1C
:10564000BF4FBC01CD016C197D098E099F0928EE61
:1056500033E040E050E00E944CA1CA01B9017CD681
:1056600002C08FE359D48AE057D40E94BB6749D463
:105670002090AE093090AF094090B0095090B10928
:105680009101A201612F702F872D962D0E94A9A153
:105690009F7781149104A104B10449F420E030E023
:1056A00040E85FE30E94409D87FF0BC008C020E0F8
:1056B00030E040E450E40E94D0A3181614F44601F0
:1056C0005701AAA5AA23B9F12EA53FA548A959A912
:1056D000211531054105510541F0D701C601821B55
:1056E000930BA40BB50BB7FD26C09101A2016EA9C7
:1056F0007EAD23968FAD239727969FAD27970E9467
:10570000A9A120E030E040EC5FE30E94409D87FDCE
:105710005ECFD701C601805A9541AF4FBF4F8EA7CC
:105720009FA7A8ABB9AB2EAA3EAE23964FAE239748
:1057300027965FAE279780910202882309F447CF0E
:1057400081149104A104B10429F4C12ED02EE72CB8
:10575000F62C0ECF90EDC91A97E0D90AE108F108AE
:10576000C818D908EA08FB08F7FE31CFEECFD8D623
:1057700020E030E040E050EC0E94409D87FD10C0EA
:10578000CFD620E030E040E050E40E94D0A31816CD
:1057900014F0C6D609C060E070E080E090E404C078
:1057A00060E070E080E090EC20915B0D30915C0D4A
:1057B00040915D0D50915E0DE091E309EE2309F4F7
:1057C0003CCD0091A7091091A8090E94A59D0E94B7
:1057D000EEA2600F711F7093A8096093A7092DCDE9
:1057E00024964EAD5FAD2497452B09F439C1E79659
:1057F0004CAC5DAC6EAC7FACE797480E591E6A1E90
:105800007B1EE7962CAD3DAD4EAD5FADE797281BF7
:10581000390B4A0B5B0BCA01B901A50194010E9427
:105820003DA1A30192010E946EA18EA49FA4A8A8ED
:10583000B9A8820E931EA41EB51E34E183169104EE
:10584000A104B1040CF14CEE84169104A104B1043E
:105850003CF450E885169104A104B10434F422C04C
:105860007BEE872E912CA12CB12C8EA69FA6A8AAE8
:10587000B9AA8EEF90E0A0E0B0E088199909AA09D2
:10588000BB094C015D0112C024E130E040E050E072
:105890002EA73FA748AB59AB64E1862E912CA12CD3
:1058A000B12C04C08EA69FA6A8AAB9AA4EA55FA532
:1058B00068A979A980EE95E00E945798B501A401E6
:1058C0008BED95E00E94579827964FAD27972B9622
:1058D0005FAD2B972F966FAD2F976B967FAD6B9724
:1058E00084ED95E00E9454866F964FAD6F97639656
:1058F0005FAD639767966FAD6797A3967FADA397EC
:105900008DEC95E00E94548624964EAD5FAD2497B1
:10591000433051050CF4A4C0C501B4010E94469D5A
:1059200020E030E040E850E40E94A59D6B017C013E
:1059300027962FAD27972B963FAD2B972F964FADE0
:105940002F976B965FAD6B976F966FAD6F97639662
:105950007FAD639767968FAD6797A3969FADA3972B
:105960000E94A9A12BED3FE049E450E40E94A59DCF
:1059700020E030E040E05FE30E94A59D9B01AC0188
:10598000C701B6010E9486A26B017C01C301B2016E
:105990000E94469D2FE632E143E85AE30E94A59D0E
:1059A0002B013C01B701A60187EC95E00E945486CB
:1059B000B301A20181EC95E00E9454862AE939E9FD
:1059C00049E15FE3C701B6010E94A59D6B017C011F
:1059D0009B01AC010E94AAA1A30192010E9486A290
:1059E000A7966CAF7DAF8EAF9FAFA797A301920133
:1059F000C701B6010E94A59D20E030E040E05EE3D3
:105A00000E94A59DAB966CAF7DAF8EAF9FAFAB975D
:105A1000E1EBF5E084913F015FEF651A750A882399
:105A200019F07AD2F301F6CFB701A6018BEA95E01F
:105A30000E945486A7964CAD5DAD6EAD7FADA79725
:105A400085EA95E00E945486AB964CAD5DAD6EAD97
:105A50007FADAB978FE995E00E9454868AE05CD2D7
:105A60008EA59FA5A8A9B9A9880D991DAA1DBB1D22
:105A7000B595A795979587958093AB0924968EAD9C
:105A80009FAD2497019624969FAF8EAF24979AAD31
:105A900027969FAF2797AAA92B96AFAF2B97BEA9A2
:105AA0002F96BFAF2F97EEAD6B96EFAF6B974AA4D3
:105AB0005BA46CA47DA4F1E0AE96FFAFAE970C940E
:105AC000D023E1100C948518D5D50C9498180E9419
:105AD0006443BC2C60E08C2D0E94BE5F0F3FFFEF43
