:100000000C94210F0C94520F0C94520F0C94520F1D
:100010000C94520F0C94520F0C94520F0C94520FDC
:100020000C94520F0C94520F0C94520F0C94520FCC
:100030000C94520F0C94520F0C94520F0C94520FBC
:100040000C94520F0C9483420C94520F0C94520F48
:100050000C94520F0C94520F0C94CB600C944D5F87
:100060000C94520F0C948E310C94520F0C94520F2E
:100070000C94520F0C94520F0C94520F0C94520F7C
:100080000C94520F0C94520F0C94520F0C94520F6C
:100090000C94520F0C94520F0C94520F0C94520F5C
:1000A0000C94520F0C94520F0C94520F0C94520F4C
:1000B0000C94520F0C94520F0C94520F0C94520F3C
:1000C0000C94520F0C94520F0C94520F0C94520F2C
:1000D0000C94520F0C94520F0C94520F0C94520F1C
:1000E0000C94520F9C5D9F5D8E5D925D985DD65D18
:1000F000A35DA75DAD5DB15DB55DBB5DBF5DC35D7E
:10010000D65DC95DCD5DD15D695E6E5E735E7D5EFF
:10011000875E005F915E995EA15EAB5EB55EBF5E7D
:10012000CE5ED85E005FE25EEC5EF65E084AD73BCC
:100130003BCE016E84BCBFFDC12F3D6C74319ABDB6
:1001400056833DDA3D00C77F11BED9E4BB4C3E91DA
:100150006BAAAABE000000803F05A84CCDB2D44EC9
:10016000B93836A9020C50B9918688083CA6AAAACB
:100170002ABE000000803F004E414E494E4954596E
:10018000494E46CDCCCC3D0AD7233C17B7D1387762
:10019000CC2B329595E6241FB14F0A000020410078
:1001A00000C84200401C4620BCBE4CCA1B0E5AAEC2
:1001B000C59D74434F4D4D554E49434154494F4E93
:1001C0000044525952554E004552524F5253004925
:1001D0004E464F004543484F0047322F4733206279
:1001E000616420706172616D65746572730A0020CC
:1001F0006F6620004D424C2047323920706F696E87
:1002000074200059206F7574206F662072616E67CC
:10021000652028312D32292E0A0058206F75742050
:100220006F662072616E67652028312D32292E0A93
:10023000004D6573682070726F62696E6720646F2D
:100240006E652E0A005374617274206D65736820A8
:1002500070726F62696E6720776974682022473216
:1002600039205331222066697273742E0A00473296
:10027000380A4732392053320053746174653A208A
:10028000004D65736820626564206C6576656C69F5
:100290006E6720686173206E6F20646174612E0A3E
:1002A0000053206F7574206F662072616E67652041
:1002B00028302D35292E0A004D65736820706F692E
:1002C0006E742063616E6E6F742062652072657358
:1002D0006F6C7665640A005072696E742074696D83
:1002E000653A200050726F746563746564205069CC
:1002F0006E0A006F6E2E0A006F66662E0A00473285
:100300003620446562756720006D0046696C616D3A
:10031000656E7420757365643A200053746174735C
:100320003A20002C204C6F6E67657374206A6F62F0
:100330003A2000546F74616C2074696D653A200036
:1003400053746174733A20002C204661696C6564B3
:100350003A20002C2046696E69736865643A200073
:100360005072696E74733A200053746174733A204A
:1003700000D401CF01C801C101B3016F666600441A
:10038000454255473A004B494C4C45442E20004DC0
:100390003131332053006F6B0020573A0020573A19
:1003A0000053657474696E672054726176656C20C1
:1003B000416363656C65726174696F6E3A200053C6
:1003C000657474696E67205265747261637420414C
:1003D0006363656C65726174696F6E3A2000536582
:1003E0007474696E67205072696E7420416363652E
:1003F0006C65726174696F6E3A200053657474693C
:100400006E67205072696E7420616E642054726150
:1004100076656C20416363656C65726174696F6EAB
:100420003A2000205A00205900580020204D6178C1
:100430003A2000205A00205900580020204D696EB3
:100440003A20004F6E20004F666600536F6674209E
:10045000656E6473746F70733A200000013637263E
:1004600003FF3C3D38FF0F2E303EFF13FF0C080901
:10047000FFFFFF1A1C18FFFF08440AFF43FFFFFF9E
:10048000FFFFFF20643A0020693A0020703A0043E1
:10049000290A0061626C656420286D696E207465AC
:1004A0006D702000436F6C642065787472756465AC
:1004B0007320617265200023646566696E65202083
:1004C00044454641554C545F4B64200023646566A7
:1004D000696E65202044454641554C545F4B692068
:1004E0000023646566696E65202044454641554C8D
:1004F000545F4B702000504944204175746F7475EF
:100500006E652066696E6973686564212050757434
:1005100020746865206C617374204B702C204B69CB
:1005200020616E64204B6420636F6E7374616E741F
:10053000732066726F6D2062656C6F7720696E74D0
:100540006F20436F6E66696775726174696F6E2E96
:10055000680A00504944204175746F74756E6520B7
:100560006661696C6564212074696D656F75740AD4
:1005700000544845524D414C2052554E4157415927
:1005800000546865726D616C2052756E6177617997
:100590000048656174696E67206661696C65640016
:1005A00048656174696E67206661696C65640050B6
:1005B0004944204175746F74756E65206661696C7D
:1005C0006564212054656D70657261747572652073
:1005D000746F6F20686967680A00204B643A2000D6
:1005E000204B693A2000204B703A20000A20436CCF
:1005F000617373696320504944200A002054753A9E
:100600002000204B753A2000206D61783A200020B0
:100610006D696E3A200020643A200020626961739F
:100620003A20004F66660A004661646520486569A5
:100630006768742000426564204C6576656C696E5D
:100640006720004661696C656420746F20656E6187
:10065000626C6520426564204C6576656C696E67E6
:10066000004D65736820426564204C6576656C209A
:10067000646174613A0A004D65736820706F696E39
:10068000742063616E6E6F74206265207265736F93
:100690006C7665640A004D34323120696E636F7286
:1006A0007265637420706172616D65746572207526
:1006B000736167650A00546F6F206661722066720D
:1006C0006F6D207265666572656E636520706F6917
:1006D0006E740A004175746F0020452F443D00413F
:1006E0006476616E6365204B3D004E6F20636173DD
:1006F00065206C696768740A0041637469766520D7
:1007000045787472756465723A2000556E6B6E6F31
:10071000776E20636F6D6D616E643A202200696EA2
:10072000206D6F76655F746F282920666565645F4C
:1007300076616C756520666F722058593A002C20DE
:1007400065793D0029202D3E202865783D002C202C
:1007500073793D0020436F6E6E656374696E672028
:100760007769746820766572746963616C206C695E
:100770006E65202873783D002C2065793D00292086
:100780002D3E202865783D002C2073793D002043C4
:100790006F6E6E656374696E672077697468206830
:1007A0006F72697A6F6E74616C206C696E65202857
:1007B00073783D002C2079693D00202020446F692A
:1007C0006E6720636972636C652061743A202878D3
:1007D000693D003F53706563696669656420582C04
:1007E0005920636F6F7264696E617465206F7574F0
:1007F000206F6620626F756E64732E0A003F285268
:100800002965706561742076616C7565206E6F7402
:1008100020706C61757369626C653B206D757374D3
:10082000206265206174206C6561737420312E0A2A
:10083000003F2852296570656174206D75737420BE
:1008400062652073706563696669656420776865B1
:100850006E206E6F74207573696E6720616E204C18
:1008600043442E0A003F53706563696669656420DE
:100870006E6F7A7A6C652074656D706572617475DF
:100880007265206E6F7420706C61757369626C653F
:100890002E0A003F53706563696669656420666966
:1008A0006C616D656E742073697A65206E6F74205B
:1008B000706C61757369626C652E0A003F537065D8
:1008C000636966696564207072696D65206C656E28
:1008D000677468206E6F7420706C61757369626CE8
:1008E000652E0A003F5072696D65206C656E6774F5
:1008F00068206D7573742062652073706563696626
:10090000696564207768656E206E6F742075736901
:100910006E6720616E204C43442E0A003F53706581
:10092000636966696564206E6F7A7A6C65207369A5
:100930007A65206E6F7420706C61757369626C6586
:100940002E0A003F537065636966696564205265CD
:100950007472616374696F6E204D756C7469706C2C
:10096000696572206E6F7420706C61757369626C5A
:10097000652E0A003F52657472616374696F6E2060
:100980004D756C7469706C696572206D7573742037
:100990006265207370656369666965642E0A003F4D
:1009A000537065636966696564206C61796572205E
:1009B000686569676874206E6F7420706C61757308
:1009C00069626C652E0A003F5370656369666965EC
:1009D00064206265642074656D70657261747572FF
:1009E00065206E6F7420706C61757369626C652E22
:1009F0000A0047323620636F6D6D616E6420737438
:100A000061727465642E2057616974696E6720662F
:100A10006F72206865617465722873292E0A00253B
:100A200069730025696D2025697300256968202593
:100A3000696D202569730025696420256968202572
:100A4000696D202569730025697920256964202551
:100A500069682025696D2025697300656E7175656B
:100A60007565696E672022004C696E65204E756D54
:100A7000626572206973206E6F74204C61737420FC
:100A80004C696E65204E756D6265722B312C204C61
:100A9000617374204C696E653A20004B494C4C459B
:100AA000442E20005072696E7465722073746F70EA
:100AB0007065642064756520746F206572726F7252
:100AC000732E2046697820746865206572726F7293
:100AD00020616E6420757365204D39393920746F3B
:100AE00020726573746172742E202854656D706570
:100AF0007261747572652069732072657365742EF6
:100B00002053657420697420616674657220726573
:100B10007374617274696E67290A004E6F204368AE
:100B200065636B73756D2077697468206C696E6599
:100B3000206E756D6265722C204C617374204C6957
:100B40006E653A2000636865636B73756D206D692F
:100B5000736D617463682C204C617374204C696EF2
:100B6000653A20004D3131300024F4D43050C38E2A
:100B700020C2A24017828B7011127A910D816CD91C
:100B80000AA861E108C7586607615143061E4B5D1C
:100B900005C145A7041A411104093D980371393173
:100BA000034036DB0265339102D4305402802E1D9F
:100BB00002632CEE01752AC501B028A0011027811F
:100BC000018F2564012B244B01E0223401AC211F4D
:100BD000018D200D01801FFC00841EED00971DDF9C
:100BE00000B81CD200E61BC600201BBC00641AB271
:100BF00000B219A8000A19A0006A189900D117912B
:100C00000040178B00B516840031167E00B31579AD
:100C1000003A157300C7146F0058146A00EE13668B
:100C2000008813630025135E00C7125B006C125727
:100C30000015125400C111510070114F0021114BC9
:100C400000D61049008D10470046104400021042A3
:100C500000C00F4000800F3E00420F3C00060F3BDB
:100C600000CB0E3800930E37005C0E3500270E3493
:100C700000F30D3200C10D3100900D3000600D2EDB
:100C800000320D2D00050D2C00D90C2B00AE0C29C7
:100C900000850C29005C0C2700350C27000E0C2663
:100CA00000E80B2400C40B2400A00B23007D0B23C1
:100CB000005A0B2100390B2100180B2000F80A1FE5
:100CC00000D90A1E00BB0A1E009D0A1D00800A1DD5
:100CD00000630A1C00470A1B002C0A1B00110A1A99
:100CE00000F7091A00DD091900C4091900AB091938
:100CF00000920917007B091800630917004C0916B8
:100D00000036091600200916000A091500F5081515
:100D100000E0081400CC081400B8081400A408145B
:100D200000900813007D0812006B08130058081289
:100D3000004608120034081100230811001208119F
:100D40000001081100F0071000E0071000D00710A4
:100D500000C0071000B0070F00A107100091070E98
:100D60000083070F0074070F0065070E0057070E7A
:100D70000049070E003B070D002E070E0020070D4F
:100D80000013070D0006070D00F9060C00ED060D17
:100D900000E0060C00D4060C00C8060C00BC060CD3
:100DA00000B0060C00A4060B0099060C008D060B83
:100DB0000082060B0077060B006C060B0061060A2A
:100DC0000057060B004C060A0042060A0038060AC5
:100DD000002E060A0024060A001A060A0010060958
:100DE0000007060A00FD050900F4050900EB0509E6
:100DF00000E2050900D9050900D0050900C7050969
:100E000000BE050900B5050800AD050800A50509E7
:100E1000009C050800940508008C0508008405085E
:100E2000007C050800740508006C050700650508CE
:100E3000005D050700560508004E05070047050739
:100E4000004005080038050700310507002A05079E
:100E500000230507001C050600160507000F0507FF
:100E6000000805060002050700FB040600F504075C
:100E700000EE040600E8040600E2040700DB0406B6
:100E800000D5040600CF040600C9040600C304060A
:100E900000BD040600B7040600B1040500AC04065A
:100EA00000A6040600A00405009B040600950405A6
:100EB00000900406008A04050085040500800406ED
:100EC000007A04050075040500700405006B040534
:100ED0000066040500610405005C04050057040574
:100EE00000520405004D04050048040500430405B4
:100EF000003E0404003A04050035040500300404F3
:100F0000002C04050027040400230405001E04042B
:100F1000001A04040016040500110404000D040462
:100F200000090405000404040000040400FC030498
:100F300000F8030400F4030400F0030400EC0304CD
:100F400000E8030400E4030400E0030400DC0304FD
:100F500000D8030400D4030400D0030400CC03042D
:100F600000C8030300C503030024F404D9201BC4F4
:100F70000C5C0E9804C4095F0265077101F405F961
:100F800000FB04B30048048700C1036900580355FF
:100F90000003034500BE023A008402310053022AD6
:100FA000002902250004022000E4011C00C80119E8
:100FB00000AF0117009801140084011300710110A3
:100FC000006101100051010E0043010D0036010BBC
:100FD000002B010B0020010B00150109000C010979
:100FE0000003010800FB000800F3000800EB000705
:100FF00000E4000600DE000600D8000600D200066D
:1010000000CC000500C7000500C2000500BD0004BB
:1010100000B9000400B5000400B1000400AD0004F4
:1010200000A9000400A5000300A20003009F000423
:10103000009B00030098000300950002009300034A
:1010400000900003008D0002008B00030088000266
:10105000008600020084000300810002007F00027D
:10106000007D0002007B0002007900020077000191
:10107000007600020074000200720001007100029C
:10108000006F0002006D0001006C0002006A0001A8
:1010900000690002006700010066000100650001B0
:1010A00000640002006200010061000100600001B4
:1010B000005F0002005D0001005C0001005B0001B8
:1010C000005A0001005900010058000100570001BA
:1010D00000560001005500010054000100530000BB
:1010E00000530001005200010051000100500001B6
:1010F000004F0001004E0000004E0001004D0001B5
:10110000004C0001004B0000004B0001004A0001B0
:1011100000490001004800000048000100470001AC
:1011200000460000004600010045000000450001A7
:1011300000440001004300000043000100420000A1
:101140000042000100410000004100010040000198
:10115000003F0000003F0001003E0000003E000193
:10116000003D0000003D0001003C0000003C00008C
:10117000003C0001003B0000003B0001003A000081
:10118000003A000100390000003900010038000079
:10119000003800000038000100370000003700016F
:1011A0000036000000360000003600010035000067
:1011B000003500000035000100340000003400005C
:1011C0000034000100330000003300000033000150
:1011D0000032000000320000003200010031000047
:1011E000003100000031000100300000003000003C
:1011F00000300001002F0000002F0000002F000031
:10120000002F0001002E0000002E0000002E000123
:10121000002D0000002D0000002D0000002D000119
:10122000002C0000002C0000002C0000002C00010D
:10123000002B0000002B0000002B0000002B000101
:10124000002A0000002A0000002A0000002A0001F5
:1012500000290000002900000029000000290000EA
:1012600000290001002800000028000000280000DC
:1012700000280000002800010027000000270000CF
:1012800000270000002700000027000100260000C2
:1012900000260000002600000026000000260001B5
:1012A00000250000002500000025000000250000AA
:1012B000002500000025000100240000002400009B
:1012C000002400000024000000240001002300008E
:1012D0000023000000230000002300000023000082
:1012E0000023000000230001002200000022000073
:1012F0000022000000220000002200000022000165
:101300000021000000210000002100000021000059
:101310000021000000210000002100010020000049
:10132000002000000020000000200000002000003D
:10133000002000000020000000200001001F00002D
:10134000001F0000001F0000001F0000001F000021
:10135000001F0000001F0001001E0000001E000012
:10136000001E0000001E0000006265640A002C20C0
:1013700073797374656D2073746F70706564212068
:101380004865617465725F49443A2000486561743C
:10139000696E67206661696C65640048656174699F
:1013A0006E67206661696C65640048656174696E8A
:1013B00067206661696C65640048656174696E6781
:1013C000206661696C65640020496E76616C6964B1
:1013D000206578747275646572200000000000005A
:1013E000000000000000000000824300007A43007B
:1013F000009843206E6F7420656E74657265642E6C
:101400000A000A4D6561737572656420706F696EBC
:1014100074733A0A005A206F66667365743A200046
:101420004E756D20582C593A20322C320A00205A21
:101430003A0020423A0020436F756E7420413A0012
:1014400020453A00205A3A0020593A00583A003ACA
:10145000004361703A00454D455247454E43595F40
:1014600050415253455200434153455F4C49474810
:10147000545F4252494748544E45535300544F47D6
:10148000474C455F4C494748545300534F465457C7
:101490004152455F504F574552004255494C445FB9
:1014A00050455243454E54004C4556454C494E47D5
:1014B0005F44415441005A5F50524F4245004155EC
:1014C000544F4C4556454C005052494E545F4A4F7C
:1014D000420050524F4752455353004155544F52CA
:1014E00045504F52545F54454D5000564F4C554D4A
:1014F000455452494300454550524F4D00534552C3
:1015000049414C5F584F4E5F584F4646004649523E
:101510004D574152455F4E414D453A4D61726C69A0
:101520006E20312E312E3820284769746875622963
:1015300020534F555243455F434F44455F55524CEE
:101540003A68747470733A2F2F6769746875622EE5
:10155000636F6D2F4D61726C696E4669726D776154
:1015600072652F4D61726C696E2050524F544F431B
:101570004F4C5F56455253494F4E3A312E30204D15
:10158000414348494E455F545950453A4A756C6944
:10159000612045585452554445525F434F554E546F
:1015A0003A3120555549443A636564653261326683
:1015B0002D343161322D343734382D396231322DAA
:1015C0006335356336326633363766660A002F2F49
:1015D0002000627573793A207061757365642066C6
:1015E0006F7220696E7075740A00627573793A20A3
:1015F00070617573656420666F7220757365720A19
:1016000000627573793A2070726F63657373696EE7
:10161000670A004B494C4C45442E20004B494C4C2A
:101620002063617573656420627920746F6F206D2B
:1016300075636820696E6163746976652074696D8D
:1016400065202D2063757272656E7420636F6D6DF9
:10165000616E643A20005072696E74657220686130
:101660006C7465642E206B696C6C28292063616C36
:101670006C6564210A000000000000007A4300004D
:10168000984300004842000048420000A04100008A
:1016900000005761726E696E673A20486F6D696E1F
:1016A000672042756D702044697669736F72203CC3
:1016B00020310A000202040000A0400000A0400007
:1016C0000000400000824300007A4300009843FF7E
:1016D00001014572726F722077726974696E6720BA
:1016E000746F20454550524F4D210A00290A0020B1
:1016F00062797465733B2063726320005365747470
:10170000696E67732053746F72656420280010003F
:10171000600350012C0190012201D0011801100238
:101720000E0170020401E002FA006003F000000400
:10173000E600B004DC00A005D200B006C800000836
:10174000BE00A009B400800BAA00D00DA00090102C
:101750009600C0138C0070178200901B7800102038
:101760006E00C0246400E02D500080353C00A03A9B
:101770002800A03D1400003F0000A03FECFF457290
:10178000723A204D494E54454D5020424544004543
:1017900072723A204D494E54454D50004D494E54B9
:1017A000454D5020747269676765726564004572C3
:1017B000723A204D415854454D5020424544004511
:1017C00072723A204D415854454D50004D41585485
:1017D000454D502074726967676572656400202FFB
:1017E000002042403A0020403A000000210024003E
:1017F00027002A002D003000330001010000040101
:1018000007010A0100002200250028002B002E00FD
:101810003100340002010000050108010B01000045
:1018200020002300260029002C002F003200000198
:101830000000030106010901050505050705080863
:101840000808020202020A0A08080404040401014A
:10185000010101010101030303030303030304075F
:1018600007070C0C0C0C0C0C0C0C020202020606F6
:101870000606060606060B0B0B0B0B0B0B0B0102E9
:101880001020200808102040102040800201020192
:10189000080402010102040810204080804020104A
:1018A00008040201800402018040201008040201A3
:1018B000080402010102040810204080010204080B
:1018C0001020408000000A0B02090C0D0E080703CF
:1018D0000401000000000000000000000000000003
:1018E00000000000000000000000000000000000F8
:1018F00012111000000000000000000000000000B5
:10190000000000000000000000004B494C4C454422
:101910002E2000202D20496E76616C696420657848
:10192000747275646572206E756D62657220210A2D
:10193000002020506C616E6E65724275666665723D
:1019400042797465733A20002046726565204D65C2
:101950006D6F72793A2000436F6D70696C65643AFF
:10196000204A756E20323320323031380A00207C14
:1019700020417574686F723A2056696A6179205205
:1019800061676861760A00323031372D31322D328D
:10199000352031323A303000204C6173742055705C
:1019A00064617465643A2000312E312E380A004D8E
:1019B00061726C696E0020536F6674776172652086
:1019C00052657365740A00205761746368646F67B9
:1019D0002052657365740A002042726F776E206F23
:1019E00075742052657365740A00204578746572B9
:1019F0006E616C2052657365740A00506F77657272
:101A000055700A0073746172740A00205A3A0020FB
:101A1000593A0020583A00656E6473746F707320F1
:101A20006869743A200020520020204D393030205F
:101A30004B004C696E65617220416476616E63652E
:101A40003A0A0020440020490020204D3330312044
:101A500050005049442073657474696E67733A0A84
:101A600000205A00205900202047323920533320CB
:101A70005800205A0020204D3432302053004D654C
:101A8000736820426564204C6576656C696E673AC0
:101A90000A00205A0020590020204D3230362058AC
:101AA00000486F6D65206F66667365743A0A0020A2
:101AB0004500205A002059002058002042002054A0
:101AC0000020204D323035205300416476616E6332
:101AD00065643A20533C6D696E5F6665656472614A
:101AE00074653E20543C6D696E5F74726176656CFE
:101AF0005F66656564726174653E20423C6D696E27
:101B00005F7365676D656E745F74696D655F75732E
:101B10003E20583C6D61785F78795F6A65726B3EF4
:101B2000205A3C6D61785F7A5F6A65726B3E204532
:101B30003C6D61785F655F6A65726B3E0A00205498
:101B40000020520020204D32303420500041636389
:101B5000656C65726174696F6E2028756E69747347
:101B60002F7332293A20503C7072696E745F616342
:101B700063656C3E20523C726574726163745F6190
:101B80006363656C3E20543C74726176656C5F6182
:101B90006363656C3E0A00204500205A002059000E
:101BA00020204D3230312058004D6178696D756DBF
:101BB00020416363656C65726174696F6E2028757E
:101BC0006E6974732F7332293A0A00204500205A37
:101BD0000020590020204D3230332058004D6178CC
:101BE000696D756D20666565647261746573202822
:101BF000756E6974732F73293A0A00204500205AC4
:101C00000020590020204D3932205800537465704F
:101C1000732070657220756E69743A0A0020204D39
:101C20003230302044300A0020204D323030204401
:101C3000002044697361626C65640A0046696C61E6
:101C40006D656E742073657474696E67733A0020F5
:101C500020473231202020203B20556E69747320AC
:101C6000696E206D6D0A002066697273740A005AED
:101C70000059005800486F6D6520006563686F3A31
:101C8000004572726F723A00544845524D414C20E3
:101C900052554E4157415900546865726D616C2030
:101CA00052756E6177617900202863616C63756C91
:101CB0006174656429210A0020213D2000454550BA
:101CC000524F4D20435243206D69736D61746368B8
:101CD000202D202873746F726564292000290A0062
:101CE0002062797465733B206372632000207374F3
:101CF0006F7265642073657474696E6773207265B2
:101D000074726965766564202800204D61726C6983
:101D10006E3D563437290A0028454550524F4D3DF7
:101D200000454550524F4D2076657273696F6E20A5
:101D30006D69736D61746368200048617264636FDC
:101D40006465642044656661756C742053657474C1
:101D5000696E6773204C6F616465640A00E8030074
:101D600000E80300003200000010270000000048D7
:101D700043000048430000A041000034420000201E
:101D80004300002043F0F77B4400008C4320746F35
:101D90006F206C6F6E6720657874727573696F6EF3
:101DA0002070726576656E7465640A0020636F6CDE
:101DB0006420657874727573696F6E2070726576D1
:101DC000656E7465640A007A5F6D61783A20007907
:101DD0005F6D61783A2000785F6D696E3A2000523D
:101DE00065706F7274696E6720656E6473746F706E
:101DF000207374617475730A00526573656E643A7A
:101E000020006F6B0020746F6F206C6F6E67206511
:101E10007874727573696F6E2070726576656E7412
:101E200065640A0020636F6C642065787472757352
:101E3000696F6E2070726576656E7465640A000065
:101E40002E9711241FBECFEFD1E2DEBFCDBF00E041
:101E50000CBF13E0A0E0B2E0E4E8F8E401E00BBF5F
:101E600002C007900D92A231B107D9F72EE0A2E18E
:101E7000B3E001C01D92A732B207E1F71FE0C1E253
:101E8000DFE000E006C021970109802FFE010E94DB
:101E9000F7A3C032D10780E00807A9F70E9451924A
:101EA0000C9440A40C9400002F923F924F925F92AA
:101EB0006F927F928F929F92AF92BF92CF92DF925A
:101EC000EF92FF920F931F93CF93DF93CDB7DEB7BF
:101ED000CF57D1090FB6F894DEBF0FBECDBF81E05A
:101EE00090E0909392098093910980916E0A8D34CD
:101EF00011F40C947D18843511F40C943628873431
:101F000011F00C94722880916C0A90916D0A8B31BB
:101F1000910509F4B4C5B4F4843091053CF48230E1
:101F20009105BCF597FF2EC00C948928843091054B
:101F300009F468C54A9711F00C9489280E94A633C9
:101F40000C9489288A32910511F40C94EE174CF404
:101F50008C31910509F4C3C54D9709F4C5C50C949E
:101F600089288B35910509F4B9C78C35910509F499
:101F7000BAC78A35910511F00C948928109225036F
:101F80000C9489288091100281110C9490280C9453
:101F9000892820911002222311F40C94892811E041
:101FA000029709F010E00E94D64E82E50E94493265
:101FB000882309F430C10E94E7316B017C01409015
:101FC000AF0C5090B00C6090B10C7090B20C20919E
:101FD000B30C3091B40C4091B50C5091B60C2EA3BB
:101FE0003FA348A759A78091890C90918A0CA09192
:101FF0008B0CB0918C0C8AA79BA7ACA7BDA7209196
:102000008D0C30918E0C40918F0C5091900C2EAB1A
:102010003FAB48AF59AF20E030E0A901C701B6019E
:102020000E94B19C882309F4D3C4A30192016AA53C
:102030007BA58CA59DA50E94B19C81110DC02EA1F0
:102040003FA148A559A56EA97FA988AD99AD0E9469
:10205000B19C882309F4BCC420E030E0A901C70189
:10206000B6010E94B19C881F8827881F18130BC0D7
:1020700080E090E0A0E8BFE322968CAF9DAFAEAFCA
:10208000BFAF22970AC020E030E040E85FEB229625
:102090002CAF3DAF4EAF5FAF2297A30192016AA56F
:1020A0007BA58CA59DA50E941AA16AAB7BAB8CABCE
:1020B0009DAB2EA13FA148A559A56EA97FA988ADCA
:1020C00099AD0E941AA16AAF7BAF8CAF9DAF2AA9D0
:1020D0003BA94CA95DA9CA01B9010E94169D4B01FB
:1020E0005C012AAD3BAD4CAD5DADCA01B9010E94AA
:1020F000169D9B01AC01C501B4010E941BA10E9469
:1021000086A36EA77FA788AB99AB20E030E040E0C4
:102110005FE30E94169D4B015C01A7019601C70178
:10212000B6010E94169D6B017C01A5019401C501B9
:10213000B4010E94169D9B01AC01C701B6010E942B
:102140001AA10E9486A39B01AC0122966CAD7DADC5
:102150008EAD9FAD22970E94169D4B015C012AA572
:102160003BA54CA55DA5C301B2010E941BA120E0C7
:1021700030E040E05FE30E94169D6B017C016AAD98
:102180007BAD8CAD9DAD90582EA53FA548A959A912
:102190000E94F7A19B01AC01C501B4010E94169DEC
:1021A0009B01AC01C701B6010E941BA1A3019201D2
:1021B0000E941AA16B017C012EA93FA948AD59AD1F
:1021C0006EA17FA188A599A50E941BA120E030E007
:1021D00040E05FE30E94169D2B013C012EA53FA528
:1021E00048A959A96AA97BA98CA99DA90E94F7A110
:1021F0009B01AC01C501B4010E94169D9B01AC017D
:10220000C301B2010E941BA12EA13FA148A559A55F
:102210000E941AA114C089E40E944932882329F03F
:102220000E94E7316B017C0103C0C12CD12C7601E7
:102230008AE40E9449328823D9F00E94E7316EABCC
:102240007FAB88AF99AF20E030E0A901C701B601AC
:102250000E94B19C81111AC020E030E0A9016EA952
:102260007FA988AD99AD0E94B19C81110FC0B0C308
:1022700020E030E0A901C701B6010E94B19C88238B
:1022800009F4A6C31EAA1FAA18AE19AED701C6012B
:10229000B0588EA39FA3A8A7B9A72EA93FA948AD60
:1022A00059AD50582AA73BA74CA75DA79C01AD018B
:1022B000BC01CD010E94169D4B015C012AA53BA5E6
:1022C0004CA55DA5CA01B9010E94169D9B01AC01F8
:1022D000C501B4010E941BA10E9486A362966CAF47
:1022E0007DAF8EAF9FAF62978091AF0C9091B00C95
:1022F000A091B10CB091B20C8EA79FA7A8ABB9ABBF
:10230000A7019601BC01CD010E941BA122966CAFD2
:102310007DAF8EAF9FAF22972091B30C3091B40C5C
:102320004091B50C5091B60C2AAF3BAF4CAF5DAFAE
:102330002EA93FA948AD59AD6AAD7BAD8CAD9DAD21
:102340000E941BA126966CAF7DAF8EAF9FAF2697E4
:102350008091890C90918A0CA0918B0CB0918C0C7F
:102360002A968CAF9DAFAEAFBFAF2A9722962CAD09
:102370003DAD4EAD5FAD2297BC01CD010E941AA1CB
:102380006B017C0120918D0C30918E0C40918F0C53
:102390005091900C2E962CAF3DAF4EAF5FAF2E9765
:1023A00026962CAD3DAD4EAD5FAD26972E966CAD0D
:1023B0007DAD8EAD9FAD2E970E941AA14B015C01A1
:1023C0008091B70C9091B80CA091B90CB091BA0C57
:1023D0006A968CAF9DAFAEAFBFAF6A979C01AD015F
:1023E0006091910C7091920C8091930C9091940C4F
:1023F0000E941AA16AAB7BAB8CAB9DAB2091950C74
:102400003091960C4091970C5091980C66962CAF99
:102410003DAF4EAF5FAF66978091BB0C9091BC0C07
:10242000A091BD0CB091BE0C6E968CAF9DAFAEAFBF
:10243000BFAF6E97A70196016EA17FA188A599A550
:102440000E94169D2B013C01A50194016AA57BA564
:102450008CA59DA50E94169D9B01AC01C301B201F4
:102460000E941BA12B013C01A50194016EA17FA13B
:1024700088A599A50E94169D4B015C01A7019601B4
:102480006AA57BA58CA59DA50E94169D9B01AC010C
:10249000C501B4010E941AA1A30192010E948EA15C
:1024A0006B017C0120E030E0A9010E94B19C87FF14
:1024B0000AC02BED3FE049EC50E4C701B6010E9491
:1024C0001BA16B017C01112351F02BED3FE049EC86
:1024D00050E4C701B6010E941AA16B017C0120E003
:1024E00030E0A901C701B6010E94B19C811124C04E
:1024F0002A962CAD3DAD4EAD5FAD2A976EA57FA55A
:1025000088A999A90E94B19C811116C02E962CAD64
:102510003DAD4EAD5FAD2E976AAD7BAD8CAD9DAD43
:102520000E94B19C811108C07BEDC72E7FE0D72EA1
:1025300079ECE72E70E4F72E62962CAD3DAD4EADF2
:102540005FAD6297C701B6010E94169D9B01AC0169
:102550000E94169D4B015C012AA93BA94CA95DA9CB
:10256000CA01B9010E94169D9B01AC01C501B401CD
:102570000E941BA10E9486A34B015C012FE632E161
:1025800043E85AE30E94B19C87FD1EC2C501B40115
:102590000E9490A20E9464A21B01672B19F42224BE
:1025A0002394312CB10180E090E00E94B59C4B0156
:1025B0005C019B01AC01C701B6010E94F7A16EA7A7
:1025C0007FA788AB99ABA50194016AA97BA98CA9C7
:1025D0009DA90E94F7A162966CAF7DAF8EAF9FAFB1
:1025E00062976E962CAD3DAD4EAD5FAD6E97669623
:1025F0006CAD7DAD8EAD9FAD66970E941AA1A50111
:1026000094010E94F7A166966CAF7DAF8EAF9FAF2D
:1026100066972EA53FA548A959A9CA01B9010E94EC
:10262000169D20E030E040E05FE30E94169D9B0194
:10263000AC0160E070E080E89FE30E941AA12A9656
:102640006CAF7DAF8EAF9FAF2A976A962CAD3DAD34
:102650004EAD5FAD6A9729873A874B875C876E9648
:102660008CAD9DADAEADBFAD6E978D879E87AF87AC
:10267000B88B6091450270914602072E000C880BC2
:10268000990B0E94B79C20914702309148024091DB
:10269000490250914A020E94169D2AE037ED43E21A
:1026A0005CE30E94169D6AA37BA38CA39DA30E945A
:1026B000415F9B01AC0128533F4F4F4F5F4F2E9618
:1026C0002CAF3DAF4EAF5FAF2E974EA05FA068A47A
:1026D00079A441E050E05BAF4AAF59E15AABAAADF3
:1026E000BBADA215B30509F434C10E9424400E9479
:1026F000415FDC01CB012E962CAD3DAD4EAD5FAD03
:102700002E97821B930BA40BB50BB7FD10C00E9434
:10271000415F9B01AC0128533F4F4F4F5F4F2E96B7
:102720002CAF3DAF4EAF5FAF2E970E94115A3AA922
:1027300031503AAB332309F441C02A962CAD3DAD5C
:102740004EAD5FAD2A976AA57BA58CA59DA50E947D
:10275000169D6B017C012EA53FA548A959A9B20180
:10276000C3010E94169DA70196010E941BA17B0137
:102770008C012A962CAD3DAD4EAD5FAD2A97B201CE
:10278000C3010E94169D4B015C012EA53FA548A9DF
:1027900059A96AA57BA58CA59DA50E94169D9B01A4
:1027A000AC01C501B4010E941AA12B013C01C70173
:1027B000D8018AA79BA7ACA7BDA751C04AAD5BAD06
:1027C000BA0180E090E00E94B59C2EA53FA548A9E3
:1027D00059A90E94169D4B015C010E94F4A16B0156
:1027E0007C01C501B4010E947CA34B015C01A701DF
:1027F00096016EA17FA188A599A50E94169D2B0127
:102800003C01A50194016EA97FA988AD99AD0E94F4
:10281000169D9B01AC01C301B2010E941BA12B01BB
:102820003C01A50194016EA17FA188A599A50E94F4
:10283000169D4B015C01A70196016EA97FA988AD89
:1028400099AD0E94169D9B01AC01C501B4010E9487
:102850001AA16AA77BA78CA79DA759E15AAB920141
:10286000A30122966CAD7DAD8EAD9FAD22970E94E7
:102870001BA169837A838B839C832AA53BA54CA5E6
:102880005DA526966CAD7DAD8EAD9FAD26970E9461
:102890001BA16D837E838F83988762962CAD3DAD9F
:1028A0004EAD5FAD629769857A858B859C850E9468
:1028B0001BA169877A878B879C8766962CAD3DAD77
:1028C0004EAD5FAD66976D857E858F8598890E9438
:1028D0001BA16D877E878F87988B80914402882308
:1028E00021F0CE0101960E947558E090140E898166
:1028F0009A81AB81BC818E8B9F8BA88FB98F8D8184
:102900009E81AF81B8858A8F9B8FAC8FBD8F898563
:102910009A85AB85BC858E8F9F8FA8A3B9A3CE0166
:1029200046960E94D02E8E010E5D1F4F9E01235FA2
:102930003F4FAE01425E5F4FBE01665E7F4FCE01EC
:1029400046960E9430848AAD9BAD01969BAF8AAFBC
:10295000C6CEE090140E8091890C90918A0CA091C3
:102960008B0CB0918C0C8E8B9F8BA88FB98F809124
:102970008D0C90918E0CA0918F0CB091900C8A8F41
:102980009B8FAC8FBD8F8091910C9091920CA091F8
:10299000930CB091940C8E8F9F8FA8A3B9A3CE01F6
:1029A00046960E94D02E8E010E5D1F4F25E93CE019
:1029B000AE01425E5F4FBE01665E7F4FCE0146961E
:1029C0000E9430840E949C330E94D82E0C94892847
:1029D000E1E8FCE184918F010F5F1F4F882321F014
:1029E0000E94E32EF801F6CFE9EDF1E084918F012A
:1029F0000F5F1F4F882311F40C9489280E94E32E47
:102A0000F801F4CF80E50E944932882329F00E9422
:102A1000F72D6B017C0103C0C12CD12C760183E51D
:102A20000E944932882361F00E94E73120E030E0C3
:102A30004AE754E40E94169D0E9464A26B017C0147
:102A40000E9475420E94D82E809198099091990910
:102A5000A0919A09B0919B09C80ED91EEA1EFB1ECF
:102A60000E94415FDC01CB018C199D09AE09BF09B1
:102A7000B7FD02C00C9489280E94115AF1CF0E9420
:102A8000E37981110C94892880E090E0A0E2B1E420
:102A900089839A83AB83BC8380E090E0A0E7B3E4B2
:102AA0008D839E83AF83B88780E090E0A0EAB1E495
:102AB00089879A87AB87BC8780E50E944932882343
:102AC00019F00E94B73101C060E06E8BBE016F5FEC
:102AD0007F4FCE0146960E94F88A0C94892880E0A8
:102AE0000E949D510C94892883E50E9449328823D5
:102AF00019F00E94C73101C080E0E82EF12CB6E049
:102B0000EB16F10470F0E1EAF2E084918F010F5FBF
:102B10001F4F882311F40C9489280E94E32EF8019A
:102B2000F4CF823009F44EC0F0F4882339F18130BB
:102B300009F0B3C10E94908B109201021092000222
:102B40008EE692E090931303809312030E94EA2E84
:102B50001092B70C1092B80C1092B90C1092BA0CDB
:102B60000E9465509AC1843009F488C108F425C1D7
:102B7000853009F092C10E945A508FC180917B0D1F
:102B8000882399F08091750C811103C06BE872E085
:102B900002C067E872E089E792E00E9416828AE04C
:102BA0000E94E32E0E94244E78C1E1E8F2E0849175
:102BB0008F010F5F1F4F882309F46FC10E94E32E1E
:102BC000F801F5CF209100023091010237FF0EC0CD
:102BD000E5E4F2E084918F010F5F1F4F882311F429
:102BE0000C9489280E94E32EF801F4CF21153105B9
:102BF00029F4809144028093260331C08FEF820F25
:102C0000982F917897FF03C091509E6F9F5FE92F97
:102C100087FD8F5F859580FF02C0E1E0E91BEE0F25
:102C2000FF0BE80FF11D87FDFA95EE0FFF1FEE0F6A
:102C3000FF1FE058F24F8091B70C9091B80CA09113
:102C4000B90CB091BA0C80839183A283B383809135
:102C5000260380934402243031050CF083C0922F68
:102C6000917897FF03C091509E6F9F5F892F022F2D
:102C700027FF02C001E0020F059500FF02C081E0BE
:102C8000891B4091B70C5091B80C6091B90C7091B0
:102C9000BA0C4AA35BA36CA37DA319821A821B8280
:102CA0001C8240E050E060EA70E44E8B5F8B688FDE
:102CB000798FE4E00E02800111240B5F124FF4E0E3
:102CC0008F02C00111249C01235F324F69019E01D4
:102CD0002F5F3F4FAE014A5E5F4FB801C6010E94B1
:102CE000B25019821A821B821C82BE016F5F7F4F15
:102CF000CE0182960E949651F60180819181A28137
:102D0000B3818093AF0C9093B00CA093B10CB093AF
:102D1000B20CF80180819181A281B3818093B30CC0
:102D20009093B40CA093B50CB093B60C10924402DF
:102D30008091000290910102892B51F41092B70CFE
:102D40001092B80C1092B90C1092BA0C0E946550F7
:102D5000809100029091010201969093010280936C
:102D600000029BC080E090E0A0EAB0E48093B70C42
:102D70009093B80CA093B90CB093BA0C0E94655014
:102D80000E9475428FEF9FEF9093010280930002A3
:102D9000E1E3F2E084918F010F5F1F4F882321F060
:102DA0000E94E32EF801F6CF81E080937B0D0E9414
:102DB0009D5181E00E943F5070C088E50E944932D9
:102DC0008823A1F00E94B7310FEF060F0230A8F060
:102DD000EAE1F2E084918F010F5F1F4F882311F425
:102DE0000C9489280E94E32EF801F4CF88E50E9414
:102DF000E32E0E9441920C94892889E50E94493271
:102E00008823A1F00E94B7311FEF160F1230A8F0EF
:102E1000E3E0F2E084918F010F5F1F4F882311F4EC
:102E20000C9489280E94E32EF801F4CF89E50E94D2
:102E3000E32E0E9441920C9489288AE50E9449322F
:102E40008823A9F00E94E731212F110F330B200FA7
:102E5000311D200F311D220F331F220F331FF901A7
:102E6000E058F24F608371838283938316C08AE5B2
:102E70000E94E32E0E9441920C9489288AE50E94C8
:102E800049328823A1F30E94E73160937C0D70934F
:102E90007D0D80937E0D90937F0DF1E0EF1AF10888
:102EA00022E0E216F104B0F4609100027091010298
:102EB0006530710514F064E070E084EF91E00E94E9
:102EC000FD8164E070E08FEE91E00E94FD818AE078
:102ED0000E94E32E0E94504C0C94892881E080933C
:102EE00025030C9489280E9475429FE4292E92E0C4
:102EF000392E20EAC22E29E0D22EE12CF12C00E05E
:102F000010E01EA2D1018D911D010E94493288233B
:102F100009F451C00E94E7314B015C0103301105F7
:102F200059F0F701EB5EFC4F2081318142815381E2
:102F30000E941AA14B015C01F701E155F34F20817A
:102F4000318142815381C501B4010E941AA12B0134
:102F50003C012DEB37E346E855EB0E9441A387FD8A
:102F60000AC02DEB37E346E855E3C301B2010E94E6
:102F7000B19C181604F50330110559F48092BB0C6E
:102F80009092BC0CA092BD0CB092BE0CB1E0BEA35E
:102F900012C0A3019201F601608171818281938147
:102FA0000E941BA1D6016D937D938D939C931397E3
:102FB000C8010E9466520F5F1F4FB4E0CB0ED11CB8
:102FC000E4E0EE0EF11C0430110509F09BCFFEA1E8
:102FD000FF2309F47FCF0E942B767CCF80911002D3
:102FE000882311F40C94892889E40E944932F82E30
:102FF000882321F00E94B731062F01C000E08AE447
:103000000E944932E82E882331F00E94B731162FF2
:10301000F11004C00AC010E0FF20B1F0023010F43B
:103020000C94B82CE8EBF2E003C01230D8F70CC0D7
:1030300084918F010F5F1F4F882311F40C9489280E
:103040000E94E32EF801F4CF0E945532FF2091F048
:1030500024E00202F0011124E35FF24F80819181AC
:10306000A281B3818093890C90938A0CA0938B0CDE
:10307000B0938C0CEE2091F034E01302F001112497
:10308000EB5FF24F80819181A281B38180938D0C9F
:1030900090938E0CA0938F0CB093900C80E50E94BF
:1030A0004932882319F00E94D83103C080E50E947C
:1030B0001A3286E40E9449328823D9F00E94E7310F
:1030C0006B017C0120E030E0A9010E9441A31816A9
:1030D00084F420E030E040E752E4C701B6010E94EA
:1030E000F7A160934702709348028093490290933E
:1030F0004A020E94EF8C0C94892880916C0A90916E
:103100006D0A8837910509F420C50CF085C08C350F
:10311000910509F408C50CF049C08C34910509F4F7
:10312000C7C1DCF48F31910509F432C14CF481310F
:10313000910509F420C1429709F4D6C40C9489285A
:103140008133910509F48BC18B34910509F4ACC12D
:103150008A9711F00C94892842C18235910509F4AF
:10316000BAC4C4F48E34910509F4C0C10CF4BAC1D8
:103170008135910511F00C9489280E9448630E94C2
:1031800075420E94DE8C10925B0C10925A0C00E08B
:1031900010E08AC48435910509F4A6C40CF49FC4D8
:1031A0008535910509F4A4C40C9489288E369105BF
:1031B00009F4DCC2B4F48A36910509F43EC454F42F
:1031C0008836910509F4A3C28936910509F4C0C374
:1031D0000C9489288C36910509F464C30CF452C40C
:1031E000FBC38237910509F4A2C43CF480379105F2
:1031F00009F45CC30CF4CDC261C38637910509F4B0
:103200009CC40CF09EC48337910511F00C9489285E
:103210000E94094C0C948928823241E0940709F4F9
:103220007DC70CF04BC08B3C910509F406C5ECF44E
:103230008B39910509F4A9C354F48937910509F430
:103240008BC48C38910509F465C30C948928883C9B
:10325000910509F487C4893C910509F4CBC48E3BE0
:10326000910511F00C948928D3C3833D910509F48D
:10327000F8C5B4F48D3C910509F46AC50CF4FCC49E
:103280008E3C910511F00C9489284FE4C42E42E045
:10329000D42E5CE3E52E5AE0F52E00E010E0CEC51A
:1032A0008D3D910509F4C1C6823E910509F407C719
:1032B0008C3D910511F00C948928A8C6853AA1E0AF
:1032C0009A0711F40C947A2564F58336E1E09E07A1
:1032D00011F40C940C288CF48E3221E0920709F43E
:1032E000C8C78F3231E0930711F40C948D218D32D1
:1032F000914011F00C9489281EC78A3951E0950736
:1033000009F4D8C2843AA1E09A0711F40C94A524D8
:103310008039914011F00C9489280E9475420C94D8
:103320008928863FE1E09E0711F40C94042784F479
:10333000843F21E0920711F40C94FE2614F00C94C3
:1033400001278C3A914011F40C9456260C9489284C
:10335000843853E0950711F40C941327873EA3E0BB
:103360009A0711F40C942328873F914011F00C9494
:1033700089280C9407275F988A989FB7F8948091C2
:1033800008018E7F809308019FBF12980C948928B2
:1033900087E19DE00E947B416E8B7F8B888F998FA8
:1033A000BE016F5F7F4FCE0146960E94072EEBE76E
:1033B000FCE184918F010F5F1F4F882321F00E9451
:1033C000E32EF801F6CFBE016F5F7F4F87ED92E0ED
:1033D0000E9416828AE00E94E32E0C94892883E5DD
:1033E0000E944932882311F40C9489280E94C73125
:1033F000E82E80E50E944932882341F00E94B731CF
:103400008B0177FF02C00C94892802C00DE010E008
:10341000902FEBE5F4E088E28E0F2491921729F0CB
:1034200031968E13FACF0C949528E1E8FCE1849153
:103430008F010F5F1F4F882321F00E94E32EF801B8
:10344000F6CFE4EEF2E084918F010F5F1F4F8823E7
:1034500011F40C9489280E94E32EF801F4CFF09027
:10346000140381E0F826F0921403EEEFF2E0849169
:103470008F010F5F1F4F882321F00E94E32EF80178
:10348000F6CFF11003C0E8EFF2E002C0E3EFF2E0A4
:1034900084918F010F5F1F4F882311F40C948928AA
:1034A0000E94E32EF801F4CF0E945B7A0C948928E5
:1034B0008091170D9091180D019711F00C948928A7
:1034C00082E090E09093180D8093170D0E94415F69
:1034D0006093210D7093220D8093230D9093240D02
:1034E0000C9489280E9471760C94892883E50E94A7
:1034F0004932882359F00E94B7316E34710531F496
:1035000087E19DE00E944C820C9489281E8A1F8AC4
:10351000188E198EE9E6F3E084918F010F5F1F4F3B
:10352000882321F00E94E32EF801F6CFE0E6F3E0D5
:1035300084918F010F5F1F4F882321F00E94E32E9B
:10354000F801F6CF6091250D7091260D80E090E096
:103550004AE00E949D30E3E5F3E084918F010F5F24
:103560001F4F882321F00E94E32EF801F6CF6091CF
:10357000270D7091280D80E090E04AE00E949D3078
:10358000E8E4F3E084918F010F5F1F4F882321F05F
:103590000E94E32EF801F6CF6091250D7091260D63
:1035A0008091270D9091280D681B790B8091170D44
:1035B0009091180D019721E030E0029710F020E083
:1035C00030E0621B730B80E090E04AE00E949D3087
:1035D0008AE00E94E32EE0E4F3E084918F010F5F24
:1035E0001F4F882321F00E94E32EF801F6CF80912F
:1035F000290D90912A0DA0912B0DB0912C0D8E8B41
:103600009F8BA88FB98FBE016F5F7F4FCE0146960B
:103610000E94072EE3E3F3E084918F010F5F1F4FB9
:10362000811105C0FE0131967F018F0104C00E9407
:10363000E32EF801F1CFD8018D918D01882319F087
:103640000E94E32EF8CF80912D0D90912E0DA09128
:103650002F0DB091300D8E8B9F8BA88FB98FBE012F
:103660006F5F7F4FCE0146960E94072EE3E2F3E0A4
:1036700084918F010F5F1F4F882321F00E94E32E5A
:10368000F801F6CFF70181917F01882319F00E949C
:10369000E32EF8CF8AE00E94E32EEBE1F3E0849181
:1036A0008F010F5F1F4F882321F00E94E32EF80146
:1036B000F6CFEBE0F3E084918F010F5F1F4F88237B
:1036C00021F00E94E32EF801F6CF20E030E04AE737
:1036D00054E46091310D7091320D8091330D9091D1
:1036E000340D0E94F7A142E00E941D31E9E0F3E0B1
:1036F00084918F010F5F1F4F882321F00E94E32EDA
:10370000F801F6CF8AE00E94E32E0C94892888E61F
:1037100090E00E94A75281110C9489288091710A2F
:1037200083FF02C00C94892883E50E9449328823D4
:10373000C9F00E94E7310E945FA270930D0A609366
:103740000C0A80E00E94FE620E94E73120E030E037
:103750004AEA52E40E94B19C181614F00E94717655
:103760000E94E7310E94EF970C9489288EE40E9412
:103770004932882311F40C9489280E94B731609350
:103780009B0C70939C0C80939D0C90939E0C0C94BE
:10379000892883E50E941A32882359F083E50E9424
:1037A0004932882319F00E94C73101C080E080931C
:1037B000710AEBE7FCE184918F010F5F1F4F8823B3
:1037C00021F00E94E32EF801F6CFEFE7F3E08491B9
:1037D0008F010F5F1F4F882321F00E94E32EF80115
:1037E000F6CF8091710A8823A1F181E7C82E83E08A
:1037F000D82EE12CF12C20E08091710A90E00E2C63
:1038000002C0959587950A94E2F780FF17C0BB2404
:10381000B394B20E222319F08CE20E94E32EF6013B
:1038200025913491F901849189010F5F1F4F8823FD
:1038300021F00E94E32E9801F5CF2B2DFFEFEF1A18
:10384000FF0A32E0C30ED11C45E0E416F104A1F6F4
:1038500024C0EBE7F3E084918F010F5F1F4F8823B3
:10386000E1F00E94E32EF801F6CFC0901A0CD09040
:103870001B0CE0901C0CF0901D0C20E030E0A90126
:10388000C701B6010E94B19C882311F40C94FF2754
:1038900042E0C701B6010E941D318AE00E94E32E7A
:1038A0000C948928109202020C94892886E893E0EF
:1038B0000E94E0590E94924B0C94892883E50E9453
:1038C0004932882369F00E94C7318D3320F48093F8
:1038D00011020C9489288CE3809311020C9489289E
:1038E000EBE7FCE184918F010F5F1F4F882321F0EC
:1038F0000E94E32EF801F6CF4091110250E060E003
:1039000070E08FE893E00E94A6818AE00E94E32E97
:103910000C9489288091710A83FF02C00C94892835
:1039200083E50E944932882311F40C9489280E946F
:10393000E7310E945FA26739710514F066E970E013
:1039400070930B0A60930A0A0E94B4620C9489284F
:1039500089E690E00E94A752811111C0E6E9F3E0E8
:1039600084918F010F5F1F4F882321F00E94E32E67
:10397000F801F6CF0E943F608AE00E94E32E109289
:103980009209109291090C94E62C83E50E94493229
:10399000882311F40C9489280E94C731182F8D3385
:1039A00008F01CE3109397090E94415F6B017C01B2
:1039B000212F30E0A8EEB3E00E940BA1C60ED71E67
:1039C000E81EF91EC0929309D0929409E0929509DD
:1039D000F09296090C9489288DE690E00E94A752F7
:1039E00081110C9489288091710A83FF02C00C9484
:1039F000892883E50E9449328EAB81110C94AA2854
:103A000082E50E94493281110C94AA280C948928DD
:103A10008091710A83FF02C00C94892883E50E947B
:103A200049328EAB81110C94DF2982E50E94493224
:103A300081110C94DF290C94892880E50E94493279
:103A4000811108C083E50E944932811109C03FEF0E
:103A500020E00AC00E94C73181110C948928F2CF5E
:103A60000E94B731362F272F832F922F8F3F91053A
:103A700019F010F08FEF90E090935B0C80935A0C4C
:103A80000C94892880E50E944932811106C0109269
:103A90005B0C10925A0C0C9489280E94B731672B4A
:103AA00011F00C948928F3CF62E370E080E090E09D
:103AB0000E94095F0E9424400F5F1F4F03311105D0
:103AC00099F762E370E080E090E00E94095F0E9455
:103AD00024400C948928109224030C94892881E0B6
:103AE000809324030C9489280E94CB4D0C94892840
:103AF00083E50E941A32882311F40C9489280E94CD
:103B0000E73120E030E04AE754E40E94169D0E942D
:103B100064A260939C0970939D0980939E09909381
:103B20009F090C9489280E942D4D0C9489280E948D
:103B300075420E94504C0C9489280E94C84B0C94EA
:103B400089280E947C8C0C94892881E08093160D32
:103B50008093150D0C9489281092160D1092150D56
:103B60000C94892888EC90E00E94A75281110C9453
:103B7000892884E40E941A328823C1F10E94E73127
:103B800011E020E030E0A9010E94B19C811101C048
:103B900010E01093110C112349F10E94E731E091DC
:103BA000050AA4E0EA9FF0011124EA5EF34F608366
:103BB00071838283938320E030E0A9016091160C29
:103BC0007091170C8091180C9091190C0E94B19C67
:103BD00081110CC080E090E0A0EEBFE38093160C52
:103BE0009093170CA093180CB093190C0E94C675F3
:103BF0000C948928EBE6EE2EEDE0FE2E0FE412E0A9
:103C0000F4E0DF2ED00EF80181918F010E941A326C
:103C1000882351F00E94E7310E9464A2D7016D937E
:103C20007D938D939C931397B4E0EB0EF11CD0120F
:103C3000EACF0E9461820C9489286EE3E62E6CE044
:103C4000F62E0FE412E074E0D72ED00EF801819129
:103C50008F010E941A32882341F00E94E731D70178
:103C60006D937D938D939C931397B4E0EB0EF11CB1
:103C7000D012ECCF0C94892883E50E941A32882355
:103C8000D9F00E94E731AB01BC014093360C509350
:103C9000370C6093380C7093390C4093320C50936E
:103CA000330C6093340C7093350C8BEF93E00E94CF
:103CB000E0818AE00E94E32E80E50E941A32882388
:103CC00099F00E94E731AB01BC014093360C509350
:103CD000370C6093380C7093390C8EED93E00E9492
:103CE000E0818AE00E94E32E82E50E941A32882356
:103CF00099F00E94E731AB01BC0140933A0C50931C
:103D00003B0C60933C0C70933D0C8FEB93E00E9456
:103D1000E0818AE00E94E32E84E50E941A32882323
:103D200011F40C9489280E94E731AB01BC01409347
:103D3000320C5093330C6093340C7093350C81EA41
:103D400093E00E94E0818AE00E94E32E0C9489288F
:103D500083E50E941A32882351F00E94E731609374
:103D6000560C7093570C8093580C9093590C84E523
:103D70000E941A32882351F00E94E7316093520C5E
:103D80007093530C8093540C9093550C82E40E94D2
:103D90001A32882351F00E94F72D60934E0C7093D5
:103DA0004F0C8093500C9093510C88E50E941A326E
:103DB000882351F00E94E7316093220C7093230C0A
:103DC0008093240C9093250C89E50E941A32882355
:103DD00051F00E94E7316093260C7093270C80937A
:103DE000280C9093290C8AE50E941A32882351F0FE
:103DF0000E94E73160932A0C70932B0C80932C0C5B
:103E000090932D0C85E40E941A32882311F40C94AF
:103E100089280E94E73160932E0C70932F0C8093B9
:103E2000300C9093310C0C9489280F5F1F4FB4E035
:103E3000EB0EF11C0330110509F44CC8F601819119
:103E40006F010E941A32882381F30E94E731D70163
:103E50006D937D938D939C931397C8010E94665236
:103E6000E4CFEBE7FCE184918F010F5F1F4F8823C4
:103E700021F00E94E32EF801F6CF83E50E941A326A
:103E8000882321F00E94D83180934402EBE4F4E0CF
:103E900084918F010F5F1F4F882321F00E94E32E32
:103EA000F801F6CF80914402811103C0E7E4F4E009
:103EB00002C0E3E4F4E084918F010F5F1F4F882379
:103EC00021F00E94E32EF801F6CFEBE3F4E08491B9
:103ED0008F010F5F1F4F882321F00E94E32EF8010E
:103EE000F6CF409015035090160360901703709022
:103EF00018032091AC093091AD094091AE09509161
:103F0000AF09C301B2010E941BA1AB01BC0189E34F
:103F100094E00E94E0818090190390901A03A09091
:103F20001B03B0901C032091B0093091B10940915E
:103F3000B2095091B309C501B4010E941BA1AB01A4
:103F4000BC0186E394E00E94E081C0901D03D09004
:103F50001E03E0901F03F09020032091B4093091DC
:103F6000B5094091B6095091B709C701B6010E9441
:103F70001BA1AB01BC0183E394E00E94E081EBE272
:103F8000F4E084918F010F5F1F4F882321F00E947E
:103F9000E32EF801F6CF20911602309117024091DE
:103FA000180250911902C301B2010E941BA1AB017A
:103FB000BC0189E294E00E94E08120911A023091D4
:103FC0001B0240911C0250911D02C501B4010E94C8
:103FD0001BA1AB01BC0186E294E00E94E08120912C
:103FE0001E0230911F024091200250912102C70110
:103FF000B6010E941BA1AB01BC0183E294E00E94C8
:10400000E0818AE00E94E32E0C94892883E50E94D7
:104010004932882311F40C9489280E94B731709397
:104020004602609345020C9489288DED90E00E9431
:10403000A75281110C94892883E50E944932882374
:1040400011F40C9489280091050A10E00E94B73100
:10405000000F111FF801E45DFD4F718360838091B3
:10406000050A90E08C01000F111F000F111FF801CD
:10407000E05DFD4F7F01880F991FFC01E45DFD4F5E
:1040800060817181072E000C880B990B0E94B79CF0
:104090002AE037ED43E25CE30E94169DF801EE5EF4
:1040A000F34F20813181428153810E94169DD701B7
:1040B0006D937D938D939C9313970C94892880E541
:1040C0000E941A32882311F40C9489280E94B73177
:1040D0006B017C0183E50E944932882321F00E9414
:1040E000B7318B0102C00FEF1FEFC8010196039794
:1040F00010F00C948928D7FE02C00C9489289C2DBE
:10410000EBE5F4E088E28E0F2491921711F40C9401
:10411000892831968E13F8CF0C94BE2C8AE50E9424
:10412000493281110C94162B83E50E94493281118A
:104130000C94162BEEC785E40E944932811110C001
:1041400080E50E941A32882391F00E94E731609343
:104150002D0970932E0980932F099093300907C081
:104160000E94C731882361F3E1E8FCE171C089E472
:104170000E941A32882381F00E94E7312CEA35EC44
:1041800047E25EE30E94169D6093290970932A0915
:1041900080932B0990932C0984E40E941A3288237F
:1041A00081F00E94E7312CEA35EC47E25EE30E94A1
:1041B000F7A160933109709332098093330990938A
:1041C0003409EBE7FCE184918F010F5F1F4F8823D7
:1041D00021F00E94E32EF801F6CF40912D09509175
:1041E0002E0960912F09709130098BE894E00E94AC
:1041F000E0812CEA35EC47E25EE360912909709199
:104200002A0980912B0990912C090E94F7A1AB01FA
:10421000BC0187E894E00E94C3812CEA35EC47E2B8
:104220005EE3609131097091320980913309909178
:1042300034090E94169DAB01BC0183E894E00E9402
:10424000C3818AE00E94E32E64C70E94E32EF80136
:1042500084918F010F5F1F4F8111F7CF03E912E0A7
:10426000F80181918F01882309F417CB0E94E32E76
:10427000F7CF83E50E941A32182F882371F00E942D
:10428000E7310E945FA270932F0260932E0221E01B
:10429000672B09F020E020934E0D80E50E941A3232
:1042A000882359F020912E0230912F02232B11F0F8
:1042B0000E94D83180934E0D2CC711112AC7EBE70D
:1042C000FCE184918F010F5F1F4F882321F00E9432
:1042D000E32EF801F6CF80914E0D811103C06FE8F7
:1042E00072E002C065E073E084EA94E00E94168206
:1042F00060912E0270912F0283E994E00E94FD816B
:10430000EFE8F4E084918F010F5F1F4F882309F4D9
:1043100000C70E94E32EF801F5CF85E40E944932E0
:10432000882321F00E94B7317B0102C0E12CF12CDF
:1043300083E40E944932882331F00E94B731A89665
:104340006FAFA89704C025E0A8962FAFA89785E582
:104350000E944932882319F00E94D83103C085E5B4
:104360000E941A32E4968FAFE497F7FC07C0812CC5
:10437000912CB6E1AB2EB3E4BB2E06C0812C912C60
:10438000ACE8AA2EA2E4BA2E83E50E944932882323
:1043900021F00E94E7314B015C01E114F10411F4BA
:1043A0001092050A0E94415F2B013C01E11003C0FD
:1043B00004EA12E00BC007EB12E0D8018D918D01E9
:1043C000882309F46ACA0E94E32EF7CFF80181918D
:1043D0008F01882319F00E94E32EF8CFC501B401A4
:1043E0000E945FA2072E000C880B990B0E94B79CBD
:1043F0006EAB7EA78AAB9AAFA30192012058374CCF
:104400004E4F5F4FC458DF4F288339834A835B8305
:10441000CC57D0408AE00E94E32E0E9448638FE789
:104420008093030A81E080930202AF964CAE5DAEAA
:104430006EAE7FAEAF97E8964CAE5DAE6EAE7FAE21
:10444000E897AB961FAEAB97EC961CAE1DAE1EAEBA
:104450001FAEEC9723961FAE239730E427963FAF0D
:1044600027974CE12B964FAF2B9756E467965FAF9B
:1044700067976B961FAE6B972F961FAE2F9763961D
:104480001FAE63976F961FAE6F97A7961CAE1DAEBB
:104490001EAE1FAEA797A3961CAE1DAE1EAE1FAEDE
:1044A000A397C12CD12C7601FFE78F2E912CA12C44
:1044B000B12C8FE790E0A0E0B0E08AA79BA7ACA763
:1044C000BDA7E3961CAE1DAE1EAE1FAEE39791E0F6
:1044D000AA969FAFAA971FAE1EAE10E0212C312CDA
:1044E00000E0A896AFADA8970A2E000CBB0BA996CA
:1044F000BFAFAEAFA99780910202882309F4E2C052
:104500000E94415F6EA37FA388A799A78091010AAB
:10451000882309F4BBC00E940E6410910E0A2090FB
:104520000F0A3090100A0091110A212F322D432DCD
:10453000502F6B966FAD6B972F967FAD2F9763962D
:104540008FAD63976F969FAD6F970E94B19C87FF69
:104550000CC06B961FAF6B972F962FAE2F9763965D
:104560003FAE63976F960FAF6F97212F322D432D7C
:10457000502F23966FAD239727967FAD27972B96C5
:104580008FAD2B9767969FAD67970E9441A3181632
:1045900064F423961FAF239727962FAE27972B9669
:1045A0003FAE2B9767960FAF6797AA96BFADAA97B6
:1045B0002EA93EA54AA95AAD612F722D832D902FA9
:1045C000BB2309F447C00E9441A318160CF05EC03B
:1045D0004EA15FA168A579A5441955096609770917
:1045E000DB01CA0188589341A109B109B7FD4EC04A
:1045F0008AA59BA5ACA5BDA588199909AA09BB09DF
:10460000B595A795979587958093030AE3964CAF48
:104610005DAF6EAF7FAFE397EEA96B96EFAF6B9791
:10462000FEA52F96FFAF2F972AA963962FAF63970A
:104630003AAD6F963FAF6F978EA19FA1A8A5B9A580
:10464000AF968CAF9DAFAEAFBFAFAF97AA961FAE80
:10465000AA971CC00E94B19C87FF18C08EA19FA181
:10466000A8A5B9A5AF962CAD3DAD4EAD5FADAF974A
:10467000821B930BA40BB50BAC01BD0148585341F1
:104680006109710977FD02C00C944F2B20E030E0E6
:1046900040EA51E46EA97EA58AA99AAD0E941BA1A9
:1046A0009B01AC01612F722D832D902F0E9441A39D
:1046B00018167CF4EFEAF5E084918F010F5F1F4F2D
:1046C000811103C00E94486324C50E94E32EF801B3
:1046D000F3CF8EA19FA1A8A5B9A5E8962CAD3DADBD
:1046E0004EAD5FADE897821B930BA40BB50BB7FDE6
:1046F00094C00E943F608AE00E94E32E8EA19FA199
:10470000A8A5B9A58053984FAF4FBF4FE8968CAF7F
:104710009DAFAEAFBFAFE897AB969FADAB97911192
:1047200061C0EC962CAD3DAD4EAD5FADEC97612F09
:10473000722D832D902F0E9441A31816E4F520E0DE
:1047400030E040EE50E46EA97EA58AA99AAD0E94A1
:104750001AA19B01AC01A1E0AB96AFAFAB97612F63
:10476000722D832D902F0E9441A318161CF0AB963A
:104770001FAEAB9720E030E040E050E4612F722D97
:10478000832D902F0E941BA1EC966CAF7DAF8EAF56
:104790009FAFEC972EA13FA148A559A52058374CB3
:1047A0004E4F5F4FC458DF4F288339834A835B8362
:1047B000CC57D04032C08EA19FA1A8A5B9A5C4589E
:1047C000DF4F288139814A815B81CC57D040821BE1
:1047D000930BA40BB50BB7FD20C041E955E060EA8F
:1047E00075E018C020E030E040EA51E46EA97EA5F3
:1047F0008AA99AAD0E941AA19B01AC01612F722D6A
:10480000832D902F0E94B19C87FF07C041E755E0A0
:1048100061E875E080E00E94B73F8EA19FA1A8A546
:10482000B9A5880F991FAA1FBB1FAF962CAD3DAD30
:104830004EAD5FADAF97821B930BA40BB50B8419E4
:104840009509A609B70981389F44A241B10568F0CE
:10485000E3E5F5E084918F010F5F1F4F882309F492
:1048600031CF0E94E32EF801F5CF4EAD5FADA99692
:104870008EAD9FADA997841795070CF03CCEE6EF5F
:10488000F4E084918F010F5F1F4F882321F00E9475
:10489000E32EF801F6CFB701A60181EE94E00E9465
:1048A000E0818AE00E94E32EA3964CAD5DAD6EAD33
:1048B0007FADA3978CEC94E00E94E0818AE00E9497
:1048C000E32EA7964CAD5DAD6EAD7FADA79787EBA0
:1048D00094E00E94E0818AE00E94E32EE4969FAD7E
:1048E000E497992309F415C4C0922D09D0922E099A
:1048F000E0922F09F09230092CEA35EC47E25EE3B2
:10490000A3966CAD7DAD8EAD9FADA3970E94169D15
:104910006093290970932A0980932B0990932C099D
:104920002CEA35EC47E25EE3A7966CAD7DAD8EAD2B
:104930009FADA7970E94F7A1609331097093320948
:104940008093330990933409E4C38091AF0C909124
:10495000B00CA091B10CB091B20C89839A83AB8357
:10496000BC838091B30C9091B40CA091B50CB09124
:10497000B60C8D839E83AF83B8878091B70C9091DE
:10498000B80CA091B90CB091BA0C89879A87AB8703
:10499000BC8786E50E941A32882391F080917B0DB6
:1049A000882371F0E1E6F6E084918F010F5F1F4FDD
:1049B000882321F00E94E32EF801F6CF0E94244EB6
:1049C0008AE50E941A32882321F00E94E7310E9472
:1049D000B87A83E50E941A32882331F00E94D831D8
:1049E000182F0E943F5001C010E0F090750C11117B
:1049F00003C0EBE7FCE11AC0F110FBCFE1E8FCE1FA
:104A000084918F010F5F1F4F882321F00E94E32EB6
:104A1000F801F6CFE3E4F6E084918F010F5F1F4FBA
:104A2000882339F30E94E32EF801F6CF84918F0199
:104A30000F5F1F4F882321F00E94E32EF801F6CF6D
:104A4000F11003C06BE872E002C067E872E085E332
:104A500096E00E9416828AE00E94E32EEBE7FCE1DA
:104A600084918F010F5F1F4F882321F00E94E32E56
:104A7000F801F6CFE8E2F6E084918F010F5F1F4F57
:104A8000882321F00E94E32EF801F6CFC090760C27
:104A9000D090770CE090780CF090790C20E030E02A
:104AA000A901C701B6010E9441A318164CF442E0C7
:104AB000C701B6010E941D318AE00E94E32E0CC09E
:104AC000E3E2F6E084918F010F5F1F4F882321F00E
:104AD0000E94E32EF801F6CF4CE050E06FEA7CE054
:104AE000CE0101960E94FFA3892B09F412C30E94F4
:104AF000504C0FC388E50E941A32B82E89E40E94F8
:104B00001A32A82E882319F00E94B7311AC0BB2090
:104B1000D1F00E94E73120E030E040E251E40E9411
:104B20001AA120E030E040EF52E40E941BA129E8E6
:104B300038E848E85BE30E94169D0E945FA262305D
:104B400010F4F62E02C0FF24FA9489E50E941A326E
:104B5000E82E8AE40E941A32082F882319F00E9456
:104B6000B7311AC0EE20D1F00E94E73120E030E0EA
:104B700040E251E40E941AA120E030E046EE52E407
:104B80000E941BA125E338E74EE85BE30E94169DD7
:104B90000E945FA2623010F4162F01C01FEF8AE559
:104BA0000E941A32C82E811105C081E50E941A3276
:104BB000D82E01C0D12CA11002C020E001C0202FAE
:104BC00030E0B11001C0E12C2E0D311D2130310536
:104BD00019F0E1E8FCE105C0C1101AC0D11018C0FD
:104BE000F8CF84918F010F5F1F4F882321F00E941F
:104BF000E32EF801F6CFE6E9F6E084918F010F5F2E
:104C00001F4F882309F485C20E94E32EF801F5CFD7
:104C1000F7FE03C0E1E8FCE106C017FF17C0FACFBA
:104C20000E94E32EF80184918F010F5F1F4F8111C5
:104C3000F7CFE7E7F6E084918F010F5F1F4F8823DE
:104C400009F467C20E94E32EF801F5CF0E94E73114
:104C5000A12F110FBB0B0F2DFF0C110BDD2081F0CD
:104C6000F801EE0FFF1FEA0FFB1FEE0FFF1FEE0F05
:104C7000FF1FE058F24F208131814281538103C0F0
:104C800020E030E0A901000F111F0A0F1B1F000FC9
:104C9000111F000F111F0058124F0E941BA1D801B5
:104CA0006D937D938D939C93139733C20E94E37908
:104CB00081112FC246E7842E46E1942EEFEAFCE0F4
:104CC000FFA3EEA39E012F5F3F4F59010FEC16E1AA
:104CD000190133E0300F3AA7F40165917591859180
:104CE0009491AEA1BFA1CD90DD90ED90FD90BFA3BA
:104CF000AEA3A70196010E941AA12B013C0120E05E
:104D000030E040EA51EC0E9441A387FD10C020E052
:104D100030E040EA51E4C301B2010E94B19C181690
:104D200034F0F10140825182628273820DC0F80139
:104D300084911816B4F7F7FAF094F7F8F094F101AB
:104D4000C082D182E282F382D101CD90DD90ED90DC
:104D5000FD901D0120E030E040EA51ECC701B601B2
:104D60000E9441A387FF03C0E1E8FCE10BC020E003
:104D700030E040EA51E4C701B6010E94B19C181628
:104D8000C4F4F2CF84918F010F5F1F4F882321F06D
:104D90000E94E32EF801F6CFE6EBF6E084918F0156
:104DA0000F5F1F4F882309F4B4C10E94E32EF8015E
:104DB000F5CFB4E08B0E911C0F5F1F4FEAA5E013F7
:104DC0008BCF3CE3E32E3AE0F32E00E010E0F50158
:104DD00081919191A191B1915F01F701819391939B
:104DE000A193B1937F01C8010E9466520F5F1F4FCC
:104DF0000330110561F70E94504C8BC10E9456533D
:104E000088C10E94697C85C10E945E7B82C183E566
:104E10000E941A32882321F00E94D83191E089271C
:104E20000E94586476C10E9475428BE40E94493208
:104E3000882399F00E94E7316B017C0120E030E08B
:104E4000A9010E9441A387FD08C0C0921E0CD09208
:104E50001F0CE092200CF092210C82E50E94493256
:104E6000882361F00E94E7316B017C0120E030E093
:104E7000A9010E94B19C87FF89C006C0C12CD12C1A
:104E800020E8E22E2FEBF22E84E40E9449328823A0
:104E900029F00E94E7314B015C0106C0812C912C66
:104EA00090E8A92E9FEBB92E87E50E94493288230E
:104EB00029F00E94E7312B013C0106C0412C512C06
:104EC00080E8682E8FEB782E88E40E944932882390
:104ED00039F00E94E7316EA37FA388A799A708C085
:104EE00020E030E040E85FEB2EA33FA348A759A79E
:104EF00020E030E0A901C501B4010E9441A387FD73
:104F000045C020E030E0A901C301B2010E9441A3E5
:104F100087FD3CC020E030E0A9016EA17FA188A5FB
:104F200099A50E9441A387FD31C020E030E0A9018E
:104F3000C501B4010E94B19C882391F120E030E0CA
:104F400040E05FE3C501B4010E94169D6B017C0146
:104F50002EA13FA148A559A5C301B2010E94169DEB
:104F60004B015C01A7019601C701B6010E94169D85
:104F70002BED3FE049E450E40E94169D9B01AC01FB
:104F8000C501B4010E94F7A16B017C0120E030E073
:104F9000A901C701B6010E9441A387FF04C00BC04D
:104FA000C12CD12C7601C0921A0CD0921B0CE0922D
:104FB0001C0CF0921D0CEBE7FCE184918F010F5F5C
:104FC0001F4F882319F0FFD6F801F7CF40911E0C30
:104FD00050911F0C6091200C7091210C8FED96E088
:104FE0000E94E081E9EDF6E084918F010F5F1F4F91
:104FF000882311F40C94351CE6D6F801F5CFE4EDC6
:10500000F6E084918F010F5F1F4F882311F40C94F9
:105010004D1CD9D6F801F5CFE1E8FCE184918F0170
:105020000F5F1F4F882319F0CED6F801F7CFEAEEB5
:10503000F6E084918F010F5F1F4F882309F469C048
:10504000C2D6F801F6CF81E08093100283E50E947A
:105050004932882319F00E94D83103C083E50E94A9
:105060001A32811156C00E94A19053C0F0906C0A70
:10507000FF2009F1EBE7FCE184918F010F5F1F4FE7
:10508000882319F0A0D6F801F7CF84E59CD66F2DC0
:1050900070E080E090E04AE00E949D3080E293D68C
:1050A00003E912E0D8018D918D01882311F40C944D
:1050B0004D1C89D6F7CF1092140EEBE7FCE18491DA
:1050C0008F010F5F1F4F882319F07DD6F801F7CFAE
:1050D0006091140E70E089EF96E00E94FD818AE0F5
:1050E00072D617C0EBE7FCE184918F010F5F1F4F71
:1050F000882319F068D6F801F7CF60916F0A709194
:10510000700A8BE097E00E94168282E25CD68AE009
:105110005AD610929209109291090E94829056C418
:105120000E94D64E0E94EF8CF4CF61E0802F0E9447
:10513000065E6E2D802F0E94D75DF12CB701802F67
:105140000E94425E0930110521F7F0925B0CE0925B
:105150005A0CDFCF0E94E7310E945FA270930D0AC4
:1051600060930C0A80E00E94FE620E94E73120E01A
:1051700030E04AEA52E40E94B19C18161CF00E94EA
:10518000717602C00E945B7A0E94EF9781E0809363
:1051900002021AA61BA61CA61DA61EA61FA618AABA
:1051A00019AA1EA21AAA5CE35AAF8CE18EAF96E44C
:1051B00023969FAF2397C12CD12C10E8E12E0FEB43
:1051C000F02E812C912C540160910C0A70910D0AE3
:1051D000072E000C880B990B0E94B79C162F072FE7
:1051E000782E692E262F372F482F592FB601C70149
:1051F0000E94B19C8823D1F020910E0A30910F0AB1
:105200004091100A5091110A612F702F872D962D11
:105210000E94B19C881F8827881F8EA3AEA9AA234D
:1052200049F0882339F08091020273CF1C2D0D2D97
:105230007E2C6F2C0E94415F6B017C01DC01CB0155
:105240002EA53FA548A959A9821B930BA40BB50B0A
:10525000B7FD37C0D701C60188519C4FAF4FBF4F34
:105260008EA79FA7A8ABB9AB0E943F60E9E9F3E026
:1052700084912F019FEF491A590A882319F0A3D569
:10528000F201F6CF81149104A104B104B1F0D5016B
:10529000C40188519C4FAF4FBF4FBC01CD016C1969
:1052A0007D098E099F0928EE33E040E050E00E941E
:1052B000BDA0CA01B901A7D702C08FE384D58AE097
:1052C00082D50E94115A74D520900E0A30900F0A90
:1052D0004090100A5090110A9101A201612F702F85
:1052E000872D962D0E941AA19F7781149104A10405
:1052F000B10449F420E030E040E85FE30E94B19C53
:1053000087FF0BC008C020E030E040E850E40E9476
:1053100041A3181614F446015701AEA1AA2399F12E
:105320002AA53BA54CA55DA52115310541055105D3
:1053300041F0D701C601821B930BA40BB50BB7FD3F
:1053400022C09101A2016AA97AAD8EAD23969FADCC
:1053500023970E941AA120E030E040EC5FE30E9416
:10536000B19C87FD60CFD701C601805A9541AF4FF0
:10537000BF4F8AA79BA7ACA7BDA72AAA3AAE4EAE3D
:1053800023965FAE239780910202882309F44BCFC6
:1053900081149104A104B10429F4C12ED02EE72C6C
:1053A000F62C12CF98EEC91A93E0D90AE108F10859
:1053B000C818D908EA08FB08F7FE35CFEECF0E94DF
:1053C000E7310E945FA26739710514F066E970E069
:1053D00070930B0A60930A0A0E94B462F8D720E027
:1053E00030E040EA50E40E9441A3181614F40E94F1
:1053F0005B7A81E0809302028091140E8093050A0B
:105400001AA61BA61CA61DA61EA61FA618AA19AA88
:105410001EA21AAAACE3AAAFBCE1BEAFE6E4239693
:10542000EFAF2397C12CD12CA0E8EA2EBFEBFB2EC7
:10543000812C912C540160910A0A70910B0A072E5D
:10544000000C880B990B0E94B79C162F072F782E03
:10545000692E262F372F482F592FB601C7010E94DA
:10546000B19C8823D1F02091060A3091070A40911F
:10547000080A5091090A612F702F872D962D0E94DE
:10548000B19C881F8827881F8EA3FEA9FF2349F09F
:10549000882339F0809102023CCE1C2D0D2D7E2CEC
:1054A0006F2C0E94415F6B017C01DC01CB012EA5BA
:1054B0003FA548A959A9821B930BA40BB50BB7FDB7
:1054C00037C0D701C60188519C4FAF4FBF4F8EA741
:1054D0009FA7A8ABB9AB0E943F60EDE9F3E08491D0
:1054E0002F019FEF491A590A882319F06CD4F20151
:1054F000F6CF81149104A104B104B1F0D501C40127
:105500008053984FAF4FBF4FBC01CD016C197D093F
:105510008E099F0928EE33E040E050E00E94BDA0D4
:10552000CA01B90170D602C08FE34DD48AE04BD4D2
:105530000E94115A3DD42090060A3090070A4090EC
:10554000080A5090090A9101A201612F702F872D3E
:10555000962D0E941AA19F7781149104A104B10491
:1055600049F420E030E040E85FE30E94B19C87FF0F
:105570000BC008C020E030E040E450E40E9441A3AA
:10558000181614F446015701AEA1AA2399F12AA5D1
:105590003BA54CA55DA5211531054105510541F0FF
:1055A000D701C601821B930BA40BB50BB7FD22C01C
:1055B0009101A2016AA97AAD8EAD23969FAD239782
:1055C0000E941AA120E030E040EC5FE30E94B19C11
:1055D00087FD60CFD701C601805A9541AF4FBF4FBD
:1055E0008AA79BA7ACA7BDA72AAA3AAE4EAE239620
:1055F0005FAE239780910202882309F44BCF811478
:105600009104A104B10429F4C12ED02EE72CF62C6C
:1056100012CF90EDC91A97E0D90AE108F108C8182D
:10562000D908EA08FB08F7FE35CFEECFD0D620E048
:1056300030E040E050EC0E94B19C87FD10C0C7D61E
:1056400020E030E040E050E40E9441A3181614F03E
:10565000BED609C060E070E080E090E404C060E085
:1056600070E080E090EC2091C70C3091C80C409124
:10567000C90C5091CA0CE0913B0AEE2309F449CDC4
:105680000091FF091091000A0E94169D0E945FA2DE
:10569000600F711F7093000A6093FF093ACD4EAD01
:1056A0005FAD452B09F437C1E3964CAC5DAC6EACF5
:1056B0007FACE397480E591E6A1E7B1EE3962CAD05
:1056C0003DAD4EAD5FADE397281B390B4A0B5B0B2D
:1056D000CA01B901A50194010E94AEA0A3019201E3
:1056E0000E94DFA08AA49BA4ACA4BDA4820E931E3A
:1056F000A41EB51E34E183169104A104B1040CF17B
:105700004CEE84169104A104B1043CF450E88516D3
:105710009104A104B10434F422C07BEE872E912CB5
:10572000A12CB12C8AA69BA6ACA6BDA68EEF90E0BC
:10573000A0E0B0E088199909AA09BB094C015D01F4
:1057400012C024E130E040E050E02AA73BA74CA77C
:105750005DA764E1862E912CA12CB12C04C08AA6F1
:105760009BA6ACA6BDA64AA55BA56CA57DA58BE1B5
:1057700096E00E94C897B501A40186E196E00E94D8
:10578000C89723964FAD239727965FAD27972B9603
:105790006FAD2B9767967FAD67978FE096E00E947D
:1057A000E0816B964FAD6B972F965FAD2F97639609
:1057B0006FAD63976F967FAD6F9788E096E00E941C
:1057C000E0814EAD5FAD433051050CF4A4C0C5017E
:1057D000B4010E94B79C20E030E040E850E40E9411
:1057E000169D6B017C0123962FAD239727963FAD25
:1057F00027972B964FAD2B9767965FAD67976B9664
:105800006FAD6B972F967FAD2F9763968FAD639794
:105810006F969FAD6F970E941AA12BED3FE049E470
:1058200050E40E94169D20E030E040E05FE30E94DB
:10583000169D9B01AC01C701B6010E94F7A16B0147
:105840007C01C301B2010E94B79C2FE632E143E81C
:105850005AE30E94169D2B013C01B701A60182E08C
:1058600096E00E94E081B301A2018CEF95E00E94D6
:10587000E0812AE939E949E15FE3C701B6010E9405
:10588000169D6B017C019B01AC010E941BA1A30131
:1058900092010E94F7A1A3966CAF7DAF8EAF9FAF30
:1058A000A397A3019201C701B6010E94169D20E0B3
:1058B00030E040E05EE30E94169DA7966CAF7DAF9E
:1058C0008EAF9FAFA797ECEEF5E084913F015FEFBD
:1058D000651A750A882319F076D2F301F6CFB7015D
:1058E000A60186EE95E00E94E081A3964CAD5DADE9
:1058F0006EAD7FADA39780EE95E00E94E081A79604
:105900004CAD5DAD6EAD7FADA7978AED95E00E9481
:10591000E0818AE058D28AA59BA5ACA5BDA5880DDB
:10592000991DAA1DBB1DB595A79597958795809341
:10593000030A8EAD9FAD01969FAF8EAF9EA92396B1
:105940009FAF2397AEA52796AFAF2797BAA92B96FF
:10595000BFAF2B97EAAD6796EFAF67974EA05FA0FA
:1059600068A479A4F1E0AA96FFAFAA970C94462305
:10597000E1100C94151899D50C9428180E947542C2
:10598000BC2C60E08C2D0E94065E0F3FFFEF1F07CE
:1059900059F48C2D0E94306431E020E0892B09F00D
:1059A00030E0032F122F05C00130110561F000E037
:1059B00010E08B2D0E9430648017910709F4A9CB69
:1059C0000E94115AF6CF01E010E0F3CFC158DF4F2B
:1059D0000FB6F894DEBF0FBECDBFDF91CF911F9100
:1059E0000F91FF90EF90DF90CF90BF90AF909F907E
:1059F0008F907F906F905F904F903F902F90089581
:105A00008FB7F8949091130E2091120E291759F028
:105A1000E92FF0E0EE56F24F208130E09F5F9F7754
:105A20009093130E02C02FEF3FEF8FBFC90108956F
:105A3000CF92DF92EF92FF92CF93DF936B017C01C5
:105A4000EA012FE632E143E85AEB0E9441A387FDC9
:105A500023C021E230E042E853E4C701B6010E94CE
:105A6000B19C1816CCF0C880D980EA80FB802FE664
:105A700032E143E85AEBC701B6010E9441A387FD1A
:105A80000BC0C1E022E430E04AE753E4C701B601AD
:105A90000E94B19C18160CF4C0E08C2FDF91CF91BE
:105AA000FF90EF90DF90CF900895FF920F931F9398
:105AB000CF93DF93FC0120812B3319F1D091100C8F
:105AC000D430F8F4F62EBC01C0919E030C2F10E0E8
:105AD000F0E6CF9FC00111248E58954F0E9420A45C
