:100000000C941C0F0C944D0F0C944D0F0C944D0F31
:100010000C944D0F0C944D0F0C944D0F0C944D0FF0
:100020000C944D0F0C944D0F0C944D0F0C944D0FE0
:100030000C944D0F0C944D0F0C944D0F0C944D0FD0
:100040000C944D0F0C9482420C944D0F0C944D0F58
:100050000C944D0F0C944D0F0C9476570C94F8554E
:100060000C944D0F0C9447310C944D0F0C944D0F84
:100070000C944D0F0C944D0F0C944D0F0C944D0F90
:100080000C944D0F0C944D0F0C944D0F0C944D0F80
:100090000C944D0F0C944D0F0C944D0F0C944D0F70
:1000A0000C944D0F0C944D0F0C944D0F0C944D0F60
:1000B0000C944D0F0C944D0F0C944D0F0C944D0F50
:1000C0000C944D0F0C944D0F0C944D0F0C944D0F40
:1000D0000C944D0F0C944D0F0C944D0F0C944D0F30
:1000E0000C944D0F47544A5439543D544354815451
:1000F0004E54525458545C54605466546A546E546E
:100100008154745478547C54145519551E552855EF
:100110003255AB553C5544554C55565560556A556E
:1001200079558355AB558D559755A155084AD73B01
:100130003BCE016E84BCBFFDC12F3D6C74319ABDB6
:1001400056833DDA3D00C77F11BED9E4BB4C3E91DA
:100150006BAAAABE000000803F05A84CCDB2D44EC9
:10016000B93836A9020C50B9918688083CA6AAAACB
:100170002ABE000000803F004E414E494E4954596E
:10018000494E46CDCCCC3D0AD7233C17B7D1387762
:10019000CC2B329595E6241FB14F0A000020410078
:1001A00000C84200401C4620BCBE4CCA1B0E5AAEC2
:1001B000C59D74434F4D4D554E49434154494F4E93
:1001C0000044525952554E004552524F5253004925
:1001D0004E464F004543484F0047322F4733206279
:1001E000616420706172616D65746572730A0020CC
:1001F0006F6620004D424C2047323920706F696E87
:1002000074200059206F7574206F662072616E67CC
:10021000652028312D33292E0A0058206F7574204F
:100220006F662072616E67652028312D33292E0A92
:10023000004D6573682070726F62696E6720646F2D
:100240006E652E0A005374617274206D65736820A8
:1002500070726F62696E6720776974682022473216
:1002600039205331222066697273742E0A00473296
:10027000392053320053746174653A20004D657320
:100280006820626564206C6576656C696E672068BD
:100290006173206E6F20646174612E0A0053206FB9
:1002A0007574206F662072616E67652028302D3569
:1002B000292E0A004D65736820706F696E74206383
:1002C000616E6E6F74206265207265736F6C766507
:1002D000640A005072696E742074696D653A20007A
:1002E00050726F7465637465642050696E0A006FA4
:1002F0006E2E0A006F66662E0A004732362044656D
:1003000062756720006D0046696C616D656E7420D2
:10031000757365643A200053746174733A20002C3D
:10032000204C6F6E67657374206A6F623A200054C8
:100330006F74616C2074696D653A20005374617448
:10034000733A20002C204661696C65643A20002CC9
:100350002046696E69736865643A20005072696E60
:1003600074733A200053746174733A2000D401CF3F
:1003700001C801C101B3016F66660044454255479B
:100380003A004B494C4C45442E20004D313133202E
:1003900053006F6B0020573A0020573A00454D45F7
:1003A0005247454E43595F504152534552004341D5
:1003B00053455F4C494748545F4252494748544E61
:1003C00045535300544F47474C455F4C49474854A9
:1003D0005300534F4654574152455F504F57455273
:1003E000004255494C445F50455243454E54004CE1
:1003F0004556454C494E475F44415441005A5F5071
:10040000524F4245004155544F4C4556454C0050C3
:1004100052494E545F4A4F420050524F4752455343
:1004200053004155544F5245504F52545F54454D1F
:100430005000564F4C554D45545249430045455088
:10044000524F4D0053455249414C5F584F4E5F58F3
:100450004F4646004649524D574152455F4E414D29
:10046000453A4D61726C696E20312E312E3820284C
:100470004769746875622920534F555243455F435D
:100480004F44455F55524C3A68747470733A2F2F3D
:100490006769746875622E636F6D2F4D61726C6948
:1004A0006E4669726D776172652F4D61726C696E0F
:1004B0002050524F544F434F4C5F56455253494F73
:1004C0004E3A312E30204D414348494E455F5459F4
:1004D00050453A4A756C6961203230313820457890
:1004E00074656E6465642045585452554445525FA6
:1004F000434F554E543A3120555549443A6365644B
:1005000065326132662D343161322D343734382D05
:10051000396231322D6335356336326633363766AC
:10052000660A002F2F20007A5F6D61783A200079EB
:100530005F6D61783A2000785F6D696E3A200052F5
:1005400065706F7274696E6720656E6473746F7026
:10055000207374617475730A0053657474696E67EF
:100560002054726176656C20416363656C657261CD
:1005700074696F6E3A200053657474696E67205217
:1005800065747261637420416363656C6572617444
:10059000696F6E3A200053657474696E67205072FB
:1005A000696E7420416363656C65726174696F6E16
:1005B0003A200053657474696E67205072696E74D6
:1005C00020616E642054726176656C2041636365BE
:1005D0006C65726174696F6E3A20000001363726CF
:1005E00003FF3C3D38FF0F2E303EFF13FF0C080980
:1005F000FFFFFF1A1C18FFFF08440AFF43FFFFFF1D
:10060000FFFFFF20643A0020693A0020703A00435F
:10061000290A0061626C656420286D696E2074652A
:100620006D702000436F6C6420657874727564652A
:100630007320617265200023646566696E65202001
:1006400044454641554C545F4B6420002364656625
:10065000696E65202044454641554C545F4B6920E6
:100660000023646566696E65202044454641554C0B
:10067000545F4B702000504944204175746F74756D
:100680006E652066696E69736865642120507574B3
:1006900020746865206C617374204B702C204B694A
:1006A00020616E64204B6420636F6E7374616E749E
:1006B000732066726F6D2062656C6F7720696E744F
:1006C0006F20436F6E66696775726174696F6E2E15
:1006D000680A00504944204175746F74756E652036
:1006E0006661696C6564212074696D656F75740A53
:1006F00000544845524D414C2052554E41574159A6
:1007000000546865726D616C2052756E6177617915
:100710000048656174696E67206661696C65640094
:1007200048656174696E67206661696C6564005034
:100730004944204175746F74756E65206661696CFB
:100740006564212054656D706572617475726520F1
:10075000746F6F20686967680A00204B643A200054
:10076000204B693A2000204B703A20000A20436C4D
:10077000617373696320504944200A002054753A1C
:100780002000204B753A2000206D61783A2000202F
:100790006D696E3A200020643A200020626961731E
:1007A0003A2000426564204C6576656C696E67206E
:1007B000004661696C656420746F20656E61626CCF
:1007C0006520426564204C6576656C696E670A0039
:1007D0004D65736820426564204C6576656C2064C5
:1007E0006174613A0A004D65736820706F696E74B8
:1007F0002063616E6E6F74206265207265736F6C2A
:100800007665640A004D34323120696E636F72720E
:1008100065637420706172616D65746572207573B3
:100820006167650A00546F6F206661722066726F9F
:100830006D207265666572656E636520706F696EA6
:10084000740A004163746976652045787472756432
:1008500065723A2000556E6B6E6F776E20636F6D18
:100860006D616E643A202200696E206D6F76655F5F
:10087000746F282920666565645F76616C756520F4
:10088000666F722058593A002C2065793D00292066
:100890002D3E202865783D002C2073793D002043B3
:1008A0006F6E6E656374696E672077697468207611
:1008B0006572746963616C206C696E652028737859
:1008C0003D002C2065793D0029202D3E20286578AB
:1008D0003D002C2073793D0020436F6E6E6563747C
:1008E000696E67207769746820686F72697A6F6EC5
:1008F00074616C206C696E65202873783D002C2033
:1009000079693D00202020446F696E672063697219
:10091000636C652061743A202878693D003F53700C
:100920006563696669656420582C5920636F6F722E
:1009300064696E617465206F7574206F6620626FE4
:10094000756E64732E0A003F2852296570656174C4
:100950002076616C7565206E6F7420706C617573A4
:1009600069626C653B206D757374206265206174EB
:10097000206C6561737420312E0A003F285229656E
:1009800070656174206D7573742062652073706585
:10099000636966696564207768656E206E6F742090
:1009A0007573696E6720616E204C43442E0A003FC8
:1009B000537065636966696564206E6F7A7A6C65E9
:1009C0002074656D7065726174757265206E6F74E8
:1009D00020706C61757369626C652E0A003F5370FC
:1009E000656369666965642066696C616D656E74CE
:1009F0002073697A65206E6F7420706C61757369FD
:100A0000626C652E0A003F537065636966696564B0
:100A1000207072696D65206C656E677468206E6FFA
:100A20007420706C61757369626C652E0A003F50AA
:100A300072696D65206C656E677468206D7573747E
:100A400020626520737065636966696564207768F4
:100A5000656E206E6F74207573696E6720616E20FD
:100A60004C43442E0A003F537065636966696564B0
:100A7000206E6F7A7A6C652073697A65206E6F7468
:100A800020706C61757369626C652E0A003F53704B
:100A9000656369666965642052657472616374692F
:100AA0006F6E204D756C7469706C696572206E6F25
:100AB0007420706C61757369626C652E0A003F5218
:100AC000657472616374696F6E204D756C746970C2
:100AD0006C696572206D7573742062652073706532
:100AE0006369666965642E0A003F537065636966D1
:100AF000696564206C6179657220686569676874EE
:100B0000206E6F7420706C61757369626C652E0A5B
:100B1000003F53706563696669656420626564209F
:100B200074656D7065726174757265206E6F742086
:100B3000706C61757369626C652E0A0047323620ED
:100B4000636F6D6D616E6420737461727465642E81
:100B50002057616974696E6720666F7220686561ED
:100B60007465722873292E0A002569730025696D42
:100B700020256973002569682025696D2025697322
:100B800000256964202569682025696D2025697321
:100B90000025697920256964202569682025696D0B
:100BA0002025697300656E7175657565696E6720CE
:100BB00022004C696E65204E756D62657220697306
:100BC000206E6F74204C617374204C696E65204EEA
:100BD000756D6265722B312C204C617374204C69E9
:100BE0006E653A20004B494C4C45442E2000507213
:100BF000696E7465722073746F70706564206475BB
:100C00006520746F206572726F72732E204669784A
:100C100020746865206572726F7220616E64207541
:100C20007365204D39393920746F20726573746192
:100C300072742E202854656D7065726174757265CA
:100C40002069732072657365742E20536574206962
:100C50007420616674657220726573746172746960
:100C60006E67290A004E6F20436865636B73756D6C
:100C70002077697468206C696E65206E756D626599
:100C8000722C204C617374204C696E653A200063AD
:100C90006865636B73756D206D69736D61746368EE
:100CA0002C204C617374204C696E653A20004D31E4
:100CB00031300020496E76616C6964206578747209
:100CC0007564657220000000000000000000000054
:100CD00000000000824300007A430000964324F4A1
:100CE000D43050C38E20C2A24017828B7011127A6A
:100CF000910D816CD90AA861E108C7586607615156
:100D000043061E4B5D05C145A7041A411104093D68
:100D10009803713931034036DB0265339102D430D8
:100D20005402802E1D02632CEE01752AC501B028E5
:100D3000A001102781018F2564012B244B01E022A3
:100D40003401AC211F018D200D01801FFC00841E89
:100D5000ED00971DDF00B81CD200E61BC600201B6B
:100D6000BC00641AB200B219A8000A19A0006A18DF
:100D70009900D117910040178B00B51684003116E9
:100D80007E00B31579003A157300C7146F0058142C
:100D90006A00EE1366008813630025135E00C71215
:100DA0005B006C12570015125400C11151007011F4
:100DB0004F0021114B00D61049008D1047004610FE
:100DC000440002104200C00F4000800F3E00420F5E
:100DD0003C00060F3B00CB0E3800930E37005C0E34
:100DE0003500270E3400F30D3200C10D3100900D97
:100DF0003000600D2E00320D2D00050D2C00D90C99
:100E00002B00AE0C2900850C29005C0C2700350C4A
:100E100027000E0C2600E80B2400C40B2400A00BB6
:100E200023007D0B23005A0B2100390B2100180BE6
:100E30002000F80A1F00D90A1E00BB0A1E009D0AE6
:100E40001D00800A1D00630A1C00470A1B002C0AB3
:100E50001B00110A1A00F7091A00DD091900C4095C
:100E60001900AB091900920917007B0918006309E2
:100E700017004C09160036091600200916000A0949
:100E80001500F5081500E0081400CC081400B80897
:100E90001400A4081400900813007D0812006B08C9
:100EA00013005808120046081200340811002308E5
:100EB00011001208110001081100F0071000E007EE
:100EC0001000D0071000C0071000B0070F00A107E6
:100ED000100091070E0083070F0074070F006507CD
:100EE0000E0057070E0049070E003B070D002E07A6
:100EF0000E0020070D0013070D0006070D00F90670
:100F00000C00ED060D00E0060C00D4060C00C8062F
:100F10000C00BC060C00B0060C00A4060B009906E1
:100F20000C008D060B0082060B0077060B006C068A
:100F30000B0061060A0057060B004C060A00420629
:100F40000A0038060A002E060A0024060A001A06BD
:100F50000A001006090007060A00FD050900F4054D
:100F60000900EB050900E2050900D9050900D005D3
:100F70000900C7050900BE050900B5050800AD0553
:100F80000800A50509009C050800940508008C05CB
:100F90000800840508007C050800740508006C053D
:100FA0000700650508005D050700560508004E05A9
:100FB0000700470507004005080038050700310510
:100FC00007002A050700230507001C050600160573
:100FD00007000F0507000805060002050700FB04CF
:100FE0000600F5040700EE040600E8040600E2042B
:100FF0000700DB040600D5040600CF040600C90480
:101000000600C3040600BD040600B7040600B104D0
:101010000500AC040600A6040600A00405009B041D
:10102000060095040500900406008A040500850466
:101030000500800406007A040500750405007004AC
:1010400005006B04050066040500610405005C04EE
:10105000050057040500520405004D04050048042E
:101060000500430405003E0404003A04050035046D
:101070000500300404002C040500270404002304A8
:1010800005001E0404001A040400160405001104DF
:1010900004000D0404000904050004040400000415
:1010A0000400FC030400F8030400F4030400F0034C
:1010B0000400EC030400E8030400E4030400E0037C
:1010C0000400DC030400D8030400D4030400D003AC
:1010D0000400CC030400C8030300C503030024F488
:1010E00004D9201BC40C5C0E9804C4095F02650778
:1010F0007101F405F900FB04B30048048700C10343
:1011000069005803550003034500BE023A008402FB
:10111000310053022A002902250004022000E401C4
:101120001C00C8011900AF011700980114008401C8
:101130001300710110006101100051010E00430104
:101140000D0036010B002B010B0020010B001501D7
:1011500009000C01090003010800FB000800F3006E
:101160000800EB000700E4000600DE000600D800DF
:101170000600D2000600CC000500C7000500C20032
:101180000500BD000400B9000400B5000400B10072
:101190000400AD000400A9000400A5000300A200A3
:1011A00003009F0004009B000300980003009500CB
:1011B000020093000300900003008D0002008B00EA
:1011C0000300880002008600020084000300810002
:1011D00002007F0002007D0002007B000200790017
:1011E0000200770001007600020074000200720025
:1011F0000100710002006F0002006D0001006C0030
:1012000002006A0001006900020067000100660038
:10121000010065000100640002006200010061003D
:101220000100600001005F0002005D0001005C0041
:1012300001005B0001005A00010059000100580044
:101240000100570001005600010055000100540044
:101250000100530000005300010052000100510042
:101260000100500001004F0001004E0000004E0040
:1012700001004D0001004C0001004B0000004B003C
:1012800001004A0001004900010048000000480038
:101290000100470001004600000046000100450033
:1012A000000045000100440001004300000043002D
:1012B0000100420000004200010041000000410026
:1012C0000100400001003F0000003F0001003E001F
:1012D00000003E0001003D0000003D0001003C0018
:1012E00000003C0000003C0001003B0000003B000F
:1012F00001003A0000003A00010039000000390006
:1013000001003800000038000000380001003700FC
:1013100000003700010036000000360000003600F3
:1013200001003500000035000000350001003400E8
:1013300000003400000034000100330000003300DE
:1013400000003300010032000000320000003200D3
:1013500001003100000031000000310001003000C8
:10136000000030000000300001002F0000002F00BE
:1013700000002F0000002F0001002E0000002E00B2
:1013800000002E0001002D0000002D0000002D00A7
:1013900000002D0001002C0000002C0000002C009B
:1013A00000002C0001002B0000002B0000002B008F
:1013B00000002B0001002A0000002A0000002A0083
:1013C00000002A0001002900000029000000290077
:1013D000000029000000290001002800000028006A
:1013E000000028000000280000002800010027005D
:1013F0000000270000002700000027000000270051
:101400000100260000002600000026000000260043
:101410000000260001002500000025000000250036
:101420000000250000002500000025000100240028
:10143000000024000000240000002400000024001C
:10144000010023000000230000002300000023000F
:101450000000230000002300000023000100220000
:1014600000002200000022000000220000002200F4
:1014700000002200010021000000210000002100E6
:1014800000002100000021000000210000002100D8
:1014900001002000000020000000200000002000CB
:1014A00000002000000020000000200000002000BC
:1014B00001001F0000001F0000001F0000001F00AF
:1014C00000001F0000001F0000001F0001001E00A0
:1014D00000001E0000001E0000001E0000006265EB
:1014E000640A002C2073797374656D2073746F70B7
:1014F00070656421204865617465725F49443A20D3
:101500000048656174696E67206661696C65640096
:1015100048656174696E67206661696C656400483E
:10152000656174696E67206661696C656400486511
:101530006174696E67206661696C656400206E6F16
:101540007420656E74657265642E0A000A4D6561CB
:10155000737572656420706F696E74733A0A005A0D
:10156000206F66667365743A20004E756D20582CA6
:10157000593A20332C330A00205A3A0020423A00CC
:1015800020436F756E7420413A0020453A00205A7E
:101590003A0020593A00583A003A004361703A0044
:1015A000205A00205900580020204D61783A200030
:1015B000205A00205900580020204D696E3A200022
:1015C0004F6E20004F666600536F667420656E6430
:1015D00073746F70733A20004175746F0020452F4B
:1015E000443D00416476616E6365204B3D004E6F63
:1015F0002063617365206C696768740A00000020CD
:10160000002300260029002C002F003200000100DA
:10161000000301060109010505050507050808087D
:1016200008020202020A0A08080404040401010173
:10163000010101010103030303030303030407077B
:10164000070C0C0C0C0C0C0C0C0202020206060619
:1016500006060606060B0B0B0B0B0B0B0B01021001
:1016600020200808102040102040800201020108BC
:10167000040201010204081020408080402010086C
:1016800004020180040201804020100804020108C5
:101690000402010102040810204080010204081025
:1016A00020408000000A0B02090C0D0E08070304FD
:1016B0000100000000000000000000000000000029
:1016C0000000000000000000000000000000001208
:1016D00011100000000000000000000000000000E9
:1016E0000000000000000000004B494C4C45442E17
:1016F0002000202D20496E76616C69642065787425
:101700007275646572206E756D62657220210A00C3
:101710002020506C616E6E6572427566666572421D
:10172000797465733A20002046726565204D656DB9
:101730006F72793A2000436F6D70696C65643A206E
:101740004A756C20323020323031380A00207C203B
:10175000417574686F723A2056696A6179205261E6
:10176000676861760A00323031372D31322D3235DB
:101770002031323A303000204C617374205570644F
:10178000617465643A2000312E312E380A004D61B3
:10179000726C696E0020536F6674776172652052B7
:1017A000657365740A00205761746368646F67200D
:1017B00052657365740A002042726F776E206F75F0
:1017C000742052657365740A002045787465726EE2
:1017D000616C2052657365740A00506F77657255AD
:1017E000700A0073746172740A00205A3A0020591A
:1017F0003A0020583A00656E6473746F7073206805
:1018000069743A20001000600350012C01900122FD
:1018100001D001180110020E0170020401E002FA69
:10182000006003F0000004E600B004DC00A005D274
:1018300000B006C8000008BE00A009B400800BAAD2
:1018400000D00DA00090109600C0138C007017827D
:1018500000901B780010206E00C0246400E02D5022
:101860000080353C00A03A2800A03D1400003F0055
:1018700000A03FECFF4572723A204D494E54454D51
:101880005020424544004572723A204D494E54451D
:101890004D50004D494E54454D5020747269676754
:1018A00065726564004572723A204D415854454D49
:1018B0005020424544004572723A204D41585445EB
:1018C0004D50004D415854454D5020747269676722
:1018D0006572656400202F002042403A0020403AA3
:1018E0000000002100240027002A002D00300033D2
:1018F0000001010000040107010A01000022002587
:101900000028002B002E00310034000201000005E9
:101910000108010B01627573793A20706175736576
:101920006420666F7220696E7075740A0062757348
:10193000793A2070617573656420666F72207573E3
:1019400065720A00627573793A2070726F6365730D
:1019500073696E670A004B494C4C45442E20004B7E
:10196000494C4C2063617573656420627920746F03
:101970006F206D75636820696E6163746976652098
:1019800074696D65202D2063757272656E742063B5
:101990006F6D6D616E643A20005072696E7465728D
:1019A0002068616C7465642E206B696C6C2829203A
:1019B00063616C6C6564210A000000000000007A1D
:1019C000430000964300004842000048420000A047
:1019D00041000000005761726E696E673A20486FDF
:1019E0006D696E672042756D702044697669736F0A
:1019F00072203C20310A000202040000A0400000D6
:101A0000A040000000400000824300007A43000034
:101A10009643FF01014572726F7220777269746993
:101A20006E6720746F20454550524F4D210A0029A2
:101A30000A002062797465733B206372632000534F
:101A4000657474696E67732053746F7265642028BF
:101A50000048617264636F64656420446566617503
:101A60006C742053657474696E6773204C6F616485
:101A700065640A00E8030000E8030000320000008B
:101A80001027000000004843000048430000A04128
:101A9000000034420000204300002043F0F77B4464
:101AA00000008C4320520020204D393030204B0064
:101AB0004C696E65617220416476616E63653A0AB5
:101AC0000020440020490020204D333031205000B8
:101AD0005049442073657474696E67733A0A002034
:101AE0005A00205900202047323920533320580013
:101AF00020204D3432302053004D657368204265FC
:101B000064204C6576656C696E673A0A00205A005D
:101B100020590020204D323036205800486F6D6526
:101B2000206F66667365743A0A00204500205A00EB
:101B300020590020580020420020540020204D321F
:101B40003035205300416476616E6365643A2053FA
:101B50003C6D696E5F66656564726174653E2054B4
:101B60003C6D696E5F74726176656C5F6665656415
:101B7000726174653E20423C6D696E5F7365676D8E
:101B8000656E745F74696D655F75733E20583C6D5A
:101B900061785F78795F6A65726B3E205A3C6D614F
:101BA000785F7A5F6A65726B3E20453C6D61785F55
:101BB000655F6A65726B3E0A002054002052002067
:101BC000204D323034205000416363656C65726192
:101BD00074696F6E2028756E6974732F7332293A99
:101BE00020503C7072696E745F616363656C3E2067
:101BF000523C726574726163745F616363656C3ECD
:101C000020543C74726176656C5F616363656C3E01
:101C10000A00204500205A0020590020204D323073
:101C2000312058004D6178696D756D2041636365A1
:101C30006C65726174696F6E2028756E6974732F9C
:101C40007332293A0A00204500205A00205900200A
:101C5000204D3230332058004D6178696D756D200C
:101C60006665656472617465732028756E69747346
:101C70002F73293A0A00204500205A0020590020DD
:101C8000204D39322058005374657073207065728E
:101C900020756E69743A0A0020204D32303020449D
:101CA000300A0020204D3230302044002044697337
:101CB00061626C65640A0046696C616D656E7420D2
:101CC00073657474696E67733A002020473231205F
:101CD0002020203B20556E69747320696E206D6D45
:101CE0000A002066697273740A005A00590058008D
:101CF000486F6D6520006563686F3A004572726FCA
:101D0000723A00544845524D414C2052554E41576D
:101D1000415900546865726D616C2052756E61772F
:101D200061790020746F6F206C6F6E672065787426
:101D3000727573696F6E2070726576656E74656416
:101D40000A0020636F6C6420657874727573696F24
:101D50006E2070726576656E7465640A0020286373
:101D6000616C63756C6174656429210A0020213DF2
:101D70002000454550524F4D20435243206D69731A
:101D80006D61746368202D202873746F72656429F7
:101D90002000290A002062797465733B2063726316
:101DA00020002073746F7265642073657474696EAB
:101DB00067732072657472696576656420280020F7
:101DC0004D61726C696E3D563437290A00284545CD
:101DD00050524F4D3D00454550524F4D2076657253
:101DE00073696F6E206D69736D6174636820005252
:101DF0006573656E643A20006F6B0020746F6F200E
:101E00006C6F6E6720657874727573696F6E207081
:101E1000726576656E7465640A0020636F6C642079
:101E2000657874727573696F6E2070726576656E11
:101E30007465640A0000FE9511241FBECFEFD1E245
:101E4000DEBFCDBF00E00CBF13E0A0E0B2E0E4E8ED
:101E5000F6E401E00BBF02C007900D92AE30B1076F
:101E6000D9F72EE0AEE0B3E001C01D92AF32B20769
:101E7000E1F71FE0CCE1DFE000E006C021970109B7
:101E8000802FFE010E94EBA2CB31D10780E0080732
:101E9000A9F70E9421910C9440A30C9400002F926A
:101EA0003F924F925F926F927F928F929F92AF92EA
:101EB000BF92CF92DF92EF92FF920F931F93CF9337
:101EC000DF93CDB7DEB7C358D1090FB6F894DEBFA4
:101ED0000FBECDBF81E090E09093BD0B8093BC0B13
:101EE0008091D8098D3411F40C94DF18843511F4E5
:101EF0000C946E27873411F00C94AA278091D60990
:101F00009091D7098B31910509F4C2C5B4F484309E
:101F100091053CF482309105CCF597FF30C00C94CC
:101F2000C1278430910509F476C54A9711F00C94C5
:101F3000C1270E949B330C94C1278A32910511F46A
:101F40000C9450184CF48C31910509F436C64D9719
:101F500009F438C60C94C1278B35910511F40C9403
:101F6000D0178C35910511F40C94D5178A3591054D
:101F700011F00C94C127109221030C94C127809179
:101F8000100281110C94C8270C94C12720911002D3
:101F9000222311F40C94C12711E0029709F010E0FC
:101FA0000E944C5082E50E940232882309F436C117
:101FB0000E94A0316B017C0140909F0C5090A00CBE
:101FC0006090A10C7090A20C2091A30C3091A40CF5
:101FD0004091A50C5091A60C2AA73BA74CA75DA742
:101FE0008091790C90917A0CA0917B0CB0917C0C33
:101FF0008EA79FA7A8ABB9AB20917D0C30917E0C2A
:1020000040917F0C5091800C2AAF3BAF4CAF5DAF3D
:1020100020E030E0A901C701B6010E94989B882307
:1020200009F4DFC4A30192016EA57FA588A999A92F
:102030000E94989B81110DC02AA53BA54CA55DA5CA
:102040006AAD7BAD8CAD9DAD0E94989B882309F451
:10205000C8C420E030E0A901C701B6010E94989BE6
:10206000881F8827881F18130BC080E090E0A0E825
:10207000BFE326968CAF9DAFAEAFBFAF26970AC029
:1020800020E030E040E85FEB26962CAF3DAF4EAF4E
:102090005FAF2697A30192016EA57FA588A999A994
:1020A0000E9401A06EAB7FAB88AF99AF2AA53BA57C
:1020B0004CA55DA56AAD7BAD8CAD9DAD0E9401A028
:1020C00022966CAF7DAF8EAF9FAF22972EA93FA90E
:1020D00048AD59ADCA01B9010E94FD9B4B015C019D
:1020E00022962CAD3DAD4EAD5FAD2297CA01B90130
:1020F0000E94FD9B9B01AC01C501B4010E9402A09E
:102100000E946DA26AAB7BAB8CAB9DAB20E030E054
:1021100040E05FE30E94FD9B4B015C01A70196013B
:10212000C701B6010E94FD9B6B017C01A5019401D2
:10213000C501B4010E94FD9B9B01AC01C701B60122
:102140000E9401A00E946DA29B01AC0126966CAD7D
:102150007DAD8EAD9FAD26970E94FD9B4B015C012E
:102160002EA53FA548A959A9C301B2010E9402A00A
:1021700020E030E040E05FE30E94FD9B6B017C01CA
:1021800022966CAD7DAD8EAD9FAD229790582AA959
:102190003BA94CA95DA90E94DEA09B01AC01C50131
:1021A000B4010E94FD9B9B01AC01C701B6010E94D6
:1021B00002A0A30192010E9401A06B017C012AAD43
:1021C0003BAD4CAD5DAD6AA57BA58CA59DA50E94E0
:1021D00002A020E030E040E05FE30E94FD9B2B0185
:1021E0003C012AA93BA94CA95DA96EA97FA988AD8C
:1021F00099AD0E94DEA09B01AC01C501B4010E9413
:10220000FD9B9B01AC01C301B2010E9402A02AA563
:102210003BA54CA55DA50E9401A014C089E40E94C5
:102220000232882329F00E94A0316B017C0103C097
:10223000C12CD12C76018AE40E9402328823D9F085
:102240000E94A0316AAF7BAF8CAF9DAF20E030E041
:10225000A901C701B6010E94989B81111AC020E014
:1022600030E0A9016AAD7BAD8CAD9DAD0E94989B1D
:1022700081110FC0B6C320E030E0A901C701B6014B
:102280000E94989B882309F4ACC31AAE1BAE1CAE07
:102290001DAED701C601B0588AA79BA7ACA7BDA7A2
:1022A0002AAD3BAD4CAD5DAD50582EA73FA748AB16
:1022B00059AB9C01AD01BC01CD010E94FD9B4B01BE
:1022C0005C012EA53FA548A959A9CA01B9010E94E0
:1022D000FD9B9B01AC01C501B4010E9402A00E94BC
:1022E0006DA266966CAF7DAF8EAF9FAF6697809103
:1022F0009F0C9091A00CA091A10CB091A20C8AAB64
:102300009BABACABBDABA7019601BC01CD010E945C
:1023100002A026966CAF7DAF8EAF9FAF269720911F
:10232000A30C3091A40C4091A50C5091A60C2296C0
:102330002CAF3DAF4EAF5FAF22972AAD3BAD4CAD5A
:102340005DAD22966CAD7DAD8EAD9FAD22970E94A6
:1023500002A02A966CAF7DAF8EAF9FAF2A97809177
:10236000790C90917A0CA0917B0CB0917C0C2E96FC
:102370008CAF9DAFAEAFBFAF2E9726962CAD3DADC7
:102380004EAD5FAD2697BC01CD010E9401A06B014F
:102390007C0120917D0C30917E0C40917F0C5091FE
:1023A000800C62962CAF3DAF4EAF5FAF62972A961E
:1023B0002CAD3DAD4EAD5FAD2A9762966CAD7DAD57
:1023C0008EAD9FAD62970E9401A04B015C01809190
:1023D000A70C9091A80CA091A90CB091AA0C6E9694
:1023E0008CAF9DAFAEAFBFAF6E979C01AD0160915A
:1023F000810C7091820C8091830C9091840C0E94CE
:1024000001A06EAB7FAB88AF99AF2091850C309166
:10241000860C4091870C5091880C6A962CAF3DAF8A
:102420004EAF5FAF6A978091AB0C9091AC0CA091CE
:10243000AD0CB091AE0CA2968CAF9DAFAEAFBFAF5E
:10244000A297A70196016AA57BA58CA59DA50E94D0
:10245000FD9B2B013C01A50194016EA57FA588A9D8
:1024600099A90E94FD9B9B01AC01C301B2010E948E
:1024700002A02B013C01A50194016AA57BA58CA5B6
:102480009DA50E94FD9B4B015C01A70196016EA5D5
:102490007FA588A999A90E94FD9B9B01AC01C5015C
:1024A000B4010E9401A0A30192010E9475A06B01DA
:1024B0007C0120E030E0A9010E94989B87FF0AC0C0
:1024C0002BED3FE049EC50E4C701B6010E9402A0A9
:1024D0006B017C01112351F02BED3FE049EC50E4FE
:1024E000C701B6010E9401A06B017C0120E030E031
:1024F000A901C701B6010E94989B811126C02E96A2
:102500002CAD3DAD4EAD5FAD2E976AA97BA98CA9D0
:102510009DA90E94989B811118C062962CAD3DAD7B
:102520004EAD5FAD629722966CAD7DAD8EAD9FAD29
:1025300022970E94989B811108C0ABEDCA2EAFE094
:10254000DA2EA9ECEA2EA0E4FA2E66962CAD3DAD6B
:102550004EAD5FAD6697C701B6010E94FD9B9B0122
:10256000AC010E94FD9B4B015C012EA93FA948AD27
:1025700059ADCA01B9010E94FD9B9B01AC01C50187
:10258000B4010E9402A00E946DA24B015C012FE6E3
:1025900032E143E85AE30E94989B87FD1EC2C501C1
:1025A000B4010E9477A10E944BA11B01672B19F473
:1025B00022242394312CB10180E090E00E949C9B66
:1025C0004B015C019B01AC01C701B6010E94DEA07A
:1025D0006AAB7BAB8CAB9DABA50194016EA97FA9C7
:1025E00088AD99AD0E94DEA066966CAF7DAF8EAFD0
:1025F0009FAF6697A2962CAD3DAD4EAD5FADA29755
:102600006A966CAD7DAD8EAD9FAD6A970E9401A0BC
:10261000A50194010E94DEA06A966CAF7DAF8EAFDB
:102620009FAF6A972AA93BA94CA95DA9CA01B90124
:102630000E94FD9B20E030E040E05FE30E94FD9BB4
:102640009B01AC0160E070E080E89FE30E9401A084
:102650002E966CAF7DAF8EAF9FAF2E976E962CAD42
:102660003DAD4EAD5FAD6E9729873A874B875C874E
:10267000A2968CAD9DADAEADBFADA2978D879E8766
:10268000AF87B88B6091410270914202072E000C17
:10269000880B990B0E949E9B20914302309144022B
:1026A00040914502509146020E94FD9B2AE037ED81
:1026B00043E25CE30E94FD9B6AA37BA38CA39DA3E2
:1026C0000E94EC559B01AC0128533F4F4F4F5F4F89
:1026D00062962CAF3DAF4EAF5FAF62974AA45BA44A
:1026E0006CA47DA441E050E05FAF4EAF59E15EAB1A
:1026F000AEADBFADA215B30509F434C10E942340AD
:102700000E94EC55DC01CB0162962CAD3DAD4EAD87
:102710005FAD6297821B930BA40BB50BB7FD10C086
:102720000E94EC559B01AC0128533F4F4F4F5F4F28
:1027300062962CAF3DAF4EAF5FAF62970E94F861DB
:102740003EA931503EAB332309F441C02E962CAD47
:102750003DAD4EAD5FAD2E976EA57FA588A999A919
:102760000E94FD9B6B017C012AA93BA94CA95DA994
:10277000B201C3010E94FD9BA70196010E9402A025
:102780007B018C012E962CAD3DAD4EAD5FAD2E97ED
:10279000B201C3010E94FD9B4B015C012AA93BA928
:1027A0004CA95DA96EA57FA588A999A90E94FD9B4A
:1027B0009B01AC01C501B4010E9401A02B013C01A9
:1027C000C701D8018EA79FA7A8ABB9AB51C04EAD2A
:1027D0005FADBA0180E090E00E949C9B2AA93BA9D2
:1027E0004CA95DA90E94FD9B4B015C010E94DBA0EE
:1027F0006B017C01C501B4010E9463A24B015C0125
:10280000A70196016AA57BA58CA59DA50E94FD9BAD
:102810002B013C01A50194016AAD7BAD8CAD9DAD52
:102820000E94FD9B9B01AC01C301B2010E9402A06A
:102830002B013C01A50194016AA57BA58CA59DA552
:102840000E94FD9B4B015C01A70196016AAD7BAD27
:102850008CAD9DAD0E94FD9B9B01AC01C501B401F7
:102860000E9401A06EA77FA788AB99AB59E15EAB30
:102870009201A30126966CAD7DAD8EAD9FAD2697DE
:102880000E9402A069837A838B839C832EA53FA537
:1028900048A959A92A966CAD7DAD8EAD9FAD2A97FA
:1028A0000E9402A06D837E838F83988766962CADED
:1028B0003DAD4EAD5FAD669769857A858B859C850C
:1028C0000E9402A069877A878B879C876A962CADC5
:1028D0003DAD4EAD5FAD6A976D857E858F859889DC
:1028E0000E9402A06D877E878F87988B809140021F
:1028F000882321F0CE0101960E945C60E090F10DEA
:1029000089819A81AB81BC818E8B9F8BA88FB98F77
:102910008D819E81AF81B8858A8F9B8FAC8FBD8F53
:1029200089859A85AB85BC858E8F9F8FA8A3B9A317
:10293000CE0146960E94892E8E010E5D1F4F9E018C
:10294000235F3F4FAE01425E5F4FBE01665E7F4F29
:10295000CE0146960E94297F8EAD9FAD01969FAF16
:102960008EAFC6CEE090F10D8091790C90917A0CEB
:10297000A0917B0CB0917C0C8E8B9F8BA88FB98F14
:1029800080917D0C90917E0CA0917F0CB091800C79
:102990008A8F9B8FAC8FBD8F8091810C9091820C20
:1029A000A091830CB091840C8E8F9F8FA8A3B9A3A4
:1029B000CE0146960E94892E8E010E5D1F4F25E89E
:1029C0003CE0AE01425E5F4FBE01665E7F4FCE01CE
:1029D00046960E94297F0E9491330E94912E0C946A
:1029E000C127ECEFFCE184918F010F5F1F4F88231B
:1029F00021F00E949C2EF801F6CFE9EDF1E08491E0
:102A00008F010F5F1F4F882311F40C94C1270E9480
:102A10009C2EF801F4CF80E50E940232882329F031
:102A20000E94B02D6B017C0103C0C12CD12C76011A
:102A300083E50E940232882361F00E94A03120E0E9
:102A400030E04AE754E40E94FD9B0E944BA16B01D9
:102A50007C010E9474420E94912E8091C30B909140
:102A6000C40BA091C50BB091C60BC80ED91EEA1EAF
:102A7000FB1E0E94EC55DC01CB018C199D09AE09AF
:102A8000BF09B7FD02C00C94C1270E94F861F1CFC5
:102A90000E94837B81110C94C12780E090E0A0E22A
:102AA000B1E489839A83AB83BC8380E090E0A0E7A4
:102AB000B3E48D839E83AF83B88780E090E0A0EA83
:102AC000B1E489879A87AB87BC8780E50E94023290
:102AD000882319F00E94703101C060E080E090E02E
:102AE000A8ECB2E48EA39FA3A8A7B9A780E090E0CA
:102AF000A0EAB0E48AA39BA3ACA3BDA3613019F004
:102B0000623039F029C0BE016E5D7F4FCE0109965B
:102B100044C029853A854B855C856091A70C7091EE
:102B2000A80C8091A90C9091AA0C0E9402A06B01A4
:102B30007C0120E030E046E953E40E94989B87FD49
:102B400006C0C12CD12CE6E9EE2EE3E4FE2ECE8A9F
:102B5000DF8AE88EF98E1CC0E984FA840B851C8517
:102B6000A090A70CB090A80CC090A90CD090AA0C73
:102B70009501A601B701C8010E9428A2181614F0F9
:102B800075018601C701D8018E8B9F8BA88FB98FE5
:102B9000BE016E5D7F4FCE0146960E940C539E0192
:102BA0002A5D3F4F47EA5CE0BE016B5F7F4FCE017D
:102BB00001960E9428520C94C12780E00E94135372
:102BC0000C94C12783E50E940232882321F00E94E1
:102BD0008031282F01C020E0022F10E006301105BF
:102BE00070F0EDE9F2E084918F010F5F1F4F8823B1
:102BF00011F40C94C1270E949C2EF801F4CF2230CE
:102C000009F446C0A8F42223F1F0213009F0A7C14D
:102C10000E94B18E10920102109200028EE692E0A4
:102C200090930F0380930E030E94A32E0C94C12750
:102C3000243009F485C108F41BC1253009F08FC187
:102C40000E94D0518CC18091FE0D882399F0809113
:102C5000220C811103C067E872E002C063E872E0F1
:102C600085E792E00E940F7D8AE00E949C2E0E94E0
:102C7000984F75C1EDE7F2E084917F01BFEFEB1A49
:102C8000FB0A882309F46BC10E949C2EF701F4CF44
:102C9000809100029091010297FF0EC0E5E4F2E0FE
:102CA00084918F010F5F1F4F882311F40C94C1276B
:102CB0000E949C2EF801F4CF0097A1F4809140026D
:102CC0008093220319821A821B821C821E8A1F8A09
:102CD000188E198EBE016F5F7F4FCE0146960E94FF
:102CE0000C532AC0815063E00E94CAA280FF02C038
:102CF000291B922F292F990F330BF901EE0FFF1F7C
:102D0000E20FF31FE80FF11D87FDFA95EE0FFF1F8D
:102D1000EE0FFF1FED5FF14F8091A70C9091A80C73
:102D2000A091A90CB091AA0C80839183A283B38354
:102D300080912203809340028091000290910102D1
:102D4000893091050CF068C0109240029C012F5F01
:102D50003F4F309301022093000263E00E94CAA219
:102D600080FF03C022E0291B922F4091A70C5091B5
:102D7000A80C6091A90C7091AA0C4AA35BA36CA348
:102D80007DA319821A821B821C8240E050E060EA17
:102D900070E44E8B5F8B688F798FE4E08E02900138
:102DA0001124A9014B50534F6A0154E09502900140
:102DB0001124C9018F5F924F7C019E012F5F3F4F0D
:102DC000AE014A5E5F4FB6010E94285219821A82F4
:102DD0001B821C82BE016F5F7F4FCE0182960E94D4
:102DE0000C53F70180819181A281B38180939F0C64
:102DF0009093A00CA093A10CB093A20CF60180813B
:102E00009181A281B3818093A30C9093A40CA09391
:102E1000A50CB093A60CA3C080E090E0A0EAB0E4BB
:102E20008093A70C9093A80CA093A90CB093AA0C24
:102E30000E94DB510E9474428FEF9FEF909301023A
:102E400080930002E1E3F2E084917F012FEFE21A28
:102E5000F20A882321F00E949C2EF701F5CF81E031
:102E60008093FE0D0E94135381E00E94B55177C0FC
:102E700088E50E9402328823B1F00E947031FF245D
:102E8000FA94F60E32E03F15A8F4EAE1F2E08491FC
:102E90008F010F5F1F4F882311F40C94C1270E94EC
:102EA0009C2EF801F4CF88E50E949C2E0E9411917F
:102EB0000C94C12789E50E9402328823B1F00E9458
:102EC0007031EE24EA94E60E42E04E15A8F4E3E0F9
:102ED000F2E084918F010F5F1F4F882311F40C944F
:102EE000C1270E949C2EF801F4CF89E50E949C2EF8
:102EF0000E9411910C94C1278AE50E940232882316
:102F0000C1F00E94A0312F2D30E0F901EE0FFF1F1C
:102F1000E20FF31FEE0DF11DE7FCFA95EE0FFF1F18
:102F2000EE0FFF1FED5FF14F608371838283938308
:102F300016C08AE50E949C2E0E9411910C94C12714
:102F40008AE50E9402328823A1F30E94A031609397
:102F5000FF0D7093000E8093010E9093020E0150AE
:102F6000110902301105C0F4609100027091010254
:102F700077FD12C06A30710514F069E070E084EFEB
:102F800091E00E94F67C69E070E08FEE91E00E9493
:102F9000F67C8AE00E949C2E0E948F4E0C94C127E2
:102FA00081E0809321030C94C1270E947442ABE41A
:102FB0002A2EA2E03A2EBBECCB2EBBE0DB2EE12C7E
:102FC000F12C00E010E01AA6D1018D911D010E94A4
:102FD0000232882309F451C00E94A0314B015C01E8
:102FE0000330110559F0F701E05FFC4F208131817A
:102FF000428153810E9401A04B015C01F701E1561F
:10300000F34F2081318142815381C501B4010E9477
:1030100001A02B013C012DEB37E346E855EB0E9464
:1030200028A287FD0AC02DEB37E346E855E3C3012C
:10303000B2010E94989B181604F50330110559F44B
:103040008092AB0C9092AC0CA092AD0CB092AE0CF6
:10305000B1E0BAA712C0A3019201F60160817181AB
:10306000828193810E9402A0D6016D937D938D93FE
:103070009C931397C8010E94282D0F5F1F4FB4E047
:10308000CB0ED11CE4E0EE0EF11C0430110509F06A
:103090009BCFFAA5FF2309F47FCF0E94CC777CCF8A
:1030A00080911002882311F40C94C12789E40E94B6
:1030B0000232F82E882321F00E947031062F01C0C1
:1030C00000E08AE40E940232E82E882331F00E9458
:1030D0007031162FF11004C00AC010E0FF20B1F0CB
:1030E000033010F40C94302CE4EBF2E003C0133006
:1030F000D8F70CC084918F010F5F1F4F882311F404
:103100000C94C1270E949C2EF801F4CF0E944A32F1
:10311000FF2091F024E00202F0011124EF5FF24F52
:1031200080819181A281B3818093790C90937A0CF4
:10313000A0937B0CB0937C0CEE2091F034E0130252
:10314000F0011124EB50F34F80819181A281B38172
:1031500080937D0C90937E0CA0937F0CB093800C99
:1031600080E50E940232882319F00E94913103C049
:1031700080E50E94D33186E40E9402328823D9F090
:103180000E94A0316B017C0120E030E0A9010E9487
:1031900028A2181684F420E030E040E752E4C7018A
:1031A000B6010E94DEA060934302709344028093B4
:1031B0004502909346020E945C870C94C12780913F
:1031C000D6099091D7098837910509F4A9C60CF062
:1031D00084C08C35910509F41DC50CF049C08C34B0
:1031E000910509F4C5C1DCF48F31910509F430C1B2
:1031F0004CF48131910509F41EC1429709F4BCC415
:103200000C94C1278133910509F489C18B34910550
:1032100009F4AAC18A9711F00C94C12740C18235E4
:10322000910509F4A0C4C4F48E34910509F4BEC11B
:103230000CF4B8C18135910511F00C94C1270E949E
:10324000F3590E9474420E944B871092640C1092B2
:10325000630C00E010E070C48435910509F48CC45F
:103260000CF485C48535910509F4B9C40C94C127C3
:103270008E36910509F4DAC2B4F48A36910509F460
:1032800024C454F48836910509F4A1C28936910505
:1032900009F4A6C30C94C1278C36910509F44AC3DE
:1032A0000CF438C4E1C38237910509F43CC53CF401
:1032B0008037910509F442C30CF4CBC247C386376B
:1032C000910509F488C50CF0C5C58337910511F047
:1032D0000C94C127E4E5F4E02CC5823241E0940768
:1032E00009F4B5C70CF047C08B3C910509F48DC6B5
:1032F000ECF48B39910509F490C354F489379105A6
:1033000009F415C68C38910509F44CC30C94C127F7
:10331000883C910509F411C6893C910509F454C60D
:103320008E3B910511F00C94C127BAC3833D9105E2
:1033300009F45DC77CF48D3C910509F4EDC60CF4ED
:1033400081C68E3C910511F00C94C1270E946C4FF0
:103350000C94C1278D3D910509F44CC7823E91051F
:1033600009F44BC78C3D910511F00C94C1270E94C4
:10337000614D0C94C127853AA1E09A0711F40C9491
:10338000D5256CF58336E1E09E0711F40C9468278F
:1033900094F48E3221E0920711F40C94D2218F32F2
:1033A00031E0930711F40C9426228D32914011F0F4
:1033B0000C94C12759C78A3951E0950709F4C2C254
:1033C000843AA1E09A0711F40C9447258039914082
:1033D00011F00C94C1270E9474420C94C127863FBF
:1033E000E1E09E0711F40C94622784F4843F21E00D
:1033F000920711F40C945C2714F00C945F278C3A1C
:10340000914011F40C94B7260C94C127843853E0F2
:10341000950711F40C946527873EA3E09A0711F4F1
:103420000C946B27873F914011F00C94C1270E94A8
:10343000B44C0C94C1275F988A989FB7F8948091F8
:1034400008018E7F809308019FBF12980C94C127BA
:103450008FE09DE00E947A416E8B7F8B888F998FE1
:10346000BE016F5F7F4FCE0146960E94C02DE6EFF2
:10347000FCE184918F010F5F1F4F882321F00E9490
:103480009C2EF801F6CFBE016F5F7F4F83ED92E077
:103490000E940F7D8AE00E949C2E0C94C12783E538
:1034A0000E940232882311F40C94C1270E948031BB
:1034B000E82E80E50E940232882341F00E9470319C
:1034C0008B0177FF02C00C94C12702C00DE010E011
:1034D000902FEBEDF5E088E28E0F2491921729F002
:1034E00031968E13FACF0C94CD27ECEFFCE184914A
:1034F0008F010F5F1F4F882321F00E949C2EF8013F
:10350000F6CFE0EEF2E084918F010F5F1F4F88232A
:1035100011F40C94C1270E949C2EF801F4CFF09076
:103520001C0381E0F826F0921C03EAEFF2E084919C
:103530008F010F5F1F4F882321F00E949C2EF801FE
:10354000F6CFF11003C0E4EFF2E002C0EFEEF2E0DC
:1035500084918F010F5F1F4F882311F40C94C127B2
:103560000E949C2EF801F4CF0E94FB7B0C94C12793
:1035700080910F0D9091100D019711F00C94C127BF
:1035800082E090E09093100D80930F0D0E94EC5517
:103590006093190D70931A0D80931B0D90931C0D61
:1035A0000C94C1270E9412780C94C12783E50E94D5
:1035B0000232882359F00E9470316E34710531F463
:1035C0008FE09DE00E94457D0C94C1271E8A1F8AD2
:1035D000188E198EE5E6F3E084918F010F5F1F4F7F
:1035E000882321F00E949C2EF801F6CFECE5F3E051
:1035F00084918F010F5F1F4F882321F00E949C2E22
:10360000F801F6CF60911D0D70911E0D80E090E0E5
:103610004AE00E945630EFE4F3E084918F010F5F9F
:103620001F4F882321F00E949C2EF801F6CF609155
:103630001F0D7091200D80E090E04AE00E9456300E
:10364000E4E4F3E084918F010F5F1F4F882321F0A2
:103650000E949C2EF801F6CF60911D0D70911E0DF9
:1036600080911F0D9091200D681B790B80910F0D9B
:103670009091100D019721E030E0029710F020E0CA
:1036800030E0621B730B80E090E04AE00E9456300D
:103690008AE00E949C2EECE3F3E084918F010F5F9F
:1036A0001F4F882321F00E949C2EF801F6CF8091B5
:1036B000210D9091220DA091230DB091240D8E8BA0
:1036C0009F8BA88FB98FBE016F5F7F4FCE0146964B
:1036D0000E94C02DEFE2F3E084918F010F5F1F4F36
:1036E000811105C0FE0131967F018F0104C00E9447
:1036F0009C2EF801F1CFD8018D918D01882319F00E
:103700000E949C2EF8CF8091250D9091260DA091BE
:10371000270DB091280D8E8B9F8BA88FB98FBE017E
:103720006F5F7F4FCE0146960E94C02DEFE1F3E020
:1037300084918F010F5F1F4F882321F00E949C2EE0
:10374000F801F6CFF70181917F01882319F00E94DB
:103750009C2EF8CF8AE00E949C2EE7E1F3E0849152
:103760008F010F5F1F4F882321F00E949C2EF801CC
:10377000F6CFE7E0F3E084918F010F5F1F4F8823BE
:1037800021F00E949C2EF801F6CF20E030E04AE7BD
:1037900054E46091290D70912A0D80912B0D909128
:1037A0002C0D0E94DEA042E00E94D630E5E0F3E05E
:1037B00084918F010F5F1F4F882321F00E949C2E60
:1037C000F801F6CF8AE00E949C2E0C94C12788E66F
:1037D00090E00E940E3281110C94C1278091DB0988
:1037E00083FF02C00C94C12783E50E940232882324
:1037F000C9F00E94A0310E9446A170939A0B609379
:10380000990B80E00E94A9590E94A03120E030E08D
:103810004AEA52E40E94989B181614F00E9412780B
:103820000E94A0310E94D6960C94C1278EE40E947B
:103830000232882311F40C94C1270E9470316093E6
:103840008B0C70938C0C80938D0C90938E0C0C943D
:10385000C12783E50E94D331882359F083E50E9474
:103860000232882319F00E94803101C080E08093E9
:10387000DB09E6EFFCE184918F010F5F1F4F882386
:1038800021F00E949C2EF801F6CFEBE7F3E0849143
:103890008F010F5F1F4F882321F00E949C2EF8019B
:1038A000F6CF8091DB098823A1F1FDE6CF2EF3E06E
:1038B000DF2EE12CF12C20E08091DB0990E00E2C32
:1038C00002C0959587950A94E2F780FF17C0BB2444
:1038D000B394B20E222319F08CE20E949C2EF601C2
:1038E00025913491F901849189010F5F1F4F88233D
:1038F00021F00E949C2E9801F5CF2B2DFFEFEF1A9F
:10390000FF0A32E0C30ED11C45E0E416F104A1F633
:103910000CC0E7E7F3E084918F010F5F1F4F88230E
:1039200021F00E949C2EF801F6CF8AE00E949C2E86
:103930000C94C127109202020C94C12782E893E0F4
:103940000E94C8610E94BF4C0C94C12783E50E946D
:103950000232882369F00E9480318D3320F48093F5
:103960001B020C94C1278CE380931B020C94C1278B
:10397000E6EFFCE184918F010F5F1F4F882321F058
:103980000E949C2EF801F6CF40911B0250E060E0AF
:1039900070E08BE893E00E949F7C8AE00E949C2E5E
:1039A0000C94C1278091DB0983FF02C00C94C127CE
:1039B00083E50E940232882311F40C94C1270E94EF
:1039C000A0310E9446A16739710514F066E970E0E4
:1039D0007093980B6093970B0E945F590C94C127CA
:1039E00089E690E00E940E32811111C0E2E9F3E015
:1039F00084918F010F5F1F4F882321F00E949C2E1E
:103A0000F801F6CF0E94EA568AE00E949C2E10929E
:103A1000BD0B1092BC0B0C945E2C83E50E9402320D
:103A2000882311F40C94C1270E948031182F8D3304
:103A300008F01CE31093C20B0E94EC556B017C0153
:103A4000212F30E0A8EEB3E00E94F29FC60ED71EF1
:103A5000E81EF91EC092BE0BD092BF0BE092C00BC5
:103A6000F092C10B0C94C1278DE690E00E940E32BB
:103A700081110C94C1278091DB0983FF02C00C9453
:103A8000C12783E50E9402328AAF81110C94E2279C
:103A900082E50E94023281110C94E2270C94C12726
:103AA0008091DB0983FF02C00C94C12783E50E944B
:103AB00002328AAF81110C941E2982E50E940232E3
:103AC00081110C941E290C94C12780E50E940232BA
:103AD000811108C083E50E940232811109C03FEFC5
:103AE00020E00AC00E94803181110C94C127F2CFDE
:103AF0000E947031362F272F832F922F8F3F9105F1
:103B000019F010F08FEF90E09093640C8093630CA9
:103B10000C94C12780E50E940232811106C01092E8
:103B2000640C1092630C0C94C1270E947031672BB7
:103B300011F00C94C127F3CF62E370E080E090E0D5
:103B40000E94B4550E9423400F5F1F4F033111059F
:103B500099F762E370E080E090E00E94B4550E9423
:103B600023400C94C127109220030C94C12781E0BC
:103B7000809320030C94C12783E50E94023288239E
:103B8000A1F00E94A03120E030E04AE754E40E9416
:103B9000FD9B0E944BA160931C0270931D028093B9
:103BA0001E0290931F020C94C12788E50E94D33116
:103BB00081110C945C2A89E50E94D33181110C9407
:103BC0005C2A8AE50E94D33181110C945C2A85E439
:103BD0000E94D33181110C945C2A0C94812A83E5D4
:103BE0000E94D331882311F40C94C1270E94A03184
:103BF00020E030E04AE754E40E94FD9B0E944BA184
:103C00006093C70B7093C80B8093C90B9093CA0B3A
:103C10000C94C1273BE4C32E32E0D32E4FEAE42EAE
:103C20004CE0F42E10E0D6018D916D010E94D3314D
:103C3000882309F46DC0133009F063C00E94A031DD
:103C40004B015C0120E030E040EA51E40E94989B87
:103C500087FF4EC0A50194016091BB0C7091BC0C14
:103C60008091BD0C9091BE0C0E94DEA02B013C0106
:103C70009B01AC016091370C7091380C8091390C2C
:103C800090913A0C0E94FD9B6093370C7093380C16
:103C90008093390C90933A0CA30192016091530CDC
:103CA0007091540C8091550C9091560C0E94FD9B84
:103CB0006093530C7093540C8093550C9093560C56
:103CC00060915A0D70915B0D80915C0D90915D0D2E
:103CD0000E949C9BA30192010E94FD9B0E944BA10C
:103CE00060935A0D70935B0D80935C0D90935D0D06
:103CF0008092BB0C9092BC0CA092BD0CB092BE0CFA
:103D000007C00E94A031F70160837183828393838F
:103D10001F5FF4E0EF0EF11C143009F084CF0E9415
:103D2000BE7E0C94C1270E9474420E948F4E0C9458
:103D3000C12784918F010F5F1F4F882321F00E94BC
:103D40009C2EF801F6CF60E084E494E00E944B4E94
:103D500061E08DE394E00E944B4E61E082E394E0E9
:103D60000E944B4E61E082E294E00E944B4E60E084
:103D700089E194E00E944B4E61E08FE094E00E9464
:103D80004B4E60E085E094E00E944B4E60E08DEF8A
:103D900093E00E944B4E61E08FEE93E00E944B4E09
:103DA00060E081EE93E00E944B4E60E082ED93E094
:103DB0000E944B4E60E084EC93E00E944B4E60E02A
:103DC0008EEA93E00E944B4E60E08DE993E00E9402
:103DD0004B4E0C94C12785E40E940232882319F0CF
:103DE0000E94913103C085E40E94D331882361F0A1
:103DF000E6EFFCE184918F010F5F1F4F882321F0D4
:103E00000E949C2EF801F6CF81E40E9402328823A2
:103E100019F00E94913103C081E40E94D3318823BC
:103E200061F0E3E2F5E084918F010F5F1F4F88237B
:103E300021F00E949C2EF801F6CF0091D409109138
:103E4000D509D8018D918D01882309F46ECD0E948A
:103E50009C2EF7CFEFE3F5E084918F010F5F1F4FAA
:103E6000882321F00E949C2EF801F6CFE7E3F5E0CD
:103E700084918F010F5F1F4F882321F00E949C2E99
:103E8000F801F6CF659903C00BE812E002C000E923
:103E900012E0F80181918F01882319F00E949C2E75
:103EA000F8CF8AE00E949C2EEFE2F5E084918F012A
:103EB0000F5F1F4F882321F00E949C2EF801F6CF40
:103EC0008091030180FD03C00BE812E002C000E90D
:103ED00012E0D8018D918D01882319F00E949C2E4B
:103EE000F8CF8AE00E949C2EE7E2F5E084918F01F2
:103EF0000F5F1F4F882321F00E949C2EF801F6CF00
:103F00004A9903C00BE812E002C000E912E0F80190
:103F100081918F01882309F408CD0E949C2EF7CF50
:103F200081E080930E0D80930D0D0C94C1271092AB
:103F30000E0D10920D0D0C94C12788EC90E00E949C
:103F40000E3281110C94C12784E40E94D33188235E
:103F5000C1F10E94A03111E020E030E0A9010E94EF
:103F6000989B811101C010E01093190C112349F1A5
:103F70000E94A031E091920B24E0E29FF001112415
:103F8000E25EF34F608371838283938320E030E0AD
:103F9000A90160911E0C70911F0C8091200C9091D2
:103FA000210C0E94989B81110CC080E090E0A0EE53
:103FB000BFE380931E0C90931F0CA093200CB09332
:103FC000210C0E946777DDC79EE5E92E9DE0F92E62
:103FD0000BE412E024E0D22ED00ED8018D918D0199
:103FE0000E94D331882349F00E94A0310E944BA146
:103FF000F7016083718382839383F4E0EF0EF11CF9
:10400000D012EBCF0E945A7DBCC717E4E12E1CE012
:10401000F12E0BE412E084E0D82ED00ED8018D9161
:104020008D010E94D331882339F00E94A031F7011D
:104030006083718382839383F4E0EF0EF11CD012CE
:10404000EDCF9FC783E50E94D3318823D9F00E942A
:10405000A031AB01BC0140933F0C5093400C6093E6
:10406000410C7093420C40933B0C50933C0C60937A
:104070003D0C70933E0C83EB95E00E94D97C8AE066
:104080000E949C2E80E50E94D331882399F00E94E3
:10409000A031AB01BC0140933F0C5093400C6093A6
:1040A000410C7093420C86E995E00E94D97C8AE02D
:1040B0000E949C2E82E50E94D331882399F00E94B1
:1040C000A031AB01BC014093430C5093440C60936E
:1040D000450C7093460C87E795E00E94D97C8AE0F6
:1040E0000E949C2E84E50E94D331882309F449C79D
:1040F0000E94A031AB01BC0140933B0C50933C0C9F
:1041000060933D0C70933E0C89E595E00E94D97C4C
:104110008AE00E949C2E35C783E50E94D331882314
:1041200051F00E94A03160935F0C7093600C8093FB
:10413000610C9093620C84E50E94D331882351F086
:104140000E94A03160935B0C70935C0C80935D0CBB
:1041500090935E0C82E40E94D331882351F00E9438
:10416000B02D6093570C7093580C8093590C90931A
:104170005A0C88E50E94D331882351F00E94A03167
:1041800060932B0C70932C0C80932D0C90932E0C21
:1041900089E50E94D331882351F00E94A0316093B9
:1041A0002F0C7093300C8093310C9093320C8AE575
:1041B0000E94D331882351F00E94A0316093330CC8
:1041C0007093340C8093350C9093360C85E40E94E8
:1041D000D331882309F4D5C60E94A0316093370CEF
:1041E0007093380C8093390C90933A0CCAC60E9495
:1041F0006D4DC7C60E94174DC4C680E50E94D331DD
:10420000882309F4BEC60E9470316B017C0183E5EE
:104210000E940232882321F00E9470318B0102C07B
:104220000FEF1FEFC8010196039708F0AAC6D7FC4D
:10423000A8C69C2DEBEDF5E088E28E0F2491921735
:1042400009F49FC631968E13F9CF0C94362C8AE56B
:104250000E94023281110C94862A83E50E94023268
:1042600081110C94862A8DC685E40E940232811148
:1042700010C080E50E94D331882391F00E94A031C4
:104280006093290970932A0980932B0990932C0934
:1042900007C00E948031882361F3ECEFFCE171C01C
:1042A00089E40E94D331882381F00E94A0312CEA56
:1042B00035EC47E25EE30E94FD9B60932509709315
:1042C0002609809327099093280984E40E94D3311A
:1042D000882381F00E94A0312CEA35EC47E25EE3AE
:1042E0000E94DEA060932D0970932E0980932F0900
:1042F00090933009E6EFFCE184918F010F5F1F4F2F
:10430000882321F00E949C2EF801F6CF40912909C4
:1043100050912A0960912B0970912C098BE096E04D
:104320000E94D97C2CEA35EC47E25EE360912509D6
:104330007091260980912709909128090E94DEA09A
:10434000AB01BC0187E096E00E94BC7C2CEA35EC16
:1043500047E25EE360912D0970912E0980912F094B
:10436000909130090E94FD9BAB01BC0183E096E077
:104370000E94BC7C8AE00E949C2E03C60E949C2E58
:10438000F80184918F010F5F1F4F8111F7CF0EE964
:1043900012E0D8018D918D01882309F4C6CA0E94CC
:1043A0009C2EF7CF83E50E94D331182F882371F01C
:1043B0000E94A0310E9446A170932F0260932E02AA
:1043C00021E0672B09F020E02093410D80E50E9459
:1043D000D331882359F020912E0230912F02232BC4
:1043E00011F00E9491318093410DCBC51111C9C5C7
:1043F000E6EFFCE184918F010F5F1F4F882321F0CE
:104400000E949C2EF801F6CF8091410D811103C0CE
:104410006AE972E002C06DE872E084E296E00E9410
:104420000F7D60912E0270912F0283E196E00E9431
:10443000F67CEFE0F6E084918F010F5F1F4F882339
:1044400009F49FC50E949C2EF801F5CF85E40E94D7
:104450000232882321F00E9470317B0102C0E12CDE
:10446000F12C83E40E940232882331F00E947031E3
:10447000AC966FAFAC9704C025E0AC962FAFAC976D
:1044800085E50E940232882319F00E94913103C011
:1044900085E50E94D331E8968FAFE897F7FC07C017
:1044A000812C912CB6E1AB2EB3E4BB2E06C0812C3F
:1044B000912CACE8AA2EA2E4BA2E83E50E94023227
:1044C000882321F00E94A0314B015C01E114F1042A
:1044D00011F41092920B0E94EC552B013C01E1105B
:1044E00003C00FEA12E00BC002EC12E0D8018D917C
:1044F0008D01882309F419CA0E949C2EF7CFF80178
:1045000081918F01882319F00E949C2EF8CFC5015C
:10451000B4010E9446A1072E000C880B990B0E9443
:104520009E9B6AAF7AAB8EAB9EAFA30192012058DF
:10453000374C4E4F5F4FC058DF4F288339834A8333
:104540005B83C058D0408AE00E949C2E0E94F359A1
:104550008FE78093900B81E080930202E3964CAE4C
:104560005DAE6EAE7FAEE397EC964CAE5DAE6EAEDA
:104570007FAEEC97AF961FAEAF97C458DF4F18824F
:1045800019821A821B82CC57D04027961FAE2797DC
:1045900030E42B963FAF2B974CE12F964FAF2F97E0
:1045A00056E46B965FAF6B976F961FAE6F976396EF
:1045B0001FAE639767961FAE6797A3961FAEA3972C
:1045C000AB961CAE1DAE1EAE1FAEAB97A7961CAE33
:1045D0001DAE1EAE1FAEA797C12CD12C7601FFE7F2
:1045E0008F2E912CA12CB12C8FE790E0A0E0B0E0B1
:1045F0008EA79FA7A8ABB9ABE7961CAE1DAE1EAEAB
:104600001FAEE79791E0AE969FAFAE9724961FAE90
:104610001EAE249710E0212C312C00E0AC96AFADFB
:10462000AC970A2E000CBB0BAD96BFAFAEAFAD97EB
:1046300080910202882309F4E0C00E94EC556AA729
:104640007BA78CA79DA780918E0B882309F4B9C006
:104650000E94B95A10919B0B20909C0B30909D0B9F
:1046600000919E0B212F322D432D502F6F966FAD51
:104670006F9763967FAD639767968FAD6797A396A5
:104680009FADA3970E94989B87FF0CC06F961FAFAA
:104690006F9763962FAE639767963FAE6797A39623
:1046A0000FAFA397212F322D432D502F27966FAD9B
:1046B00027972B967FAD2B972F968FAD2F976B96C5
:1046C0009FAD6B970E9428A2181664F427961FAF1F
:1046D00027972B962FAE2B972F963FAE2F976B9643
:1046E0000FAF6B97AE96BFADAE972AAD3AA94EA964
:1046F0005EAD612F722D832D902FBB2309F447C02F
:104700000E9428A218160CF05CC04AA55BA56CA5F7
:104710007DA54419550966097709DB01CA01885846
:104720009341A109B109B7FD4CC08EA59FA5A8A9C9
:10473000B9A988199909AA09BB09B595A7959795AB
:1047400087958093900BE7964CAF5DAF6EAF7FAFD0
:10475000E797EAAD6F96EFAF6F97FAA96396FFAF51
:1047600063972EA967962FAF67973EADA3963FAF8D
:10477000A3978AA59BA5ACA5BDA5E3968CAF9DAFDD
:10478000AEAFBFAFE397AE961FAEAE971AC00E9412
:10479000989B87FF16C08AA59BA5ACA5BDA5E396EF
:1047A0002CAD3DAD4EAD5FADE397821B930BA40BDB
:1047B000B50BAC01BD01485853416109710977FF40
:1047C000DEC620E030E040EA51E46AAD7AA98EA965
:1047D0009EAD0E9402A09B01AC01612F722D832D22
:1047E000902F0E9428A218167CF4EFE2F7E0849143
:1047F0008F010F5F1F4F811103C00E94F359C1C386
:104800000E949C2EF801F3CF8AA59BA5ACA5BDA55F
:10481000EC962CAD3DAD4EAD5FADEC97821B930B8E
:10482000A40BB50BB7FD99C00E94EA568AE00E941E
:104830009C2E8AA59BA5ACA5BDA58053984FAF4FD4
:10484000BF4FEC968CAF9DAFAEAFBFAFEC97AF96BE
:104850009FADAF97911166C0C458DF4F2881398151
:104860004A815B81CC57D040612F722D832D902FD0
:104870000E9428A218160CF03EC020E030E040EE66
:1048800050E46AAD7AA98EA99EAD0E9401A09B0159
:10489000AC01A1E0AF96AFAFAF97612F722D832D22
:1048A000902F0E9428A218161CF0AF961FAEAF974B
:1048B00020E030E040E050E4612F722D832D902FF6
:1048C0000E9402A0C458DF4F688379838A839B8348
:1048D000CC57D0402AA53BA54CA55DA52058374C08
:1048E0004E4F5F4FC058DF4F288339834A835B8325
:1048F000C058D04032C08AA59BA5ACA5BDA5C05864
:10490000DF4F288139814A815B81C058D040821BAA
:10491000930BA40BB50BB7FD20C041E157E060E25B
:1049200077E018C020E030E040EA51E46AAD7AA9AF
:104930008EA99EAD0E9401A09B01AC01612F722D3A
:10494000832D902F0E94989B87FF07C041EF56E070
:1049500061E077E080E00E94B63F8AA59BA5ACA508
:10496000BDA5880F991FAA1FBB1FE3962CAD3DADB7
:104970004EAD5FADE397821B930BA40BB50B84196F
:104980009509A609B70981389F44A241B10568F08D
:10499000E3EDF6E084918F010F5F1F4F882309F448
:1049A0002CCF0E949C2EF801F5CF24964EAD5FAD22
:1049B0002497AD968EAD9FADAD97841795070CF0FB
:1049C00037CEE6E7F6E084918F010F5F1F4F882313
:1049D00021F00E949C2EF801F6CFB701A60181E6D6
:1049E00096E00E94D97C8AE00E949C2EA7964CAD4E
:1049F0005DAD6EAD7FADA7978CE496E00E94D97C4B
:104A00008AE00E949C2EAB964CAD5DAD6EAD7FAD45
:104A1000AB9787E396E00E94D97C8AE00E949C2EA7
:104A2000E8969FADE897992309F4ABC2C092290993
:104A3000D0922A09E0922B09F0922C092CEA35EC4D
:104A400047E25EE3A7966CAD7DAD8EAD9FADA797B7
:104A50000E94FD9B60932509709326098093270986
:104A6000909328092CEA35EC47E25EE3AB966CADF7
:104A70007DAD8EAD9FADAB970E94DEA060932D09FA
:104A800070932E0980932F09909330097AC28091F8
:104A90009F0C9091A00CA091A10CB091A20C8983C5
:104AA0009A83AB83BC838091A30C9091A40CA091BA
:104AB000A50CB091A60C8D839E83AF83B88780919F
:104AC000A70C9091A80CA091A90CB091AA0C898771
:104AD0009A87AB87BC8786E50E94D331882391F003
:104AE0008091FE0D882371F0E0EDF7E084918F0155
:104AF0000F5F1F4F882321F00E949C2EF801F6CFF4
:104B00000E94984F83E50E94D331882331F00E94A0
:104B10009131182F0E94B55101C010E0F090220C85
:104B2000111103C0E6EFFCE11AC0F110FBCFECEF6E
:104B3000FCE184918F010F5F1F4F882321F00E94B9
:104B40009C2EF801F6CFE1EBF7E084918F010F5F27
:104B50001F4F882339F30E949C2EF801F6CF8491D1
:104B60008F010F5F1F4F882321F00E949C2EF801B8
:104B7000F6CFF11003C067E872E002C063E872E0AC
:104B800083EA97E00E940F7D8AE00E949C2E4CE011
:104B900050E06FE97CE0CE0101960E94FFA2892BD4
:104BA00009F4EFC10E948F4EECC188E50E94D33119
:104BB000B82E89E40E94D331A82E882319F00E94D0
:104BC00070311AC0BB20D1F00E94A03120E030E04B
:104BD00040E251E40E9401A020E030E040E752E4CE
:104BE0000E9402A029E838E848E05CE30E94FD9BAF
:104BF0000E9446A1633010F4F62E02C0FF24FA94FE
:104C000089E50E94D331E82E8AE40E94D331182F1F
:104C1000882319F00E9470311AC0EE20D1F00E9452
:104C2000A03120E030E040E251E40E9401A020E009
:104C300030E046E652E40E9402A025E338E74EE069
:104C40005CE30E94FD9B0E9446A1633010F4062F96
:104C500001C00FEF8AE50E94D331C82E811105C033
:104C600081E50E94D331D82E01C0D12CA11001C002
:104C700010E0212F30E0B11002C090E001C09E2D65
:104C8000290F311D2130310519F0ECEFFCE105C091
:104C9000C1101AC0D11018C0F8CF84918F010F5FD6
:104CA0001F4F882321F00E949C2EF801F6CFE5E0EB
:104CB000F8E084918F010F5F1F4F882309F461C1D1
:104CC0000E949C2EF801F5CFF7FE03C0ECEFFCE14B
:104CD00006C007FF17C0FACF0E949C2EF8018491EE
:104CE0008F010F5F1F4F8111F7CFE6EEF7E0849140
:104CF0008F010F5F1F4F882309F443C10E949C2E30
:104D0000F801F5CF0E94A031A02F000FBB0B0F2D93
:104D1000FF0C110BDD2091F0F801EE0FFF1FE00FEB
:104D2000F11FEA0FFB1FEE0FFF1FEE0FFF1FED5FDE
:104D3000F14F208131814281538103C020E030E076
:104D4000A901F801EE0FFF1F0E0F1F1F0A0F1B1FF7
:104D5000000F111F000F111F0D5F114F0E9402A0C5
:104D6000D8016D937D938D939C9313970AC10E94F4
:104D7000837B811106C199EBA92E99E1B92EEFE948
:104D8000FCE0FBA7EAA79E012F5F3F4F490102E12C
:104D90001AE1190133E0300F3EA7F50165917591D5
:104DA00085919491AAA5BBA5CD90DD90ED90FD9045
:104DB000BBA7AAA7A70196010E9401A02B013C0155
:104DC00020E030E040EA51EC0E9428A287FD10C0AC
:104DD00020E030E040EA51E4C301B2010E94989B18
:104DE000181634F0F10140825182628273820DC044
:104DF000F80184911816B4F7F7FAF094F7F8F094E4
:104E0000F101C082D182E282F382D101CD90DD90A6
:104E1000ED90FD901D0120E030E040EA51ECC7012B
:104E2000B6010E9428A287FF03C0ECEFFCE10BC093
:104E300020E030E040EA51E4C701B6010E94989BAF
:104E40001816B4F4F2CF84918F010F5F1F4F88239F
:104E500019F072D7F801F7CFE5E2F8E084918F01FD
:104E60000F5F1F4F882309F48CC066D7F801F6CF77
:104E7000B4E0AB0EB11C0F5F1F4FEEA5E0138DCF5A
:104E800086EAE82E89E0F82E00E010E0F401819136
:104E90009191A191B1914F01F70181939193A193C8
:104EA000B1937F01C801D4D50F5F1F4F03301105A7
:104EB00069F70E948F4E65C00E94485B62C00E94E5
:104EC00038825FC00E942C695CC00E947B4B59C035
:104ED0000E94604B56C00E944D4B53C0F090D609C3
:104EE000FF2009F1E6EFFCE184918F010F5F1F4F76
:104EF000882319F021D7F801F7CF84E51DD76F2D4E
:104F000070E080E090E04AE00E94563080E214D7E2
:104F10000EE912E0D8018D918D01882311F40C94D3
:104F2000951C0AD7F7CF1092F10DE6EFFCE18491C2
:104F30008F010F5F1F4F882319F0FED6F801F7CFBE
:104F40006091F10D70E083E498E00E94F67C8AE0C5
:104F5000F3D617C0E6EFFCE184918F010F5F1F4F7E
:104F6000882319F0E9D6F801F7CF6091D90970913B
:104F7000DA0985E598E00E940F7D82E2DDD68AE0BD
:104F8000DBD61092BD0B1092BC0B0E94AF8A96C468
:104F90000E944C500E945C87F4CF61E0802F0E94F9
:104FA000B1546E2D802F0E948254F12CB701802FB6
:104FB0000E94ED540930110521F7F092640CE09243
:104FC000630CDFCF0E94A0310E9446A170939A0B20
:104FD0006093990B80E00E94A9590E94A03120E0C3
:104FE00030E04AEA52E40E94989B18161CF00E9496
:104FF000127802C00E94FB7B0E94D69681E08093CB
:1050000002021EA61FA618AA19AA1AAA1BAA1CAA3F
:105010001DAA1AA61EAA5CE35EAF8CE123968FAF91
:10502000239796E427969FAF2797C12CD12C70E841
:10503000E72EEFEBFE2E812C912C54016091990B01
:1050400070919A0B072E000C880B990B0E949E9B67
:10505000162F072F782E692E262F372F482F592FDE
:10506000B601C7010E94989B8823D1F020919B0B29
:1050700030919C0B40919D0B50919E0B612F702F96
:10508000872D962D0E94989B881F8827881F8AA7A6
:10509000AAADAA2349F0882339F08091020271CF8A
:1050A0001C2D0D2D7E2C6F2C0E94EC556B017C016C
:1050B000DC01CB012AA93BA94CA95DA9821B930B5A
:1050C000A40BB50BB7FD38C0D701C60188519C4F62
:1050D000AF4FBF4F8AAB9BABACABBDAB0E94EA56A8
:1050E000E5E9F3E084912F019FEF491A590A8823DB
:1050F00019F022D6F201F6CF81149104A104B10473
:10510000B9F0D501C40188519C4FAF4FBF4FBC01CE
:10511000CD016C197D098E099F0928EE33E040E02E
:1051200050E00E94A49FCA01B9010E94BC3002C095
:105130008FE302D68AE000D60E94F861F2D5209073
:105140009B0B30909C0B40909D0B50909E0B9101BF
:10515000A201612F702F872D962D0E9401A09F77AD
:1051600081149104A104B10449F420E030E040E846
:105170005FE30E94989B87FF0BC008C020E030E0EF
:1051800040E850E40E9428A2181614F44601570182
:10519000AAA5AA23B9F12EA53FA548A959A9211569
:1051A00031054105510541F0D701C601821B930B22
:1051B000A40BB50BB7FD26C09101A2016EA97EAD6F
:1051C00023968FAD239727969FAD27970E9401A026
:1051D00020E030E040EC5FE30E94989B87FD5DCFCC
:1051E000D701C601805A9541AF4FBF4F8EA79FA7E9
:1051F000A8ABB9AB2EAA3EAE23964FAE2397279607
:105200005FAE279780910202882309F446CF81146C
:105210009104A104B10429F4C12ED02EE72CF62C60
:105220000DCF98EEC91A93E0D90AE108F108C81821
:10523000D908EA08FB08F7FE30CFEECF0E94A03174
:105240000E9446A16739710514F066E970E0709319
:10525000980B6093970B0E945F590E94A03120E049
:1052600030E040EA50E40E9428A2181614F40E948C
:10527000FB7B81E0809302028091F10D8093920B81
:105280001EA61FA618AA19AA1AAA1BAA1CAA1DAAFA
:105290001AA61EAAACE3AEAFBCE12396BFAF23971C
:1052A000E6E42796EFAF2797C12CD12C50E8E52EE6
:1052B0006FEBF62E812C912C54016091970B70911D
:1052C000980B072E000C880B990B0E949E9B162FA3
:1052D000072F782E692E262F372F482F592FB601EA
:1052E000C7010E94989B8823D1F02091930B3091A5
:1052F000940B4091950B5091960B612F702F872D39
:10530000962D0E94989B881F8827881F8AA7FAAD30
:10531000FF2349F0882339F08091020232CE1C2D00
:105320000D2D7E2C6F2C0E94EC556B017C01DC0155
:10533000CB012AA93BA94CA95DA9821B930BA40B05
:10534000B50BB7FD37C0D701C60188519C4FAF4F91
:10535000BF4F8AAB9BABACABBDAB0E94EA56E9E951
:10536000F3E084912F019FEF491A590A882319F01D
:10537000E3D4F201F6CF81149104A104B104B1F099
:10538000D501C4018053984FAF4FBF4FBC01CD0131
:105390006C197D098E099F0928EE33E040E050E04A
:1053A0000E94A49FCA01B901E7D602C08FE3C4D40A
:1053B0008AE0C2D40E94F861B4D42090930B30905C
:1053C000940B4090950B5090960B9101A201612F88
:1053D000702F872D962D0E9401A09F778114910434
:1053E000A104B10449F420E030E040E85FE30E940A
:1053F000989B87FF0BC008C020E030E040E450E4F9
:105400000E9428A2181614F446015701AAA5AA233F
:10541000B9F12EA53FA548A959A921153105410586
:10542000510541F0D701C601821B930BA40BB50BAC
:10543000B7FD26C09101A2016EA97EAD23968FAD66
:10544000239727969FAD27970E9401A020E030E088
:1054500040EC5FE30E94989B87FD5ECFD701C601B9
:10546000805A9541AF4FBF4F8EA79FA7A8ABB9AB4E
:105470002EAA3EAE23964FAE239727965FAE279770
:1054800080910202882309F447CF81149104A1047A
:10549000B10429F4C12ED02EE72CF62C0ECF90EDBE
:1054A000C91A97E0D90AE108F108C818D908EA082A
:1054B000FB08F7FE31CFEECF0E94744288E573D728
:1054C000882319F05F9A1092A30989E56CD7882385
:1054D00019F08A9A1092A4098AE565D7882351F0B9
:1054E0009FB7F894809108018160809308019FBF65
:1054F0001092A50985E457D7882309F442CD129A62
:1055000040CD0E9474420E944B873BCD19D720E0CA
:1055100030E040E050EC0E94989B87FD10C010D70F
:1055200020E030E040E050E40E9428A2181614F079
:1055300007D709C060E070E080E090E404C060E05C
:1055400070E080E090EC2091B70C3091B80C409165
:10555000B90C5091BA0CE091A509EE2309F411CDD4
:1055600000918C0B10918D0B0E94FD9B0E9446A117
:10557000600F711F70938D0B60938C0B02CD24967E
:105580004EAD5FAD2497452B09F439C1E7964CAC7D
:105590005DAC6EAC7FACE797480E591E6A1E7B1E51
:1055A000E7962CAD3DAD4EAD5FADE797281B390BAF
:1055B0004A0B5B0BCA01B901A50194010E94959F9A
:1055C000A30192010E94C69F8EA49FA4A8A8B9A877
:1055D000820E931EA41EB51E34E183169104A1040D
:1055E000B1040CF14CEE84169104A104B1043CF416
:1055F00050E885169104A104B10434F422C07BEE76
:10560000872E912CA12CB12C8EA69FA6A8AAB9AA50
:105610008EEF90E0A0E0B0E088199909AA09BB09D3
:105620004C015D0112C024E130E040E050E02EA7C3
:105630003FA748AB59AB64E1862E912CA12CB12C2D
:1056400004C08EA69FA6A8AAB9AA4EA55FA568A960
:1056500079A98BE997E00E94AF96B501A40186E98C
:1056600097E00E94AF9627964FAD27972B965FAD98
:105670002B972F966FAD2F976B967FAD6B978FE81B
:1056800097E00E94D97C6F964FAD6F9763965FADA0
:10569000639767966FAD6797A3967FADA39788E8EA
:1056A00097E00E94D97C24964EAD5FAD249743309D
:1056B00051050CF4A4C0C501B4010E949E9B20E0DA
:1056C00030E040E850E40E94FD9B6B017C0127968E
:1056D0002FAD27972B963FAD2B972F964FAD2F973A
:1056E0006B965FAD6B976F966FAD6F9763967FAD5F
:1056F000639767968FAD6797A3969FADA3970E9418
:1057000001A02BED3FE049E450E40E94FD9B20E026
:1057100030E040E05FE30E94FD9B9B01AC01C701CC
:10572000B6010E94DEA06B017C01C301B2010E94A0
:105730009E9B2FE632E143E85AE30E94FD9B2B013A
:105740003C01B701A60182E897E00E94D97CB30131
:10575000A2018CE797E00E94D97C2AE939E949E166
:105760005FE3C701B6010E94FD9B6B017C019B01B9
:10577000AC010E9402A0A30192010E94DEA0A796A4
:105780006CAF7DAF8EAF9FAFA797A3019201C7010A
:10579000B6010E94FD9B20E030E040E05EE30E9405
:1057A000FD9BAB966CAF7DAF8EAF9FAFAB97ECE63A
:1057B000F7E084913F015FEF651A750A882319F0BD
:1057C000BBD2F301F6CFB701A60186E697E00E94AF
:1057D000D97CA7964CAD5DAD6EAD7FADA79780E649
:1057E00097E00E94D97CAB964CAD5DAD6EAD7FADC0
:1057F000AB978AE597E00E94D97C8AE09DD28EA57E
:105800009FA5A8A9B9A9880D991DAA1DBB1DB5956D
:10581000A795979587958093900B24968EAD9FAD15
:105820002497019624969FAF8EAF24979AAD279622
:105830009FAF2797AAA92B96AFAF2B97BEA92F96FC
:10584000BFAF2F97EEAD6B96EFAF6B974AA45BA4FB
:105850006CA47DA4F1E0AE96FFAFAE970C94E1236B
:10586000E1100C94771816D60C948A180E94744292
:10587000BC2C60E08C2D0E94B1540F3FFFEF1F073E
:1058800059F48C2D0E94DF5331E020E0892B09F080
:1058900030E0032F122F05C00130110561F000E048
:1058A00010E08B2D0E94DF538017910709F469CB1C
:1058B0000E94F861F6CF01E010E0F3CFCD57DF4F43
:1058C0000FB6F894DEBF0FBECDBFDF91CF911F9111
:1058D0000F91FF90EF90DF90CF90BF90AF909F908F
:1058E0008F907F906F905F904F903F902F90089592
:1058F0008FB7F8949091F00D2091EF0D291759F082
:10590000E92FF0E0E159F24F208130E09F5F9F776F
:105910009093F00D02C02FEF3FEF8FBFC9010895A4
:10592000CF92DF92EF92FF92CF93DF936B017C01D6
:10593000EA012FE632E143E85AEB0E9428A287FDF4
:1059400023C021E230E042E853E4C701B6010E94DF
:10595000989B1816CCF0C880D980EA80FB802FE68F
:1059600032E143E85AEBC701B6010E9428A287FD45
:105970000BC0C1E022E430E04AE753E4C701B601BE
:105980000E94989B18160CF4C0E08C2FDF91CF91E9
:10599000FF90EF90DF90CF900895FF920F931F93A9
:1059A000CF93DF93FC0120812B3319F1D0917A0B37
:1059B000D430F8F4F62EBC01C0919A030C2F10E0FD
:1059C000F0E6CF9FC00111248452964F0E9420A37D
:1059D000F801EE54F64FF082CF5FC43018F4C09354
:1059E0009A0302C010929A03DF5FD0937A0B81E092
:1059F00001C080E0DF91CF911F910F91FF9008953A
:105A0000CF92DF92EF92FF92C0904302D090440277
:105A1000E0904502F0904602FC0180819181A281D4
:105A2000B3818093430290934402A0934502B093C4
:105A300046020E945C87C0924302D0924402E092E8
:105A40004502F0924602FF90EF90DF90CF900895CC
:105A50000F931F93CF93DF93EC01CC0FDD1FCC0F7F
:105A6000DD1F8E01005F1C4FFE01EA55F64FDE017F
:105A7000A553B44F2D913D914D915C916081718101
:105A8000828193810E9402A0F801608371838283E6
:105A90009383FE01EA53F34F85919591A591B491BB
:105AA000FE01E952F44F80839183A283B383FE0108
:105AB000EE52F34F85919591A591B491C05EDD4F63
:105AC00088839983AA83BB83DF91CF911F910F9124
:105AD00008950F931F93CF93DF93CDB7DEB72C9725
